{
  "contractName": "RaffleContract",
  "abi": [
    {
      "inputs": [],
      "payable": false,
      "stateMutability": "nonpayable",
      "type": "constructor"
    },
    {
      "anonymous": false,
      "inputs": [
        {
          "indexed": false,
          "internalType": "string",
          "name": "description",
          "type": "string"
        }
      ],
      "name": "LogNewProvableQuery",
      "type": "event"
    },
    {
      "anonymous": false,
      "inputs": [
        {
          "indexed": true,
          "internalType": "address",
          "name": "player",
          "type": "address"
        },
        {
          "indexed": false,
          "internalType": "bytes32",
          "name": "queryId",
          "type": "bytes32"
        },
        {
          "indexed": false,
          "internalType": "uint256",
          "name": "value",
          "type": "uint256"
        }
      ],
      "name": "betPlaced",
      "type": "event"
    },
    {
      "anonymous": false,
      "inputs": [
        {
          "indexed": true,
          "internalType": "address",
          "name": "player",
          "type": "address"
        },
        {
          "indexed": false,
          "internalType": "bytes32",
          "name": "Id",
          "type": "bytes32"
        },
        {
          "indexed": false,
          "internalType": "uint256",
          "name": "value",
          "type": "uint256"
        },
        {
          "indexed": false,
          "internalType": "bool",
          "name": "result",
          "type": "bool"
        }
      ],
      "name": "betTaken",
      "type": "event"
    },
    {
      "anonymous": false,
      "inputs": [
        {
          "indexed": false,
          "internalType": "address",
          "name": "contractOwner",
          "type": "address"
        },
        {
          "indexed": false,
          "internalType": "uint256",
          "name": "funding",
          "type": "uint256"
        }
      ],
      "name": "contractFunded",
      "type": "event"
    },
    {
      "anonymous": false,
      "inputs": [
        {
          "indexed": false,
          "internalType": "uint256",
          "name": "randomNumber",
          "type": "uint256"
        }
      ],
      "name": "generatedRandomNumber",
      "type": "event"
    },
    {
      "constant": true,
      "inputs": [
        {
          "internalType": "bytes32",
          "name": "",
          "type": "bytes32"
        }
      ],
      "name": "betting",
      "outputs": [
        {
          "internalType": "address payable",
          "name": "player",
          "type": "address"
        },
        {
          "internalType": "uint256",
          "name": "value",
          "type": "uint256"
        },
        {
          "internalType": "bool",
          "name": "result",
          "type": "bool"
        }
      ],
      "payable": false,
      "stateMutability": "view",
      "type": "function"
    },
    {
      "constant": true,
      "inputs": [],
      "name": "owner",
      "outputs": [
        {
          "internalType": "address",
          "name": "",
          "type": "address"
        }
      ],
      "payable": false,
      "stateMutability": "view",
      "type": "function"
    },
    {
      "constant": true,
      "inputs": [
        {
          "internalType": "address",
          "name": "",
          "type": "address"
        }
      ],
      "name": "waiting",
      "outputs": [
        {
          "internalType": "bool",
          "name": "",
          "type": "bool"
        }
      ],
      "payable": false,
      "stateMutability": "view",
      "type": "function"
    },
    {
      "constant": false,
      "inputs": [
        {
          "internalType": "bytes32",
          "name": "_myid",
          "type": "bytes32"
        },
        {
          "internalType": "string",
          "name": "_result",
          "type": "string"
        }
      ],
      "name": "__callback",
      "outputs": [],
      "payable": false,
      "stateMutability": "nonpayable",
      "type": "function"
    },
    {
      "constant": false,
      "inputs": [
        {
          "internalType": "bytes32",
          "name": "_queryId",
          "type": "bytes32"
        },
        {
          "internalType": "string",
          "name": "_result",
          "type": "string"
        },
        {
          "internalType": "bytes",
          "name": "_proof",
          "type": "bytes"
        }
      ],
      "name": "__callback",
      "outputs": [],
      "payable": false,
      "stateMutability": "nonpayable",
      "type": "function"
    },
    {
      "constant": false,
      "inputs": [],
      "name": "flip",
      "outputs": [],
      "payable": true,
      "stateMutability": "payable",
      "type": "function"
    },
    {
      "constant": false,
      "inputs": [],
      "name": "withdrawAll",
      "outputs": [
        {
          "internalType": "uint256",
          "name": "",
          "type": "uint256"
        }
      ],
      "payable": false,
      "stateMutability": "nonpayable",
      "type": "function"
    },
    {
      "constant": false,
      "inputs": [],
      "name": "fundContract",
      "outputs": [
        {
          "internalType": "uint256",
          "name": "",
          "type": "uint256"
        }
      ],
      "payable": true,
      "stateMutability": "payable",
      "type": "function"
    },
    {
      "constant": true,
      "inputs": [],
      "name": "getContractBalance",
      "outputs": [
        {
          "internalType": "uint256",
          "name": "",
          "type": "uint256"
        }
      ],
      "payable": false,
      "stateMutability": "view",
      "type": "function"
    }
  ],
  "bytecode": "0x60806040523480156200001157600080fd5b50336000806101000a81548173ffffffffffffffffffffffffffffffffffffffff021916908373ffffffffffffffffffffffffffffffffffffffff16021790555062000067603060f81b6200006d60201b60201c565b62000a91565b600073ffffffffffffffffffffffffffffffffffffffff16600260009054906101000a900473ffffffffffffffffffffffffffffffffffffffff1673ffffffffffffffffffffffffffffffffffffffff161480620000fd57506000620000fb600260009054906101000a900473ffffffffffffffffffffffffffffffffffffffff16620003d360201b60201c565b145b156200011757620001156000620003de60201b60201c565b505b600260009054906101000a900473ffffffffffffffffffffffffffffffffffffffff1673ffffffffffffffffffffffffffffffffffffffff166338cc48316040518163ffffffff1660e01b8152600401602060405180830381600087803b1580156200018257600080fd5b505af115801562000197573d6000803e3d6000fd5b505050506040513d6020811015620001ae57600080fd5b810190808051906020019092919050505073ffffffffffffffffffffffffffffffffffffffff16600160009054906101000a900473ffffffffffffffffffffffffffffffffffffffff1673ffffffffffffffffffffffffffffffffffffffff1614620002fd57600260009054906101000a900473ffffffffffffffffffffffffffffffffffffffff1673ffffffffffffffffffffffffffffffffffffffff166338cc48316040518163ffffffff1660e01b8152600401602060405180830381600087803b1580156200027f57600080fd5b505af115801562000294573d6000803e3d6000fd5b505050506040513d6020811015620002ab57600080fd5b8101908080519060200190929190505050600160006101000a81548173ffffffffffffffffffffffffffffffffffffffff021916908373ffffffffffffffffffffffffffffffffffffffff1602179055505b600160009054906101000a900473ffffffffffffffffffffffffffffffffffffffff1673ffffffffffffffffffffffffffffffffffffffff1663688dcfd7826040518263ffffffff1660e01b815260040180827effffffffffffffffffffffffffffffffffffffffffffffffffffffffffffff19167effffffffffffffffffffffffffffffffffffffffffffffffffffffffffffff19168152602001915050600060405180830381600087803b158015620003b757600080fd5b505af1158015620003cc573d6000803e3d6000fd5b5050505050565b6000813b9050919050565b6000620003f0620003f760201b60201c565b9050919050565b6000806200041f731d3b2638a7cc9f2cb3d298a3da7a90b67e5506ed620003d360201b60201c565b1115620004cb57731d3b2638a7cc9f2cb3d298a3da7a90b67e5506ed600260006101000a81548173ffffffffffffffffffffffffffffffffffffffff021916908373ffffffffffffffffffffffffffffffffffffffff160217905550620004c16040518060400160405280600b81526020017f6574685f6d61696e6e6574000000000000000000000000000000000000000000815250620009c660201b60201c565b60019050620009c3565b6000620004f273c03a2615d5efaf5f49f60b7bb6583eaec212fdf1620003d360201b60201c565b11156200059e5773c03a2615d5efaf5f49f60b7bb6583eaec212fdf1600260006101000a81548173ffffffffffffffffffffffffffffffffffffffff021916908373ffffffffffffffffffffffffffffffffffffffff160217905550620005946040518060400160405280600c81526020017f6574685f726f707374656e330000000000000000000000000000000000000000815250620009c660201b60201c565b60019050620009c3565b6000620005c573b7a07bcf2ba2f2703b24c0691b5278999c59ac7e620003d360201b60201c565b1115620006715773b7a07bcf2ba2f2703b24c0691b5278999c59ac7e600260006101000a81548173ffffffffffffffffffffffffffffffffffffffff021916908373ffffffffffffffffffffffffffffffffffffffff160217905550620006676040518060400160405280600981526020017f6574685f6b6f76616e0000000000000000000000000000000000000000000000815250620009c660201b60201c565b60019050620009c3565b60006200069873146500cfd35b22e4a392fe0adc06de1a1368ed48620003d360201b60201c565b1115620007445773146500cfd35b22e4a392fe0adc06de1a1368ed48600260006101000a81548173ffffffffffffffffffffffffffffffffffffffff021916908373ffffffffffffffffffffffffffffffffffffffff1602179055506200073a6040518060400160405280600b81526020017f6574685f72696e6b656279000000000000000000000000000000000000000000815250620009c660201b60201c565b60019050620009c3565b60006200076b73a2998efd205fb9d4b4963afb70778d6354ad3a41620003d360201b60201c565b1115620008175773a2998efd205fb9d4b4963afb70778d6354ad3a41600260006101000a81548173ffffffffffffffffffffffffffffffffffffffff021916908373ffffffffffffffffffffffffffffffffffffffff1602179055506200080d6040518060400160405280600a81526020017f6574685f676f65726c6900000000000000000000000000000000000000000000815250620009c660201b60201c565b60019050620009c3565b60006200083e736f485c8bf6fc43ea212e93bbf8ce046c7f1cb475620003d360201b60201c565b1115620008a457736f485c8bf6fc43ea212e93bbf8ce046c7f1cb475600260006101000a81548173ffffffffffffffffffffffffffffffffffffffff021916908373ffffffffffffffffffffffffffffffffffffffff16021790555060019050620009c3565b6000620008cb7320e12a1f859b3feae5fb2a0a32c18f5a65555bbf620003d360201b60201c565b111562000931577320e12a1f859b3feae5fb2a0a32c18f5a65555bbf600260006101000a81548173ffffffffffffffffffffffffffffffffffffffff021916908373ffffffffffffffffffffffffffffffffffffffff16021790555060019050620009c3565b6000620009587351efaf4c8b3c9afbd5ab9f4bbc82784ab6ef8faa620003d360201b60201c565b1115620009be577351efaf4c8b3c9afbd5ab9f4bbc82784ab6ef8faa600260006101000a81548173ffffffffffffffffffffffffffffffffffffffff021916908373ffffffffffffffffffffffffffffffffffffffff16021790555060019050620009c3565b600090505b90565b8060039080519060200190620009de929190620009e2565b5050565b828054600181600116156101000203166002900490600052602060002090601f016020900481019282601f1062000a2557805160ff191683800117855562000a56565b8280016001018555821562000a56579182015b8281111562000a5557825182559160200191906001019062000a38565b5b50905062000a65919062000a69565b5090565b62000a8e91905b8082111562000a8a57600081600090555060010162000a70565b5090565b90565b613e9e8062000aa16000396000f3fe6080604052600436106100865760003560e01c8063853828b611610059578063853828b61461037e5780638da5cb5b146103a9578063bd097e2114610400578063cde4efa91461041e578063e437786d1461042857610086565b806327dc297e1461008b578063303b2f4b1461015d57806338bbfa50146101ea5780636f9fb98a14610353575b600080fd5b34801561009757600080fd5b5061015b600480360360408110156100ae57600080fd5b8101908080359060200190929190803590602001906401000000008111156100d557600080fd5b8201836020820111156100e757600080fd5b8035906020019184600183028401116401000000008311171561010957600080fd5b91908080601f016020809104026020016040519081016040528093929190818152602001838380828437600081840152601f19601f820116905080830192505050505050509192919290505050610491565b005b34801561016957600080fd5b506101966004803603602081101561018057600080fd5b81019080803590602001909291905050506104d4565b604051808473ffffffffffffffffffffffffffffffffffffffff1673ffffffffffffffffffffffffffffffffffffffff16815260200183815260200182151515158152602001935050505060405180910390f35b3480156101f657600080fd5b506103516004803603606081101561020d57600080fd5b81019080803590602001909291908035906020019064010000000081111561023457600080fd5b82018360208201111561024657600080fd5b8035906020019184600183028401116401000000008311171561026857600080fd5b91908080601f016020809104026020016040519081016040528093929190818152602001838380828437600081840152601f19601f820116905080830192505050505050509192919290803590602001906401000000008111156102cb57600080fd5b8201836020820111156102dd57600080fd5b803590602001918460018302840111640100000000831117156102ff57600080fd5b91908080601f016020809104026020016040519081016040528093929190818152602001838380828437600081840152601f19601f82011690508083019250505050505050919291929050505061052b565b005b34801561035f57600080fd5b506103686109e5565b6040518082815260200191505060405180910390f35b34801561038a57600080fd5b50610393610a09565b6040518082815260200191505060405180910390f35b3480156103b557600080fd5b506103be610b00565b604051808273ffffffffffffffffffffffffffffffffffffffff1673ffffffffffffffffffffffffffffffffffffffff16815260200191505060405180910390f35b610408610b25565b6040518082815260200191505060405180910390f35b610426610bff565b005b34801561043457600080fd5b506104776004803603602081101561044b57600080fd5b81019080803573ffffffffffffffffffffffffffffffffffffffff169060200190929190505050610ece565b604051808215151515815260200191505060405180910390f35b6104d0828260006040519080825280601f01601f1916602001820160405280156104ca5781602001600182028038833980820191505090505b5061052b565b5050565b60076020528060005260406000206000915090508060000160009054906101000a900473ffffffffffffffffffffffffffffffffffffffff16908060010154908060020160009054906101000a900460ff16905083565b610533610eee565b73ffffffffffffffffffffffffffffffffffffffff163373ffffffffffffffffffffffffffffffffffffffff161461056a57600080fd5b600061057784848461120e565b60ff1614610584576109e0565b600060ff90506002836040516020018082805190602001908083835b602083106105c357805182526020820191506020810190506020830392506105a0565b6001836020036101000a0380198251168184511680821785525050505050509050019150506040516020818303038152906040528051906020012060001c8161060857fe5b06905060008114156106485760006007600086815260200190815260200160002060020160006101000a81548160ff021916908315150217905550610848565b600181141561071b5760016007600086815260200190815260200160002060020160006101000a81548160ff0219169083151502179055506007600085815260200190815260200160002060000160009054906101000a900473ffffffffffffffffffffffffffffffffffffffff1673ffffffffffffffffffffffffffffffffffffffff166108fc60026007600088815260200190815260200160002060010154029081150290604051600060405180830381858888f19350505050158015610715573d6000803e3d6000fd5b50610847565b60ff811415610846576000600860006007600088815260200190815260200160002060000160009054906101000a900473ffffffffffffffffffffffffffffffffffffffff1673ffffffffffffffffffffffffffffffffffffffff1673ffffffffffffffffffffffffffffffffffffffff16815260200190815260200160002060006101000a81548160ff0219169083151502179055506007600085815260200190815260200160002060000160009054906101000a900473ffffffffffffffffffffffffffffffffffffffff1673ffffffffffffffffffffffffffffffffffffffff166108fc60076000878152602001908152602001600020600101549081150290604051600060405180830381858888f19350505050158015610844573d6000803e3d6000fd5b505b5b5b6000600860006007600088815260200190815260200160002060000160009054906101000a900473ffffffffffffffffffffffffffffffffffffffff1673ffffffffffffffffffffffffffffffffffffffff1673ffffffffffffffffffffffffffffffffffffffff16815260200190815260200160002060006101000a81548160ff0219169083151502179055507fc13d60fe9dffdb6908d2d446cd18134373a51db0738ee04f296eeb9128121cbc816040518082815260200191505060405180910390a16007600085815260200190815260200160002060000160009054906101000a900473ffffffffffffffffffffffffffffffffffffffff1673ffffffffffffffffffffffffffffffffffffffff167f6938cbf453af775aeb0f0d1c25d85e2b060360487baf9892b54261adcb6b2d318560076000888152602001908152602001600020600101546007600089815260200190815260200160002060020160009054906101000a900460ff166040518084815260200183815260200182151515158152602001935050505060405180910390a2505b505050565b6000803073ffffffffffffffffffffffffffffffffffffffff163190508091505090565b60008060009054906101000a900473ffffffffffffffffffffffffffffffffffffffff1673ffffffffffffffffffffffffffffffffffffffff163373ffffffffffffffffffffffffffffffffffffffff1614610a6457600080fd5b3373ffffffffffffffffffffffffffffffffffffffff166108fc3073ffffffffffffffffffffffffffffffffffffffff16319081150290604051600060405180830381858888f19350505050158015610ac1573d6000803e3d6000fd5b5060003073ffffffffffffffffffffffffffffffffffffffff163114610ae357fe5b3073ffffffffffffffffffffffffffffffffffffffff1631905090565b6000809054906101000a900473ffffffffffffffffffffffffffffffffffffffff1681565b60008060009054906101000a900473ffffffffffffffffffffffffffffffffffffffff1673ffffffffffffffffffffffffffffffffffffffff163373ffffffffffffffffffffffffffffffffffffffff1614610b8057600080fd5b6000341415610b8e57600080fd5b7fff043843182fec3fbcbc695545b7652d340a2cf0919615adb04d98a00e7de8e23334604051808373ffffffffffffffffffffffffffffffffffffffff1673ffffffffffffffffffffffffffffffffffffffff1681526020018281526020019250505060405180910390a134905090565b662386f26fc10000600060023073ffffffffffffffffffffffffffffffffffffffff163181610c2a57fe5b04905080341115610c86576040517f08c379a0000000000000000000000000000000000000000000000000000000008152600401808060200182810382526023815260200180613ddd6023913960400191505060405180910390fd5b81341015610cdf576040517f08c379a000000000000000000000000000000000000000000000000000000000815260040180806020018281038252602a815260200180613e40602a913960400191505060405180910390fd5b60001515600860003373ffffffffffffffffffffffffffffffffffffffff1673ffffffffffffffffffffffffffffffffffffffff16815260200190815260200160002060009054906101000a900460ff16151514610d3c57600080fd5b6001600860003373ffffffffffffffffffffffffffffffffffffffff1673ffffffffffffffffffffffffffffffffffffffff16815260200190815260200160002060006101000a81548160ff0219169083151502179055506000809050600062030d409050610dad8260018361133e565b60068190555060405180606001604052803373ffffffffffffffffffffffffffffffffffffffff1681526020013481526020016000151581525060076000600654815260200190815260200160002060008201518160000160006101000a81548173ffffffffffffffffffffffffffffffffffffffff021916908373ffffffffffffffffffffffffffffffffffffffff1602179055506020820151816001015560408201518160020160006101000a81548160ff0219169083151502179055509050503373ffffffffffffffffffffffffffffffffffffffff167ffc2fe68101fc6915d659df206ef61ccafa88befcd022d6a9b8fadab1f569688460065434604051808381526020018281526020019250505060405180910390a250505050565b60086020528060005260406000206000915054906101000a900460ff1681565b60008073ffffffffffffffffffffffffffffffffffffffff16600260009054906101000a900473ffffffffffffffffffffffffffffffffffffffff1673ffffffffffffffffffffffffffffffffffffffff161480610f7657506000610f74600260009054906101000a900473ffffffffffffffffffffffffffffffffffffffff166118d9565b145b15610f8757610f8560006118e4565b505b600260009054906101000a900473ffffffffffffffffffffffffffffffffffffffff1673ffffffffffffffffffffffffffffffffffffffff166338cc48316040518163ffffffff1660e01b8152600401602060405180830381600087803b158015610ff157600080fd5b505af1158015611005573d6000803e3d6000fd5b505050506040513d602081101561101b57600080fd5b810190808051906020019092919050505073ffffffffffffffffffffffffffffffffffffffff16600160009054906101000a900473ffffffffffffffffffffffffffffffffffffffff1673ffffffffffffffffffffffffffffffffffffffff161461116657600260009054906101000a900473ffffffffffffffffffffffffffffffffffffffff1673ffffffffffffffffffffffffffffffffffffffff166338cc48316040518163ffffffff1660e01b8152600401602060405180830381600087803b1580156110ea57600080fd5b505af11580156110fe573d6000803e3d6000fd5b505050506040513d602081101561111457600080fd5b8101908080519060200190929190505050600160006101000a81548173ffffffffffffffffffffffffffffffffffffffff021916908373ffffffffffffffffffffffffffffffffffffffff1602179055505b600160009054906101000a900473ffffffffffffffffffffffffffffffffffffffff1673ffffffffffffffffffffffffffffffffffffffff1663c281d19e6040518163ffffffff1660e01b815260040160206040518083038186803b1580156111ce57600080fd5b505afa1580156111e2573d6000803e3d6000fd5b505050506040513d60208110156111f857600080fd5b8101908080519060200190929190505050905090565b60007f4c000000000000000000000000000000000000000000000000000000000000008260008151811061123e57fe5b602001015160f81c60f81b7effffffffffffffffffffffffffffffffffffffffffffffffffffffffffffff19161415806112d157507f5000000000000000000000000000000000000000000000000000000000000000826001815181106112a157fe5b602001015160f81c60f81b7effffffffffffffffffffffffffffffffffffffffffffffffffffffffffffff191614155b806112fd5750600160ff16826002815181106112e957fe5b602001015160f81c60f81b60f81c60ff1614155b1561130b5760019050611337565b600061132083868661131b6118f5565b611997565b905080611331576002915050611337565b60009150505b9392505050565b60008083118015611350575060208311155b61135957600080fd5b600a84029350606060016040519080825280601f01601f1916602001820160405280156113955781602001600182028038833980820191505090505b5090508360f81b816000815181106113a957fe5b60200101907effffffffffffffffffffffffffffffffffffffffffffffffffffffffffffff1916908160001a905350606060206040519080825280601f01601f19166020018201604052801561140e5781602001600182028038833980820191505090505b509050606060206040519080825280601f01601f1916602001820160405280156114475781602001600182028038833980820191505090505b5090506000611454612042565b905060208352424118600143034018602084015260208252806020830152606060206040519080825280601f01601f1916602001820160405280156114a85781602001600182028038833980820191505090505b509050886020820152606060086040519080825280601f01601f1916602001820160405280156114e75781602001600182028038833980820191505090505b5090506114fa8260186008846000612362565b50611503613cf6565b604051806080016040528087815260200188815260200186815260200184815250905060006115686040518060400160405280600681526020017f72616e646f6d0000000000000000000000000000000000000000000000000000815250838c6123c1565b9050606060086040519080825280601f01601f1916602001820160405280156115a05781602001600182028038833980820191505090505b50905060208401517f0100000000000000000000000000000000000000000000000000000000000000810460278301537e01000000000000000000000000000000000000000000000000000000000000810460268301537d010000000000000000000000000000000000000000000000000000000000810460258301537c0100000000000000000000000000000000000000000000000000000000810460248301537b01000000000000000000000000000000000000000000000000000000810460238301537a0100000000000000000000000000000000000000000000000000008104602283015379010000000000000000000000000000000000000000000000000081046021830153780100000000000000000000000000000000000000000000000081046020830153506118c68282856001600481106116df57fe5b60200201516002876000600481106116f357fe5b60200201516040518082805190602001908083835b6020831061172b5780518252602082019150602081019050602083039250611708565b6001836020036101000a038019825116818451168082178552505050505050905001915050602060405180830381855afa15801561176d573d6000803e3d6000fd5b5050506040513d602081101561178257600080fd5b8101908080519060200190929190505050876002600481106117a057fe5b60200201516040516020018085805190602001908083835b602083106117db57805182526020820191506020810190506020830392506117b8565b6001836020036101000a03801982511681845116808217855250505050505090500184805190602001908083835b6020831061182c5780518252602082019150602081019050602083039250611809565b6001836020036101000a03801982511681845116808217855250505050505090500183815260200182805190602001908083835b602083106118835780518252602082019150602081019050602083039250611860565b6001836020036101000a03801982511681845116808217855250505050505090500194505050505060405160208183030381529060405280519060200120612730565b8199505050505050505050509392505050565b6000813b9050919050565b60006118ee61274c565b9050919050565b606060038054600181600116156101000203166002900480601f01602080910402602001604051908101604052809291908181526020018280546001816001161561010002031660029004801561198d5780601f106119625761010080835404028352916020019161198d565b820191906000526020600020905b81548152906001019060200180831161197057829003601f168201915b5050505050905090565b60008060206002876045815181106119ab57fe5b602001015160f81c60f81b60f81c60ff1601604401019050606060206040519080825280601f01601f1916602001820160405280156119f95781602001600182028038833980820191505090505b509050611a0b87836020846000612362565b50600284876040516020018083805190602001908083835b60208310611a465780518252602082019150602081019050602083039250611a23565b6001836020036101000a038019825116818451168082178552505050505050905001828152602001925050506040516020818303038152906040526040518082805190602001908083835b60208310611ab45780518252602082019150602081019050602083039250611a91565b6001836020036101000a038019825116818451168082178552505050505050905001915050602060405180830381855afa158015611af6573d6000803e3d6000fd5b5050506040513d6020811015611b0b57600080fd5b81019080805190602001909291905050506040516020018082815260200191505060405160208183030381529060405280519060200120818051906020012014611b5a5760009250505061203a565b60606002886001604986010181518110611b7057fe5b602001015160f81c60f81b60f81c60ff16016040519080825280601f01601f191660200182016040528015611bb45781602001600182028038833980820191505090505b509050611bc988604985018351846000612362565b50611c946002826040518082805190602001908083835b60208310611c035780518252602082019150602081019050602083039250611be0565b6001836020036101000a038019825116818451168082178552505050505050905001915050602060405180830381855afa158015611c45573d6000803e3d6000fd5b5050506040513d6020811015611c5a57600080fd5b8101908080519060200190929190505050878a6008602088010181518110611c7e57fe5b602001015160f81c60f81b60f81c60ff16612ca3565b611ca4576000935050505061203a565b606060296040519080825280601f01601f191660200182016040528015611cda5781602001600182028038833980820191505090505b509050611cef89602086016029846000612362565b506060604080519080825280601f01601f191660200182016040528015611d255781602001600182028038833980820191505090505b5090506000604184516029602089010101019050611d4b8b604083036040856000612362565b5060006002836040518082805190602001908083835b60208310611d845780518252602082019150602081019050602083039250611d61565b6001836020036101000a038019825116818451168082178552505050505050905001915050602060405180830381855afa158015611dc6573d6000803e3d6000fd5b5050506040513d6020811015611ddb57600080fd5b8101908080519060200190929190505050905083816040516020018083805190602001908083835b60208310611e265780518252602082019150602081019050602083039250611e03565b6001836020036101000a0380198251168184511680821785525050505050509050018281526020019250505060405160208183030381529060405280519060200120600460008d8152602001908152602001600020541415611e9e57600460008c815260200190815260200160002060009055611eae565b600097505050505050505061203a565b606060496040519080825280601f01601f191660200182016040528015611ee45781602001600182028038833980820191505090505b509050611ef68d896049846000612362565b50611f9f6002826040518082805190602001908083835b60208310611f305780518252602082019150602081019050602083039250611f0d565b6001836020036101000a038019825116818451168082178552505050505050905001915050602060405180830381855afa158015611f72573d6000803e3d6000fd5b5050506040513d6020811015611f8757600080fd5b81019080805190602001909291905050508786612d53565b611fb45760009850505050505050505061203a565b6005600083815260200190815260200160002060009054906101000a900460ff1661200e57611fe38d84612f11565b6005600084815260200190815260200160002060006101000a81548160ff0219169083151502179055505b6005600083815260200190815260200160002060009054906101000a900460ff16985050505050505050505b949350505050565b60008073ffffffffffffffffffffffffffffffffffffffff16600260009054906101000a900473ffffffffffffffffffffffffffffffffffffffff1673ffffffffffffffffffffffffffffffffffffffff1614806120ca575060006120c8600260009054906101000a900473ffffffffffffffffffffffffffffffffffffffff166118d9565b145b156120db576120d960006118e4565b505b600260009054906101000a900473ffffffffffffffffffffffffffffffffffffffff1673ffffffffffffffffffffffffffffffffffffffff166338cc48316040518163ffffffff1660e01b8152600401602060405180830381600087803b15801561214557600080fd5b505af1158015612159573d6000803e3d6000fd5b505050506040513d602081101561216f57600080fd5b810190808051906020019092919050505073ffffffffffffffffffffffffffffffffffffffff16600160009054906101000a900473ffffffffffffffffffffffffffffffffffffffff1673ffffffffffffffffffffffffffffffffffffffff16146122ba57600260009054906101000a900473ffffffffffffffffffffffffffffffffffffffff1673ffffffffffffffffffffffffffffffffffffffff166338cc48316040518163ffffffff1660e01b8152600401602060405180830381600087803b15801561223e57600080fd5b505af1158015612252573d6000803e3d6000fd5b505050506040513d602081101561226857600080fd5b8101908080519060200190929190505050600160006101000a81548173ffffffffffffffffffffffffffffffffffffffff021916908373ffffffffffffffffffffffffffffffffffffffff1602179055505b600160009054906101000a900473ffffffffffffffffffffffffffffffffffffffff1673ffffffffffffffffffffffffffffffffffffffff1663abaa5f3e6040518163ffffffff1660e01b815260040160206040518083038186803b15801561232257600080fd5b505afa158015612336573d6000803e3d6000fd5b505050506040513d602081101561234c57600080fd5b8101908080519060200190929190505050905090565b606060008285019050808451101561237957600080fd5b600086602001905060008460200190505b8688602001018210156123b2578189015180828801525060208201915060208101905061238a565b85935050505095945050505050565b60008073ffffffffffffffffffffffffffffffffffffffff16600260009054906101000a900473ffffffffffffffffffffffffffffffffffffffff1673ffffffffffffffffffffffffffffffffffffffff16148061244957506000612447600260009054906101000a900473ffffffffffffffffffffffffffffffffffffffff166118d9565b145b1561245a5761245860006118e4565b505b600260009054906101000a900473ffffffffffffffffffffffffffffffffffffffff1673ffffffffffffffffffffffffffffffffffffffff166338cc48316040518163ffffffff1660e01b8152600401602060405180830381600087803b1580156124c457600080fd5b505af11580156124d8573d6000803e3d6000fd5b505050506040513d60208110156124ee57600080fd5b810190808051906020019092919050505073ffffffffffffffffffffffffffffffffffffffff16600160009054906101000a900473ffffffffffffffffffffffffffffffffffffffff1673ffffffffffffffffffffffffffffffffffffffff161461263957600260009054906101000a900473ffffffffffffffffffffffffffffffffffffffff1673ffffffffffffffffffffffffffffffffffffffff166338cc48316040518163ffffffff1660e01b8152600401602060405180830381600087803b1580156125bd57600080fd5b505af11580156125d1573d6000803e3d6000fd5b505050506040513d60208110156125e757600080fd5b8101908080519060200190929190505050600160006101000a81548173ffffffffffffffffffffffffffffffffffffffff021916908373ffffffffffffffffffffffffffffffffffffffff1602179055505b6060600460405190808252806020026020018201604052801561267057816020015b606081526020019060019003908161265b5790505b5090508360006004811061268057fe5b60200201518160008151811061269257fe5b6020026020010181905250836001600481106126aa57fe5b6020020151816001815181106126bc57fe5b6020026020010181905250836002600481106126d457fe5b6020020151816002815181106126e657fe5b6020026020010181905250836003600481106126fe57fe5b60200201518160038151811061271057fe5b6020026020010181905250612726858285613329565b9150509392505050565b8060046000848152602001908152602001600020819055505050565b60008061276c731d3b2638a7cc9f2cb3d298a3da7a90b67e5506ed6118d9565b111561280e57731d3b2638a7cc9f2cb3d298a3da7a90b67e5506ed600260006101000a81548173ffffffffffffffffffffffffffffffffffffffff021916908373ffffffffffffffffffffffffffffffffffffffff1602179055506128056040518060400160405280600b81526020017f6574685f6d61696e6e657400000000000000000000000000000000000000000081525061388f565b60019050612ca0565b600061282d73c03a2615d5efaf5f49f60b7bb6583eaec212fdf16118d9565b11156128cf5773c03a2615d5efaf5f49f60b7bb6583eaec212fdf1600260006101000a81548173ffffffffffffffffffffffffffffffffffffffff021916908373ffffffffffffffffffffffffffffffffffffffff1602179055506128c66040518060400160405280600c81526020017f6574685f726f707374656e33000000000000000000000000000000000000000081525061388f565b60019050612ca0565b60006128ee73b7a07bcf2ba2f2703b24c0691b5278999c59ac7e6118d9565b11156129905773b7a07bcf2ba2f2703b24c0691b5278999c59ac7e600260006101000a81548173ffffffffffffffffffffffffffffffffffffffff021916908373ffffffffffffffffffffffffffffffffffffffff1602179055506129876040518060400160405280600981526020017f6574685f6b6f76616e000000000000000000000000000000000000000000000081525061388f565b60019050612ca0565b60006129af73146500cfd35b22e4a392fe0adc06de1a1368ed486118d9565b1115612a515773146500cfd35b22e4a392fe0adc06de1a1368ed48600260006101000a81548173ffffffffffffffffffffffffffffffffffffffff021916908373ffffffffffffffffffffffffffffffffffffffff160217905550612a486040518060400160405280600b81526020017f6574685f72696e6b65627900000000000000000000000000000000000000000081525061388f565b60019050612ca0565b6000612a7073a2998efd205fb9d4b4963afb70778d6354ad3a416118d9565b1115612b125773a2998efd205fb9d4b4963afb70778d6354ad3a41600260006101000a81548173ffffffffffffffffffffffffffffffffffffffff021916908373ffffffffffffffffffffffffffffffffffffffff160217905550612b096040518060400160405280600a81526020017f6574685f676f65726c690000000000000000000000000000000000000000000081525061388f565b60019050612ca0565b6000612b31736f485c8bf6fc43ea212e93bbf8ce046c7f1cb4756118d9565b1115612b9557736f485c8bf6fc43ea212e93bbf8ce046c7f1cb475600260006101000a81548173ffffffffffffffffffffffffffffffffffffffff021916908373ffffffffffffffffffffffffffffffffffffffff16021790555060019050612ca0565b6000612bb47320e12a1f859b3feae5fb2a0a32c18f5a65555bbf6118d9565b1115612c18577320e12a1f859b3feae5fb2a0a32c18f5a65555bbf600260006101000a81548173ffffffffffffffffffffffffffffffffffffffff021916908373ffffffffffffffffffffffffffffffffffffffff16021790555060019050612ca0565b6000612c377351efaf4c8b3c9afbd5ab9f4bbc82784ab6ef8faa6118d9565b1115612c9b577351efaf4c8b3c9afbd5ab9f4bbc82784ab6ef8faa600260006101000a81548173ffffffffffffffffffffffffffffffffffffffff021916908373ffffffffffffffffffffffffffffffffffffffff16021790555060019050612ca0565b600090505b90565b6000806001905082845114612cb757600080fd5b60008090505b83811015612d4757848181518110612cd157fe5b602001015160f81c60f81b7effffffffffffffffffffffffffffffffffffffffffffffffffffffffffffff1916868260208110612d0a57fe5b1a60f81b7effffffffffffffffffffffffffffffffffffffffffffffffffffffffffffff191614612d3a57600091505b8080600101915050612cbd565b50809150509392505050565b6000806000806000606060206040519080825280601f01601f191660200182016040528015612d915781602001600182028038833980820191505090505b5090506000602089600381518110612da557fe5b602001015160f81c60f81b60f81c60ff16036004019050612dcb89826020856000612362565b9150606060206040519080825280601f01601f191660200182016040528015612e035781602001600182028038833980820191505090505b509050602282019150612e3f8a60208c6001860381518110612e2157fe5b602001015160f81c60f81b60f81c60ff160384016020846000612362565b90506020830151945060208101519350612e5c8b601b87876138a9565b80975081985050508573ffffffffffffffffffffffffffffffffffffffff16898051906020012060001c73ffffffffffffffffffffffffffffffffffffffff161415612eb2576001975050505050505050612f0a565b612ebf8b601c87876138a9565b80975081985050508573ffffffffffffffffffffffffffffffffffffffff16898051906020012060001c73ffffffffffffffffffffffffffffffffffffffff16149750505050505050505b9392505050565b60008060606002856001860181518110612f2757fe5b602001015160f81c60f81b60f81c60ff16016040519080825280601f01601f191660200182016040528015612f6b5781602001600182028038833980820191505090505b509050612f7d85858351846000612362565b506060604080519080825280601f01601f191660200182016040528015612fb35781602001600182028038833980820191505090505b509050612fc68660046040846000612362565b50606060626040519080825280601f01601f191660200182016040528015612ffd5781602001600182028038833980820191505090505b509050600160f81b8160008151811061301257fe5b60200101907effffffffffffffffffffffffffffffffffffffffffffffffffffffffffffff1916908160001a90535061305387604188036041846001612362565b5060606040518060400160405280602081526020017ffd94fa71bc0ba10d39d464d0d8f465efeef0a2764e3887fcc9df41ded20f505c815250905061309e8160006020856042612362565b506131476002836040518082805190602001908083835b602083106130d857805182526020820191506020810190506020830392506130b5565b6001836020036101000a038019825116818451168082178552505050505050905001915050602060405180830381855afa15801561311a573d6000803e3d6000fd5b5050506040513d602081101561312f57600080fd5b81019080805190602001909291905050508585612d53565b94508461315c57600095505050505050613323565b6060604051806060016040528060408152602001613e00604091399050606060426040519080825280601f01601f1916602001820160405280156131af5781602001600182028038833980820191505090505b50905060fe60f81b816000815181106131c457fe5b60200101907effffffffffffffffffffffffffffffffffffffffffffffffffffffffffffff1916908160001a9053506132038a60036041846001612362565b50606060028b60458151811061321557fe5b602001015160f81c60f81b60f81c60ff16016040519080825280601f01601f1916602001820160405280156132595781602001600182028038833980820191505090505b50905061326c8b60448351846000612362565b506133156002836040518082805190602001908083835b602083106132a65780518252602082019150602081019050602083039250613283565b6001836020036101000a038019825116818451168082178552505050505050905001915050602060405180830381855afa1580156132e8573d6000803e3d6000fd5b5050506040513d60208110156132fd57600080fd5b81019080805190602001909291905050508285612d53565b975087985050505050505050505b92915050565b60008073ffffffffffffffffffffffffffffffffffffffff16600260009054906101000a900473ffffffffffffffffffffffffffffffffffffffff1673ffffffffffffffffffffffffffffffffffffffff1614806133b1575060006133af600260009054906101000a900473ffffffffffffffffffffffffffffffffffffffff166118d9565b145b156133c2576133c060006118e4565b505b600260009054906101000a900473ffffffffffffffffffffffffffffffffffffffff1673ffffffffffffffffffffffffffffffffffffffff166338cc48316040518163ffffffff1660e01b8152600401602060405180830381600087803b15801561342c57600080fd5b505af1158015613440573d6000803e3d6000fd5b505050506040513d602081101561345657600080fd5b810190808051906020019092919050505073ffffffffffffffffffffffffffffffffffffffff16600160009054906101000a900473ffffffffffffffffffffffffffffffffffffffff1673ffffffffffffffffffffffffffffffffffffffff16146135a157600260009054906101000a900473ffffffffffffffffffffffffffffffffffffffff1673ffffffffffffffffffffffffffffffffffffffff166338cc48316040518163ffffffff1660e01b8152600401602060405180830381600087803b15801561352557600080fd5b505af1158015613539573d6000803e3d6000fd5b505050506040513d602081101561354f57600080fd5b8101908080519060200190929190505050600160006101000a81548173ffffffffffffffffffffffffffffffffffffffff021916908373ffffffffffffffffffffffffffffffffffffffff1602179055505b6000600160009054906101000a900473ffffffffffffffffffffffffffffffffffffffff1673ffffffffffffffffffffffffffffffffffffffff16632ef3accc86856040518363ffffffff1660e01b81526004018080602001838152602001828103825284818151815260200191508051906020019080838360005b8381101561363857808201518184015260208101905061361d565b50505050905090810190601f1680156136655780820380516001836020036101000a031916815260200191505b509350505050602060405180830381600087803b15801561368557600080fd5b505af1158015613699573d6000803e3d6000fd5b505050506040513d60208110156136af57600080fd5b81019080805190602001909291905050509050823a02670de0b6b3a7640000018111156136e2576000801b915050613888565b60606136ed856138ed565b9050600160009054906101000a900473ffffffffffffffffffffffffffffffffffffffff1673ffffffffffffffffffffffffffffffffffffffff1663c55c1cb68360008985896040518663ffffffff1660e01b8152600401808581526020018060200180602001848152602001838103835286818151815260200191508051906020019080838360005b83811015613792578082015181840152602081019050613777565b50505050905090810190601f1680156137bf5780820380516001836020036101000a031916815260200191505b50838103825285818151815260200191508051906020019080838360005b838110156137f85780820151818401526020810190506137dd565b50505050905090810190601f1680156138255780820380516001836020036101000a031916815260200191505b5096505050505050506020604051808303818588803b15801561384757600080fd5b505af115801561385b573d6000803e3d6000fd5b50505050506040513d602081101561387257600080fd5b8101908080519060200190929190505050925050505b9392505050565b80600390805190602001906138a5929190613d1d565b5050565b60008060008060405188815287602082015286604082015285606082015260208160808360006001610bb8f192508051915050818193509350505094509492505050565b60606138f761396d565b6138ff613d9d565b61390b81610400613979565b613914816139c3565b60008090505b83518110156139565761394984828151811061393257fe5b6020026020010151836139d190919063ffffffff16565b808060010191505061391a565b50613960816139f6565b8060000151915050919050565b60405180590338823950565b600081905060006020828161398a57fe5b06146139a3576020818161399a57fe5b06602003810190505b808360200181815250506040518084526000815281810160405250505050565b6139ce816004613a04565b50565b6139de8260028351613a25565b6139f18183613b6590919063ffffffff16565b505050565b613a01816007613a04565b50565b613a21601f60058360ff16901b1783613c1090919063ffffffff16565b5050565b60178111613a5157613a4c8160058460ff16901b60ff161784613c1090919063ffffffff16565b613b60565b60ff8111613a9257613a76601860058460ff16901b1784613c1090919063ffffffff16565b613a8c81600185613c509092919063ffffffff16565b50613b5f565b61ffff8111613ad457613ab8601960058460ff16901b1784613c1090919063ffffffff16565b613ace81600285613c509092919063ffffffff16565b50613b5e565b63ffffffff8111613b1857613afc601a60058460ff16901b1784613c1090919063ffffffff16565b613b1281600485613c509092919063ffffffff16565b50613b5d565b67ffffffffffffffff8111613b5c57613b44601b60058460ff16901b1784613c1090919063ffffffff16565b613b5a81600885613c509092919063ffffffff16565b505b5b5b5b5b505050565b613b6d613d9d565b82602001518360000151518351011115613b9d57613b9c836002613b9686602001518651613cb7565b02613cd3565b5b60008060008451905085518051602081830101945086518101825260208701935050505b60208110613be45781518352602083019250602082019150602081039050613bc1565b60006001826020036101000a039050801983511681855116818117865250508694505050505092915050565b81602001516001836000015151011115613c3657613c35826002846020015102613cd3565b5b815180516020818301018381536001820183525050505050565b613c58613d9d565b836020015184600001515183011115613c8657613c85846002613c7f876020015186613cb7565b02613cd3565b5b60006001836101000a0390508451805184818301018684198251161781528582018352505050849150509392505050565b600081831115613cc957829050613ccd565b8190505b92915050565b606082600001519050613ce68383613979565b613cf08382613b65565b50505050565b60405180608001604052806004905b6060815260200190600190039081613d055790505090565b828054600181600116156101000203166002900490600052602060002090601f016020900481019282601f10613d5e57805160ff1916838001178555613d8c565b82800160010185558215613d8c579182015b82811115613d8b578251825591602001919060010190613d70565b5b509050613d999190613db7565b5090565b604051806040016040528060608152602001600081525090565b613dd991905b80821115613dd5576000816000905550600101613dbd565b5090565b9056fe4a61636b706f7420697320746865206d61782062657420796f752063616e206d616b657fb956469c5c9b89840d55b43537e66a98dd4811ea0a27224272c2e5622911e8537a2f8e86a46baec82864e98dd01e9ccc2f8bc5dfc9cbe5a91a290498dd96e4546865206d696e696d756d2062657420796f752063616e206d616b6520697320302e3031204574686572a265627a7a723158203b345873a95798564f393ee97b8b42763a218757d7d0134bc8fd18567ef9da7b64736f6c634300050c0032",
  "source": "import\"./Ownable.sol\";\nimport\"./provableAPI.sol\";\n\npragma solidity 0.5.12;\n\ncontract RaffleContract is Ownable, usingProvable {\n    //* Variable Declaration */\n    uint256 constant NUM_RANDOM_BYTES_REQUESTED = 1;\n    bytes32 queryId;\n    struct Bet {\n        address payable player;\n        uint value;\n        bool result;\n        // uint timePlaced;                                 \n    }\n    //* Events */\n    event betTaken(address indexed player, bytes32 Id, uint value, bool result);\n    event betPlaced(address indexed player,bytes32 queryId, uint value);\n    event contractFunded(address contractOwner, uint funding);\n    event LogNewProvableQuery(string description);\n    event generatedRandomNumber(uint256 randomNumber);\n    //* Mappings */\n    mapping (bytes32 => Bet) public betting;            \n    mapping (address => bool) public waiting;  \n    // mapping (address => uint256) public raffleParticipants;\n    // uint256 numOfParticipants;\n\n    // function setNumOfParticipants(uint256 _numOfParticipants) public {\n    //     require(_numOfParticipants > 0 && _numOfParticipants < 256);\n    //     numOfParticipants = _numOfParticipants;\n    // }\n\n    //* Constructor */\n    constructor() public  {\n        provable_setProof(proofType_Ledger);\n        //flip();\n    }\n\n    //initialize participants into mapping\n    // function initializeParticipants(address payable participant, numOfParticipants) internal {\n    //     for(uint256 i = 0; i < numOfParticipants; i++){\n    //         raffleParticipants[i] = participant[i];\n    //     }\n    // }\n\n    //* Modifiers */\n    modifier costs(uint cost){\n        uint jackpot = address(this).balance / 2;\n        require(msg.value <= jackpot, \"Jackpot is the max bet you can make\");   \n        require(msg.value >= cost, \"The minimum bet you can make is 0.01 Ether\");\n        _;\n    }\n    //* Functions - Setter */\n    //Oracle Callback Function of the flip() function\n    function __callback(bytes32 _queryId, string memory _result, bytes memory _proof) public {\n        require(msg.sender == provable_cbAddress());\n\n        if (provable_randomDS_proofVerify__returnCode(_queryId, _result, _proof) != 0) {\n            /*\n             * @notice  The proof verification has failed! Handle this case\n             *          however you see fit. --> Not sure what to do here.\n            */\n        }\n        else {\n        //Final result of random number creation (0-255 % 2 == 0 || 1)\n        uint256 randomNumber = 255;\n        randomNumber = uint256(keccak256(abi.encodePacked(_result))) % 2; //change to % numberOfParticipants\n        //Condition decision: false == lose || true == win\n        if(randomNumber == 0){\n            betting[_queryId].result = false;\n        }\n        else if(randomNumber == 1){\n            betting[_queryId].result = true;\n            betting[_queryId].player.transfer((betting[_queryId].value)*2);\n        }\n        else if(randomNumber == 255) {\n            // betting[_queryId].value = 0;\n            waiting[betting[_queryId].player] = false;\n            betting[_queryId].player.transfer((betting[_queryId].value));\n        }\n                                            //!!!!Write functionality to send prize to participant with number corresponding to randomNumber;!!!!\n        //Player address is not on waiting any more and can play again\n        waiting[betting[_queryId].player] = false;\n        //Emit event to Blockchain log (PlayerAddress, BetId, BetAmount, Result)\n        emit generatedRandomNumber(randomNumber);\n        emit betTaken(betting[_queryId].player, _queryId, betting[_queryId].value, betting[_queryId].result);\n       }\n    }\n    //Placing a bet and simulate coin flip \n    function flip() public payable costs(0.01 ether){\n        //Condition that player has no ongoing bet transaction\n        require(waiting[msg.sender] == false);\n        //Player address gets into waiting mode => Player is not able to place an other bet in this time\n        waiting[msg.sender] = true;\n\n        uint256 QUERY_EXECUTION_DELAY = 0;      //config: execution delay (0 for no delay)\n        uint256 GAS_FOR_CALLBACK = 200000;      //config: gas fee for calling __callback function (200000 is standard)\n        //Calling oracle to make random number request\n        queryId = provable_newRandomDSQuery(QUERY_EXECUTION_DELAY, NUM_RANDOM_BYTES_REQUESTED, GAS_FOR_CALLBACK);     //function to query a random number, it will call the __callback function\n        \n        // uint queryTime = now;\n\n        //Initialize new Bet with player values and bind it to oracle queryId\n        betting[queryId] = Bet({player: msg.sender, value: msg.value, result: false});\n        //Emit Bet values as an event to Blockchain log \n        emit betPlaced(msg.sender, queryId, msg.value);\n        //emit LogNewProvableQuery(\"Provable query was sent, standing by for answer...\");\n    }\n    //Withdraw Funds - get Ether from contract\n    function withdrawAll() public onlyOwner returns(uint){\n        //Should require that no bet is prozess! Should wait and disalow all new bets!\n        msg.sender.transfer(address(this).balance);\n        assert(address(this).balance == 0);\n        return address(this).balance;\n    }\n    //Fund the Contract - put Ether into contract\n    function fundContract() public payable onlyOwner returns(uint){\n        require(msg.value != 0);\n        emit contractFunded(msg.sender, msg.value);\n        return msg.value;\n    }\n    //* Functions - Getter */\n    //Get balance of contract address\n    function getContractBalance() public view returns (uint) {\n        uint contractBalance = address(this).balance;\n        return contractBalance;\n    }\n\n}",
  "sourcePath": "/Users/adrianlawson/Documents/IoT/Ethereum-Course-Advanced/CoinFlipDapp_Phase2/contracts/RaffleContract.sol",
  "compiler": {
    "name": "solc",
    "version": "0.5.12+commit.7709ece9.Emscripten.clang"
  },
  "schemaVersion": "3.3.3",
  "updatedAt": "2021-03-10T17:32:34.507Z",
  "devdoc": {
    "methods": {
      "__callback(bytes32,string)": {
        "details": "The following `__callback` functions are just placeholders ideally     meant to be defined in child contract when proofs are used.     The function bodies simply silence compiler warnings."
      }
    }
  },
  "userdoc": {
    "methods": {}
  }
}