{
  "contractName": "Random",
  "abi": [
    {
      "anonymous": false,
      "inputs": [
        {
          "indexed": false,
          "internalType": "address",
          "name": "owner",
          "type": "address"
        },
        {
          "indexed": false,
          "internalType": "uint256",
          "name": "funding",
          "type": "uint256"
        }
      ],
      "name": "funded",
      "type": "event"
    },
    {
      "anonymous": false,
      "inputs": [
        {
          "indexed": false,
          "internalType": "address",
          "name": "user",
          "type": "address"
        },
        {
          "indexed": false,
          "internalType": "uint256",
          "name": "amount",
          "type": "uint256"
        },
        {
          "indexed": false,
          "internalType": "bool",
          "name": "",
          "type": "bool"
        }
      ],
      "name": "wager",
      "type": "event"
    },
    {
      "constant": true,
      "inputs": [],
      "name": "balance",
      "outputs": [
        {
          "internalType": "uint256",
          "name": "",
          "type": "uint256"
        }
      ],
      "payable": false,
      "stateMutability": "view",
      "type": "function"
    },
    {
      "constant": true,
      "inputs": [],
      "name": "owner",
      "outputs": [
        {
          "internalType": "address",
          "name": "",
          "type": "address"
        }
      ],
      "payable": false,
      "stateMutability": "view",
      "type": "function"
    },
    {
      "constant": true,
      "inputs": [],
      "name": "winnings",
      "outputs": [
        {
          "internalType": "uint256",
          "name": "",
          "type": "uint256"
        }
      ],
      "payable": false,
      "stateMutability": "view",
      "type": "function"
    },
    {
      "constant": false,
      "inputs": [],
      "name": "fundContract",
      "outputs": [
        {
          "internalType": "uint256",
          "name": "",
          "type": "uint256"
        }
      ],
      "payable": true,
      "stateMutability": "payable",
      "type": "function"
    },
    {
      "constant": false,
      "inputs": [],
      "name": "placeBet",
      "outputs": [
        {
          "internalType": "bool",
          "name": "",
          "type": "bool"
        }
      ],
      "payable": true,
      "stateMutability": "payable",
      "type": "function"
    },
    {
      "constant": false,
      "inputs": [],
      "name": "getBalance",
      "outputs": [
        {
          "internalType": "uint256",
          "name": "",
          "type": "uint256"
        }
      ],
      "payable": false,
      "stateMutability": "nonpayable",
      "type": "function"
    },
    {
      "constant": false,
      "inputs": [],
      "name": "withdrawBalance",
      "outputs": [
        {
          "internalType": "uint256",
          "name": "",
          "type": "uint256"
        }
      ],
      "payable": false,
      "stateMutability": "nonpayable",
      "type": "function"
    },
    {
      "constant": false,
      "inputs": [],
      "name": "seeWinnings",
      "outputs": [
        {
          "internalType": "uint256",
          "name": "",
          "type": "uint256"
        }
      ],
      "payable": false,
      "stateMutability": "nonpayable",
      "type": "function"
    }
  ],
  "bytecode": "0x60806040523073ffffffffffffffffffffffffffffffffffffffff16316001556000600255336000806101000a81548173ffffffffffffffffffffffffffffffffffffffff021916908373ffffffffffffffffffffffffffffffffffffffff16021790555061066b806100736000396000f3fe60806040526004361061007b5760003560e01c8063b69ef8a81161004e578063b69ef8a814610158578063bd097e2114610183578063d134474c146101a1578063f90f4560146101cc5761007b565b806312065fe0146100805780633110cce8146100ab5780635fd8c710146100d65780638da5cb5b14610101575b600080fd5b34801561008c57600080fd5b506100956101ee565b6040518082815260200191505060405180910390f35b3480156100b757600080fd5b506100c061020d565b6040518082815260200191505060405180910390f35b3480156100e257600080fd5b506100eb610217565b6040518082815260200191505060405180910390f35b34801561010d57600080fd5b5061011661030e565b604051808273ffffffffffffffffffffffffffffffffffffffff1673ffffffffffffffffffffffffffffffffffffffff16815260200191505060405180910390f35b34801561016457600080fd5b5061016d610333565b6040518082815260200191505060405180910390f35b61018b610339565b6040518082815260200191505060405180910390f35b3480156101ad57600080fd5b506101b66103df565b6040518082815260200191505060405180910390f35b6101d46103e5565b604051808215151515815260200191505060405180910390f35b60003073ffffffffffffffffffffffffffffffffffffffff1631905090565b6000600254905090565b60008060009054906101000a900473ffffffffffffffffffffffffffffffffffffffff1673ffffffffffffffffffffffffffffffffffffffff163373ffffffffffffffffffffffffffffffffffffffff161461027257600080fd5b3373ffffffffffffffffffffffffffffffffffffffff166108fc3073ffffffffffffffffffffffffffffffffffffffff16319081150290604051600060405180830381858888f193505050501580156102cf573d6000803e3d6000fd5b5060003073ffffffffffffffffffffffffffffffffffffffff1631146102f157fe5b3073ffffffffffffffffffffffffffffffffffffffff1631905090565b6000809054906101000a900473ffffffffffffffffffffffffffffffffffffffff1681565b60015481565b60006509184e72a0008034101561034f57600080fd5b600034141561035d57600080fd5b7fed7d0ddcc17abdb3935a0a23cd93e91b449dfeac7fd0def9f481ed5b37e18c4d3334604051808373ffffffffffffffffffffffffffffffffffffffff1673ffffffffffffffffffffffffffffffffffffffff1681526020018281526020019250505060405180910390a1346001600082825401925050819055503491505090565b60025481565b600066038d7ea4c68000803410156103fc57600080fd5b600234026001541015610477576040517f08c379a00000000000000000000000000000000000000000000000000000000081526004018080602001828103825260208152602001807f4e6f7420656e6f7567682066756e647320696e2074686520636f6e747261637481525060200191505060405180910390fd5b6000806002428161048457fe5b06141561049457600190506104ad565b6001600242816104a057fe5b0614156104ac57600090505b5b7f8a6b033d5b9144edef3c427fcd3bcf4bc09fee84dc559360150584622594a63b333483604051808473ffffffffffffffffffffffffffffffffffffffff1673ffffffffffffffffffffffffffffffffffffffff16815260200183815260200182151515158152602001935050505060405180910390a16001151581151514156105a6573373ffffffffffffffffffffffffffffffffffffffff166108fc600234029081150290604051600060405180830381858888f1935050505015801561057a573d6000803e3d6000fd5b5060023402600260008282540192505081905550600234026001600082825403925050819055506105b7565b346001600082825401925050819055505b7f8a6b033d5b9144edef3c427fcd3bcf4bc09fee84dc559360150584622594a63b333483604051808473ffffffffffffffffffffffffffffffffffffffff1673ffffffffffffffffffffffffffffffffffffffff16815260200183815260200182151515158152602001935050505060405180910390a180925050509056fea265627a7a72315820e9ad3733bbf27c1aeb39e6b85d75f7aa906694fe49197050db0183ae1002fb3664736f6c634300050c0032",
  "source": "pragma solidity 0.5.12;\nimport \"./Ownable.sol\";\ncontract Random is Ownable{\n\n    uint public balance = address(this).balance;\n    uint public winnings = 0;\n\n    event wager(address user, uint amount, bool);\n    event funded(address owner, uint funding);\n\n    modifier costs(uint cost){\n        require(msg.value >= cost);\n        _;\n    }\n\n    function fundContract() public payable costs(0.00001 ether) returns(uint) {\n        require(msg.value != 0);\n        \n        emit funded(msg.sender, msg.value);\n        balance += msg.value;\n        return msg.value;\n    }\n    \n    function placeBet() public payable costs(0.001 ether) returns (bool){\n        require(balance >= msg.value * 2, \"Not enough funds in the contract\");\n        \n        bool result;\n\n        if((block.timestamp % 2) == 0) {\n            result = true;\n        }else if(block.timestamp % 2 == 1) {\n            result = false;\n        }\n        emit wager(msg.sender, msg.value, result);\n        if(result == true){\n            msg.sender.transfer(msg.value * 2);\n            winnings += msg.value * 2;\n            balance -= msg.value * 2;\n        }else {\n            balance += msg.value;\n        }\n        emit wager(msg.sender, msg.value, result);\n        return result;\n    }\n\n    function getBalance() public returns (uint) {\n        return address(this).balance;\n    }\n\n\n    function withdrawBalance() public onlyOwner returns (uint) {\n        msg.sender.transfer(address(this).balance);\n        assert(address(this).balance == 0);\n        return address(this).balance;\n    }\n\n    function seeWinnings() public returns (uint) {\n        return winnings;\n    }\n}\n",
  "sourcePath": "/Users/adrianlawson/Documents/IoT/Ethereum-Course-Advanced/sudo-random-dapp/contracts/Random.sol",
  "compiler": {
    "name": "solc",
    "version": "0.5.12+commit.7709ece9.Emscripten.clang"
  },
  "schemaVersion": "3.3.3",
  "updatedAt": "2021-02-12T18:05:53.924Z",
  "devdoc": {
    "methods": {}
  },
  "userdoc": {
    "methods": {}
  }
}