{
  "contractName": "RandomPT",
  "abi": [
    {
      "inputs": [],
      "payable": false,
      "stateMutability": "nonpayable",
      "type": "constructor"
    },
    {
      "anonymous": false,
      "inputs": [
        {
          "indexed": false,
          "internalType": "string",
          "name": "description",
          "type": "string"
        }
      ],
      "name": "LogNewProvableQuery",
      "type": "event"
    },
    {
      "anonymous": false,
      "inputs": [
        {
          "indexed": true,
          "internalType": "address",
          "name": "player",
          "type": "address"
        },
        {
          "indexed": false,
          "internalType": "bytes32",
          "name": "queryId",
          "type": "bytes32"
        },
        {
          "indexed": false,
          "internalType": "uint256",
          "name": "value",
          "type": "uint256"
        }
      ],
      "name": "betPlaced",
      "type": "event"
    },
    {
      "anonymous": false,
      "inputs": [
        {
          "indexed": true,
          "internalType": "address",
          "name": "player",
          "type": "address"
        },
        {
          "indexed": false,
          "internalType": "bytes32",
          "name": "Id",
          "type": "bytes32"
        },
        {
          "indexed": false,
          "internalType": "uint256",
          "name": "value",
          "type": "uint256"
        },
        {
          "indexed": false,
          "internalType": "bool",
          "name": "result",
          "type": "bool"
        }
      ],
      "name": "betTaken",
      "type": "event"
    },
    {
      "anonymous": false,
      "inputs": [
        {
          "indexed": false,
          "internalType": "address",
          "name": "contractOwner",
          "type": "address"
        },
        {
          "indexed": false,
          "internalType": "uint256",
          "name": "funding",
          "type": "uint256"
        }
      ],
      "name": "contractFunded",
      "type": "event"
    },
    {
      "anonymous": false,
      "inputs": [
        {
          "indexed": false,
          "internalType": "uint256",
          "name": "randomNumber",
          "type": "uint256"
        }
      ],
      "name": "generatedRandomNumber",
      "type": "event"
    },
    {
      "constant": true,
      "inputs": [
        {
          "internalType": "bytes32",
          "name": "",
          "type": "bytes32"
        }
      ],
      "name": "betting",
      "outputs": [
        {
          "internalType": "address payable",
          "name": "player",
          "type": "address"
        },
        {
          "internalType": "uint256",
          "name": "value",
          "type": "uint256"
        },
        {
          "internalType": "bool",
          "name": "result",
          "type": "bool"
        }
      ],
      "payable": false,
      "stateMutability": "view",
      "type": "function"
    },
    {
      "constant": true,
      "inputs": [],
      "name": "owner",
      "outputs": [
        {
          "internalType": "address",
          "name": "",
          "type": "address"
        }
      ],
      "payable": false,
      "stateMutability": "view",
      "type": "function"
    },
    {
      "constant": true,
      "inputs": [
        {
          "internalType": "address",
          "name": "",
          "type": "address"
        }
      ],
      "name": "waiting",
      "outputs": [
        {
          "internalType": "bool",
          "name": "",
          "type": "bool"
        }
      ],
      "payable": false,
      "stateMutability": "view",
      "type": "function"
    },
    {
      "constant": false,
      "inputs": [
        {
          "internalType": "bytes32",
          "name": "_myid",
          "type": "bytes32"
        },
        {
          "internalType": "string",
          "name": "_result",
          "type": "string"
        }
      ],
      "name": "__callback",
      "outputs": [],
      "payable": false,
      "stateMutability": "nonpayable",
      "type": "function"
    },
    {
      "constant": false,
      "inputs": [
        {
          "internalType": "bytes32",
          "name": "_queryId",
          "type": "bytes32"
        },
        {
          "internalType": "string",
          "name": "_result",
          "type": "string"
        },
        {
          "internalType": "bytes",
          "name": "_proof",
          "type": "bytes"
        }
      ],
      "name": "__callback",
      "outputs": [],
      "payable": false,
      "stateMutability": "nonpayable",
      "type": "function"
    },
    {
      "constant": false,
      "inputs": [],
      "name": "flip",
      "outputs": [],
      "payable": true,
      "stateMutability": "payable",
      "type": "function"
    },
    {
      "constant": false,
      "inputs": [],
      "name": "withdrawAll",
      "outputs": [
        {
          "internalType": "uint256",
          "name": "",
          "type": "uint256"
        }
      ],
      "payable": false,
      "stateMutability": "nonpayable",
      "type": "function"
    },
    {
      "constant": false,
      "inputs": [],
      "name": "fundContract",
      "outputs": [
        {
          "internalType": "uint256",
          "name": "",
          "type": "uint256"
        }
      ],
      "payable": true,
      "stateMutability": "payable",
      "type": "function"
    },
    {
      "constant": true,
      "inputs": [],
      "name": "getContractBalance",
      "outputs": [
        {
          "internalType": "uint256",
          "name": "",
          "type": "uint256"
        }
      ],
      "payable": false,
      "stateMutability": "view",
      "type": "function"
    }
  ],
  "bytecode": "0x60806040523480156200001157600080fd5b50336000806101000a81548173ffffffffffffffffffffffffffffffffffffffff021916908373ffffffffffffffffffffffffffffffffffffffff16021790555062000067603060f81b6200006d60201b60201c565b62000a91565b600073ffffffffffffffffffffffffffffffffffffffff16600260009054906101000a900473ffffffffffffffffffffffffffffffffffffffff1673ffffffffffffffffffffffffffffffffffffffff161480620000fd57506000620000fb600260009054906101000a900473ffffffffffffffffffffffffffffffffffffffff16620003d360201b60201c565b145b156200011757620001156000620003de60201b60201c565b505b600260009054906101000a900473ffffffffffffffffffffffffffffffffffffffff1673ffffffffffffffffffffffffffffffffffffffff166338cc48316040518163ffffffff1660e01b8152600401602060405180830381600087803b1580156200018257600080fd5b505af115801562000197573d6000803e3d6000fd5b505050506040513d6020811015620001ae57600080fd5b810190808051906020019092919050505073ffffffffffffffffffffffffffffffffffffffff16600160009054906101000a900473ffffffffffffffffffffffffffffffffffffffff1673ffffffffffffffffffffffffffffffffffffffff1614620002fd57600260009054906101000a900473ffffffffffffffffffffffffffffffffffffffff1673ffffffffffffffffffffffffffffffffffffffff166338cc48316040518163ffffffff1660e01b8152600401602060405180830381600087803b1580156200027f57600080fd5b505af115801562000294573d6000803e3d6000fd5b505050506040513d6020811015620002ab57600080fd5b8101908080519060200190929190505050600160006101000a81548173ffffffffffffffffffffffffffffffffffffffff021916908373ffffffffffffffffffffffffffffffffffffffff1602179055505b600160009054906101000a900473ffffffffffffffffffffffffffffffffffffffff1673ffffffffffffffffffffffffffffffffffffffff1663688dcfd7826040518263ffffffff1660e01b815260040180827effffffffffffffffffffffffffffffffffffffffffffffffffffffffffffff19167effffffffffffffffffffffffffffffffffffffffffffffffffffffffffffff19168152602001915050600060405180830381600087803b158015620003b757600080fd5b505af1158015620003cc573d6000803e3d6000fd5b5050505050565b6000813b9050919050565b6000620003f0620003f760201b60201c565b9050919050565b6000806200041f731d3b2638a7cc9f2cb3d298a3da7a90b67e5506ed620003d360201b60201c565b1115620004cb57731d3b2638a7cc9f2cb3d298a3da7a90b67e5506ed600260006101000a81548173ffffffffffffffffffffffffffffffffffffffff021916908373ffffffffffffffffffffffffffffffffffffffff160217905550620004c16040518060400160405280600b81526020017f6574685f6d61696e6e6574000000000000000000000000000000000000000000815250620009c660201b60201c565b60019050620009c3565b6000620004f273c03a2615d5efaf5f49f60b7bb6583eaec212fdf1620003d360201b60201c565b11156200059e5773c03a2615d5efaf5f49f60b7bb6583eaec212fdf1600260006101000a81548173ffffffffffffffffffffffffffffffffffffffff021916908373ffffffffffffffffffffffffffffffffffffffff160217905550620005946040518060400160405280600c81526020017f6574685f726f707374656e330000000000000000000000000000000000000000815250620009c660201b60201c565b60019050620009c3565b6000620005c573b7a07bcf2ba2f2703b24c0691b5278999c59ac7e620003d360201b60201c565b1115620006715773b7a07bcf2ba2f2703b24c0691b5278999c59ac7e600260006101000a81548173ffffffffffffffffffffffffffffffffffffffff021916908373ffffffffffffffffffffffffffffffffffffffff160217905550620006676040518060400160405280600981526020017f6574685f6b6f76616e0000000000000000000000000000000000000000000000815250620009c660201b60201c565b60019050620009c3565b60006200069873146500cfd35b22e4a392fe0adc06de1a1368ed48620003d360201b60201c565b1115620007445773146500cfd35b22e4a392fe0adc06de1a1368ed48600260006101000a81548173ffffffffffffffffffffffffffffffffffffffff021916908373ffffffffffffffffffffffffffffffffffffffff1602179055506200073a6040518060400160405280600b81526020017f6574685f72696e6b656279000000000000000000000000000000000000000000815250620009c660201b60201c565b60019050620009c3565b60006200076b73a2998efd205fb9d4b4963afb70778d6354ad3a41620003d360201b60201c565b1115620008175773a2998efd205fb9d4b4963afb70778d6354ad3a41600260006101000a81548173ffffffffffffffffffffffffffffffffffffffff021916908373ffffffffffffffffffffffffffffffffffffffff1602179055506200080d6040518060400160405280600a81526020017f6574685f676f65726c6900000000000000000000000000000000000000000000815250620009c660201b60201c565b60019050620009c3565b60006200083e736f485c8bf6fc43ea212e93bbf8ce046c7f1cb475620003d360201b60201c565b1115620008a457736f485c8bf6fc43ea212e93bbf8ce046c7f1cb475600260006101000a81548173ffffffffffffffffffffffffffffffffffffffff021916908373ffffffffffffffffffffffffffffffffffffffff16021790555060019050620009c3565b6000620008cb7320e12a1f859b3feae5fb2a0a32c18f5a65555bbf620003d360201b60201c565b111562000931577320e12a1f859b3feae5fb2a0a32c18f5a65555bbf600260006101000a81548173ffffffffffffffffffffffffffffffffffffffff021916908373ffffffffffffffffffffffffffffffffffffffff16021790555060019050620009c3565b6000620009587351efaf4c8b3c9afbd5ab9f4bbc82784ab6ef8faa620003d360201b60201c565b1115620009be577351efaf4c8b3c9afbd5ab9f4bbc82784ab6ef8faa600260006101000a81548173ffffffffffffffffffffffffffffffffffffffff021916908373ffffffffffffffffffffffffffffffffffffffff16021790555060019050620009c3565b600090505b90565b8060039080519060200190620009de929190620009e2565b5050565b828054600181600116156101000203166002900490600052602060002090601f016020900481019282601f1062000a2557805160ff191683800117855562000a56565b8280016001018555821562000a56579182015b8281111562000a5557825182559160200191906001019062000a38565b5b50905062000a65919062000a69565b5090565b62000a8e91905b8082111562000a8a57600081600090555060010162000a70565b5090565b90565b613d6a8062000aa16000396000f3fe6080604052600436106100865760003560e01c8063853828b611610059578063853828b61461037e5780638da5cb5b146103a9578063bd097e2114610400578063cde4efa91461041e578063e437786d1461042857610086565b806327dc297e1461008b578063303b2f4b1461015d57806338bbfa50146101ea5780636f9fb98a14610353575b600080fd5b34801561009757600080fd5b5061015b600480360360408110156100ae57600080fd5b8101908080359060200190929190803590602001906401000000008111156100d557600080fd5b8201836020820111156100e757600080fd5b8035906020019184600183028401116401000000008311171561010957600080fd5b91908080601f016020809104026020016040519081016040528093929190818152602001838380828437600081840152601f19601f820116905080830192505050505050509192919290505050610491565b005b34801561016957600080fd5b506101966004803603602081101561018057600080fd5b81019080803590602001909291905050506104d4565b604051808473ffffffffffffffffffffffffffffffffffffffff1673ffffffffffffffffffffffffffffffffffffffff16815260200183815260200182151515158152602001935050505060405180910390f35b3480156101f657600080fd5b506103516004803603606081101561020d57600080fd5b81019080803590602001909291908035906020019064010000000081111561023457600080fd5b82018360208201111561024657600080fd5b8035906020019184600183028401116401000000008311171561026857600080fd5b91908080601f016020809104026020016040519081016040528093929190818152602001838380828437600081840152601f19601f820116905080830192505050505050509192919290803590602001906401000000008111156102cb57600080fd5b8201836020820111156102dd57600080fd5b803590602001918460018302840111640100000000831117156102ff57600080fd5b91908080601f016020809104026020016040519081016040528093929190818152602001838380828437600081840152601f19601f82011690508083019250505050505050919291929050505061052b565b005b34801561035f57600080fd5b506103686108b1565b6040518082815260200191505060405180910390f35b34801561038a57600080fd5b506103936108d5565b6040518082815260200191505060405180910390f35b3480156103b557600080fd5b506103be6109cc565b604051808273ffffffffffffffffffffffffffffffffffffffff1673ffffffffffffffffffffffffffffffffffffffff16815260200191505060405180910390f35b6104086109f1565b6040518082815260200191505060405180910390f35b610426610acb565b005b34801561043457600080fd5b506104776004803603602081101561044b57600080fd5b81019080803573ffffffffffffffffffffffffffffffffffffffff169060200190929190505050610d9a565b604051808215151515815260200191505060405180910390f35b6104d0828260006040519080825280601f01601f1916602001820160405280156104ca5781602001600182028038833980820191505090505b5061052b565b5050565b60076020528060005260406000206000915090508060000160009054906101000a900473ffffffffffffffffffffffffffffffffffffffff16908060010154908060020160009054906101000a900460ff16905083565b610533610dba565b73ffffffffffffffffffffffffffffffffffffffff163373ffffffffffffffffffffffffffffffffffffffff161461056a57600080fd5b60006105778484846110da565b60ff1614610584576108ac565b60006002836040516020018082805190602001908083835b602083106105bf578051825260208201915060208101905060208303925061059c565b6001836020036101000a0380198251168184511680821785525050505050509050019150506040516020818303038152906040528051906020012060001c8161060457fe5b06905060008114156106445760006007600086815260200190815260200160002060020160006101000a81548160ff021916908315150217905550610714565b60018114156107135760016007600086815260200190815260200160002060020160006101000a81548160ff0219169083151502179055506007600085815260200190815260200160002060000160009054906101000a900473ffffffffffffffffffffffffffffffffffffffff1673ffffffffffffffffffffffffffffffffffffffff166108fc60026007600088815260200190815260200160002060010154029081150290604051600060405180830381858888f19350505050158015610711573d6000803e3d6000fd5b505b5b6000600860006007600088815260200190815260200160002060000160009054906101000a900473ffffffffffffffffffffffffffffffffffffffff1673ffffffffffffffffffffffffffffffffffffffff1673ffffffffffffffffffffffffffffffffffffffff16815260200190815260200160002060006101000a81548160ff0219169083151502179055507fc13d60fe9dffdb6908d2d446cd18134373a51db0738ee04f296eeb9128121cbc816040518082815260200191505060405180910390a16007600085815260200190815260200160002060000160009054906101000a900473ffffffffffffffffffffffffffffffffffffffff1673ffffffffffffffffffffffffffffffffffffffff167f6938cbf453af775aeb0f0d1c25d85e2b060360487baf9892b54261adcb6b2d318560076000888152602001908152602001600020600101546007600089815260200190815260200160002060020160009054906101000a900460ff166040518084815260200183815260200182151515158152602001935050505060405180910390a2505b505050565b6000803073ffffffffffffffffffffffffffffffffffffffff163190508091505090565b60008060009054906101000a900473ffffffffffffffffffffffffffffffffffffffff1673ffffffffffffffffffffffffffffffffffffffff163373ffffffffffffffffffffffffffffffffffffffff161461093057600080fd5b3373ffffffffffffffffffffffffffffffffffffffff166108fc3073ffffffffffffffffffffffffffffffffffffffff16319081150290604051600060405180830381858888f1935050505015801561098d573d6000803e3d6000fd5b5060003073ffffffffffffffffffffffffffffffffffffffff1631146109af57fe5b3073ffffffffffffffffffffffffffffffffffffffff1631905090565b6000809054906101000a900473ffffffffffffffffffffffffffffffffffffffff1681565b60008060009054906101000a900473ffffffffffffffffffffffffffffffffffffffff1673ffffffffffffffffffffffffffffffffffffffff163373ffffffffffffffffffffffffffffffffffffffff1614610a4c57600080fd5b6000341415610a5a57600080fd5b7fff043843182fec3fbcbc695545b7652d340a2cf0919615adb04d98a00e7de8e23334604051808373ffffffffffffffffffffffffffffffffffffffff1673ffffffffffffffffffffffffffffffffffffffff1681526020018281526020019250505060405180910390a134905090565b662386f26fc10000600060023073ffffffffffffffffffffffffffffffffffffffff163181610af657fe5b04905080341115610b52576040517f08c379a0000000000000000000000000000000000000000000000000000000008152600401808060200182810382526023815260200180613ca96023913960400191505060405180910390fd5b81341015610bab576040517f08c379a000000000000000000000000000000000000000000000000000000000815260040180806020018281038252602a815260200180613d0c602a913960400191505060405180910390fd5b60001515600860003373ffffffffffffffffffffffffffffffffffffffff1673ffffffffffffffffffffffffffffffffffffffff16815260200190815260200160002060009054906101000a900460ff16151514610c0857600080fd5b6001600860003373ffffffffffffffffffffffffffffffffffffffff1673ffffffffffffffffffffffffffffffffffffffff16815260200190815260200160002060006101000a81548160ff0219169083151502179055506000809050600062030d409050610c798260018361120a565b60068190555060405180606001604052803373ffffffffffffffffffffffffffffffffffffffff1681526020013481526020016000151581525060076000600654815260200190815260200160002060008201518160000160006101000a81548173ffffffffffffffffffffffffffffffffffffffff021916908373ffffffffffffffffffffffffffffffffffffffff1602179055506020820151816001015560408201518160020160006101000a81548160ff0219169083151502179055509050503373ffffffffffffffffffffffffffffffffffffffff167ffc2fe68101fc6915d659df206ef61ccafa88befcd022d6a9b8fadab1f569688460065434604051808381526020018281526020019250505060405180910390a250505050565b60086020528060005260406000206000915054906101000a900460ff1681565b60008073ffffffffffffffffffffffffffffffffffffffff16600260009054906101000a900473ffffffffffffffffffffffffffffffffffffffff1673ffffffffffffffffffffffffffffffffffffffff161480610e4257506000610e40600260009054906101000a900473ffffffffffffffffffffffffffffffffffffffff166117a5565b145b15610e5357610e5160006117b0565b505b600260009054906101000a900473ffffffffffffffffffffffffffffffffffffffff1673ffffffffffffffffffffffffffffffffffffffff166338cc48316040518163ffffffff1660e01b8152600401602060405180830381600087803b158015610ebd57600080fd5b505af1158015610ed1573d6000803e3d6000fd5b505050506040513d6020811015610ee757600080fd5b810190808051906020019092919050505073ffffffffffffffffffffffffffffffffffffffff16600160009054906101000a900473ffffffffffffffffffffffffffffffffffffffff1673ffffffffffffffffffffffffffffffffffffffff161461103257600260009054906101000a900473ffffffffffffffffffffffffffffffffffffffff1673ffffffffffffffffffffffffffffffffffffffff166338cc48316040518163ffffffff1660e01b8152600401602060405180830381600087803b158015610fb657600080fd5b505af1158015610fca573d6000803e3d6000fd5b505050506040513d6020811015610fe057600080fd5b8101908080519060200190929190505050600160006101000a81548173ffffffffffffffffffffffffffffffffffffffff021916908373ffffffffffffffffffffffffffffffffffffffff1602179055505b600160009054906101000a900473ffffffffffffffffffffffffffffffffffffffff1673ffffffffffffffffffffffffffffffffffffffff1663c281d19e6040518163ffffffff1660e01b815260040160206040518083038186803b15801561109a57600080fd5b505afa1580156110ae573d6000803e3d6000fd5b505050506040513d60208110156110c457600080fd5b8101908080519060200190929190505050905090565b60007f4c000000000000000000000000000000000000000000000000000000000000008260008151811061110a57fe5b602001015160f81c60f81b7effffffffffffffffffffffffffffffffffffffffffffffffffffffffffffff191614158061119d57507f50000000000000000000000000000000000000000000000000000000000000008260018151811061116d57fe5b602001015160f81c60f81b7effffffffffffffffffffffffffffffffffffffffffffffffffffffffffffff191614155b806111c95750600160ff16826002815181106111b557fe5b602001015160f81c60f81b60f81c60ff1614155b156111d75760019050611203565b60006111ec8386866111e76117c1565b611863565b9050806111fd576002915050611203565b60009150505b9392505050565b6000808311801561121c575060208311155b61122557600080fd5b600a84029350606060016040519080825280601f01601f1916602001820160405280156112615781602001600182028038833980820191505090505b5090508360f81b8160008151811061127557fe5b60200101907effffffffffffffffffffffffffffffffffffffffffffffffffffffffffffff1916908160001a905350606060206040519080825280601f01601f1916602001820160405280156112da5781602001600182028038833980820191505090505b509050606060206040519080825280601f01601f1916602001820160405280156113135781602001600182028038833980820191505090505b5090506000611320611f0e565b905060208352424118600143034018602084015260208252806020830152606060206040519080825280601f01601f1916602001820160405280156113745781602001600182028038833980820191505090505b509050886020820152606060086040519080825280601f01601f1916602001820160405280156113b35781602001600182028038833980820191505090505b5090506113c6826018600884600061222e565b506113cf613bc2565b604051806080016040528087815260200188815260200186815260200184815250905060006114346040518060400160405280600681526020017f72616e646f6d0000000000000000000000000000000000000000000000000000815250838c61228d565b9050606060086040519080825280601f01601f19166020018201604052801561146c5781602001600182028038833980820191505090505b50905060208401517f0100000000000000000000000000000000000000000000000000000000000000810460278301537e01000000000000000000000000000000000000000000000000000000000000810460268301537d010000000000000000000000000000000000000000000000000000000000810460258301537c0100000000000000000000000000000000000000000000000000000000810460248301537b01000000000000000000000000000000000000000000000000000000810460238301537a0100000000000000000000000000000000000000000000000000008104602283015379010000000000000000000000000000000000000000000000000081046021830153780100000000000000000000000000000000000000000000000081046020830153506117928282856001600481106115ab57fe5b60200201516002876000600481106115bf57fe5b60200201516040518082805190602001908083835b602083106115f757805182526020820191506020810190506020830392506115d4565b6001836020036101000a038019825116818451168082178552505050505050905001915050602060405180830381855afa158015611639573d6000803e3d6000fd5b5050506040513d602081101561164e57600080fd5b81019080805190602001909291905050508760026004811061166c57fe5b60200201516040516020018085805190602001908083835b602083106116a75780518252602082019150602081019050602083039250611684565b6001836020036101000a03801982511681845116808217855250505050505090500184805190602001908083835b602083106116f857805182526020820191506020810190506020830392506116d5565b6001836020036101000a03801982511681845116808217855250505050505090500183815260200182805190602001908083835b6020831061174f578051825260208201915060208101905060208303925061172c565b6001836020036101000a038019825116818451168082178552505050505050905001945050505050604051602081830303815290604052805190602001206125fc565b8199505050505050505050509392505050565b6000813b9050919050565b60006117ba612618565b9050919050565b606060038054600181600116156101000203166002900480601f0160208091040260200160405190810160405280929190818152602001828054600181600116156101000203166002900480156118595780601f1061182e57610100808354040283529160200191611859565b820191906000526020600020905b81548152906001019060200180831161183c57829003601f168201915b5050505050905090565b600080602060028760458151811061187757fe5b602001015160f81c60f81b60f81c60ff1601604401019050606060206040519080825280601f01601f1916602001820160405280156118c55781602001600182028038833980820191505090505b5090506118d78783602084600061222e565b50600284876040516020018083805190602001908083835b6020831061191257805182526020820191506020810190506020830392506118ef565b6001836020036101000a038019825116818451168082178552505050505050905001828152602001925050506040516020818303038152906040526040518082805190602001908083835b60208310611980578051825260208201915060208101905060208303925061195d565b6001836020036101000a038019825116818451168082178552505050505050905001915050602060405180830381855afa1580156119c2573d6000803e3d6000fd5b5050506040513d60208110156119d757600080fd5b81019080805190602001909291905050506040516020018082815260200191505060405160208183030381529060405280519060200120818051906020012014611a2657600092505050611f06565b60606002886001604986010181518110611a3c57fe5b602001015160f81c60f81b60f81c60ff16016040519080825280601f01601f191660200182016040528015611a805781602001600182028038833980820191505090505b509050611a958860498501835184600061222e565b50611b606002826040518082805190602001908083835b60208310611acf5780518252602082019150602081019050602083039250611aac565b6001836020036101000a038019825116818451168082178552505050505050905001915050602060405180830381855afa158015611b11573d6000803e3d6000fd5b5050506040513d6020811015611b2657600080fd5b8101908080519060200190929190505050878a6008602088010181518110611b4a57fe5b602001015160f81c60f81b60f81c60ff16612b6f565b611b705760009350505050611f06565b606060296040519080825280601f01601f191660200182016040528015611ba65781602001600182028038833980820191505090505b509050611bbb8960208601602984600061222e565b506060604080519080825280601f01601f191660200182016040528015611bf15781602001600182028038833980820191505090505b5090506000604184516029602089010101019050611c178b60408303604085600061222e565b5060006002836040518082805190602001908083835b60208310611c505780518252602082019150602081019050602083039250611c2d565b6001836020036101000a038019825116818451168082178552505050505050905001915050602060405180830381855afa158015611c92573d6000803e3d6000fd5b5050506040513d6020811015611ca757600080fd5b8101908080519060200190929190505050905083816040516020018083805190602001908083835b60208310611cf25780518252602082019150602081019050602083039250611ccf565b6001836020036101000a0380198251168184511680821785525050505050509050018281526020019250505060405160208183030381529060405280519060200120600460008d8152602001908152602001600020541415611d6a57600460008c815260200190815260200160002060009055611d7a565b6000975050505050505050611f06565b606060496040519080825280601f01601f191660200182016040528015611db05781602001600182028038833980820191505090505b509050611dc28d89604984600061222e565b50611e6b6002826040518082805190602001908083835b60208310611dfc5780518252602082019150602081019050602083039250611dd9565b6001836020036101000a038019825116818451168082178552505050505050905001915050602060405180830381855afa158015611e3e573d6000803e3d6000fd5b5050506040513d6020811015611e5357600080fd5b81019080805190602001909291905050508786612c1f565b611e8057600098505050505050505050611f06565b6005600083815260200190815260200160002060009054906101000a900460ff16611eda57611eaf8d84612ddd565b6005600084815260200190815260200160002060006101000a81548160ff0219169083151502179055505b6005600083815260200190815260200160002060009054906101000a900460ff16985050505050505050505b949350505050565b60008073ffffffffffffffffffffffffffffffffffffffff16600260009054906101000a900473ffffffffffffffffffffffffffffffffffffffff1673ffffffffffffffffffffffffffffffffffffffff161480611f9657506000611f94600260009054906101000a900473ffffffffffffffffffffffffffffffffffffffff166117a5565b145b15611fa757611fa560006117b0565b505b600260009054906101000a900473ffffffffffffffffffffffffffffffffffffffff1673ffffffffffffffffffffffffffffffffffffffff166338cc48316040518163ffffffff1660e01b8152600401602060405180830381600087803b15801561201157600080fd5b505af1158015612025573d6000803e3d6000fd5b505050506040513d602081101561203b57600080fd5b810190808051906020019092919050505073ffffffffffffffffffffffffffffffffffffffff16600160009054906101000a900473ffffffffffffffffffffffffffffffffffffffff1673ffffffffffffffffffffffffffffffffffffffff161461218657600260009054906101000a900473ffffffffffffffffffffffffffffffffffffffff1673ffffffffffffffffffffffffffffffffffffffff166338cc48316040518163ffffffff1660e01b8152600401602060405180830381600087803b15801561210a57600080fd5b505af115801561211e573d6000803e3d6000fd5b505050506040513d602081101561213457600080fd5b8101908080519060200190929190505050600160006101000a81548173ffffffffffffffffffffffffffffffffffffffff021916908373ffffffffffffffffffffffffffffffffffffffff1602179055505b600160009054906101000a900473ffffffffffffffffffffffffffffffffffffffff1673ffffffffffffffffffffffffffffffffffffffff1663abaa5f3e6040518163ffffffff1660e01b815260040160206040518083038186803b1580156121ee57600080fd5b505afa158015612202573d6000803e3d6000fd5b505050506040513d602081101561221857600080fd5b8101908080519060200190929190505050905090565b606060008285019050808451101561224557600080fd5b600086602001905060008460200190505b86886020010182101561227e5781890151808288015250602082019150602081019050612256565b85935050505095945050505050565b60008073ffffffffffffffffffffffffffffffffffffffff16600260009054906101000a900473ffffffffffffffffffffffffffffffffffffffff1673ffffffffffffffffffffffffffffffffffffffff16148061231557506000612313600260009054906101000a900473ffffffffffffffffffffffffffffffffffffffff166117a5565b145b156123265761232460006117b0565b505b600260009054906101000a900473ffffffffffffffffffffffffffffffffffffffff1673ffffffffffffffffffffffffffffffffffffffff166338cc48316040518163ffffffff1660e01b8152600401602060405180830381600087803b15801561239057600080fd5b505af11580156123a4573d6000803e3d6000fd5b505050506040513d60208110156123ba57600080fd5b810190808051906020019092919050505073ffffffffffffffffffffffffffffffffffffffff16600160009054906101000a900473ffffffffffffffffffffffffffffffffffffffff1673ffffffffffffffffffffffffffffffffffffffff161461250557600260009054906101000a900473ffffffffffffffffffffffffffffffffffffffff1673ffffffffffffffffffffffffffffffffffffffff166338cc48316040518163ffffffff1660e01b8152600401602060405180830381600087803b15801561248957600080fd5b505af115801561249d573d6000803e3d6000fd5b505050506040513d60208110156124b357600080fd5b8101908080519060200190929190505050600160006101000a81548173ffffffffffffffffffffffffffffffffffffffff021916908373ffffffffffffffffffffffffffffffffffffffff1602179055505b6060600460405190808252806020026020018201604052801561253c57816020015b60608152602001906001900390816125275790505b5090508360006004811061254c57fe5b60200201518160008151811061255e57fe5b60200260200101819052508360016004811061257657fe5b60200201518160018151811061258857fe5b6020026020010181905250836002600481106125a057fe5b6020020151816002815181106125b257fe5b6020026020010181905250836003600481106125ca57fe5b6020020151816003815181106125dc57fe5b60200260200101819052506125f28582856131f5565b9150509392505050565b8060046000848152602001908152602001600020819055505050565b600080612638731d3b2638a7cc9f2cb3d298a3da7a90b67e5506ed6117a5565b11156126da57731d3b2638a7cc9f2cb3d298a3da7a90b67e5506ed600260006101000a81548173ffffffffffffffffffffffffffffffffffffffff021916908373ffffffffffffffffffffffffffffffffffffffff1602179055506126d16040518060400160405280600b81526020017f6574685f6d61696e6e657400000000000000000000000000000000000000000081525061375b565b60019050612b6c565b60006126f973c03a2615d5efaf5f49f60b7bb6583eaec212fdf16117a5565b111561279b5773c03a2615d5efaf5f49f60b7bb6583eaec212fdf1600260006101000a81548173ffffffffffffffffffffffffffffffffffffffff021916908373ffffffffffffffffffffffffffffffffffffffff1602179055506127926040518060400160405280600c81526020017f6574685f726f707374656e33000000000000000000000000000000000000000081525061375b565b60019050612b6c565b60006127ba73b7a07bcf2ba2f2703b24c0691b5278999c59ac7e6117a5565b111561285c5773b7a07bcf2ba2f2703b24c0691b5278999c59ac7e600260006101000a81548173ffffffffffffffffffffffffffffffffffffffff021916908373ffffffffffffffffffffffffffffffffffffffff1602179055506128536040518060400160405280600981526020017f6574685f6b6f76616e000000000000000000000000000000000000000000000081525061375b565b60019050612b6c565b600061287b73146500cfd35b22e4a392fe0adc06de1a1368ed486117a5565b111561291d5773146500cfd35b22e4a392fe0adc06de1a1368ed48600260006101000a81548173ffffffffffffffffffffffffffffffffffffffff021916908373ffffffffffffffffffffffffffffffffffffffff1602179055506129146040518060400160405280600b81526020017f6574685f72696e6b65627900000000000000000000000000000000000000000081525061375b565b60019050612b6c565b600061293c73a2998efd205fb9d4b4963afb70778d6354ad3a416117a5565b11156129de5773a2998efd205fb9d4b4963afb70778d6354ad3a41600260006101000a81548173ffffffffffffffffffffffffffffffffffffffff021916908373ffffffffffffffffffffffffffffffffffffffff1602179055506129d56040518060400160405280600a81526020017f6574685f676f65726c690000000000000000000000000000000000000000000081525061375b565b60019050612b6c565b60006129fd736f485c8bf6fc43ea212e93bbf8ce046c7f1cb4756117a5565b1115612a6157736f485c8bf6fc43ea212e93bbf8ce046c7f1cb475600260006101000a81548173ffffffffffffffffffffffffffffffffffffffff021916908373ffffffffffffffffffffffffffffffffffffffff16021790555060019050612b6c565b6000612a807320e12a1f859b3feae5fb2a0a32c18f5a65555bbf6117a5565b1115612ae4577320e12a1f859b3feae5fb2a0a32c18f5a65555bbf600260006101000a81548173ffffffffffffffffffffffffffffffffffffffff021916908373ffffffffffffffffffffffffffffffffffffffff16021790555060019050612b6c565b6000612b037351efaf4c8b3c9afbd5ab9f4bbc82784ab6ef8faa6117a5565b1115612b67577351efaf4c8b3c9afbd5ab9f4bbc82784ab6ef8faa600260006101000a81548173ffffffffffffffffffffffffffffffffffffffff021916908373ffffffffffffffffffffffffffffffffffffffff16021790555060019050612b6c565b600090505b90565b6000806001905082845114612b8357600080fd5b60008090505b83811015612c1357848181518110612b9d57fe5b602001015160f81c60f81b7effffffffffffffffffffffffffffffffffffffffffffffffffffffffffffff1916868260208110612bd657fe5b1a60f81b7effffffffffffffffffffffffffffffffffffffffffffffffffffffffffffff191614612c0657600091505b8080600101915050612b89565b50809150509392505050565b6000806000806000606060206040519080825280601f01601f191660200182016040528015612c5d5781602001600182028038833980820191505090505b5090506000602089600381518110612c7157fe5b602001015160f81c60f81b60f81c60ff16036004019050612c978982602085600061222e565b9150606060206040519080825280601f01601f191660200182016040528015612ccf5781602001600182028038833980820191505090505b509050602282019150612d0b8a60208c6001860381518110612ced57fe5b602001015160f81c60f81b60f81c60ff16038401602084600061222e565b90506020830151945060208101519350612d288b601b8787613775565b80975081985050508573ffffffffffffffffffffffffffffffffffffffff16898051906020012060001c73ffffffffffffffffffffffffffffffffffffffff161415612d7e576001975050505050505050612dd6565b612d8b8b601c8787613775565b80975081985050508573ffffffffffffffffffffffffffffffffffffffff16898051906020012060001c73ffffffffffffffffffffffffffffffffffffffff16149750505050505050505b9392505050565b60008060606002856001860181518110612df357fe5b602001015160f81c60f81b60f81c60ff16016040519080825280601f01601f191660200182016040528015612e375781602001600182028038833980820191505090505b509050612e498585835184600061222e565b506060604080519080825280601f01601f191660200182016040528015612e7f5781602001600182028038833980820191505090505b509050612e92866004604084600061222e565b50606060626040519080825280601f01601f191660200182016040528015612ec95781602001600182028038833980820191505090505b509050600160f81b81600081518110612ede57fe5b60200101907effffffffffffffffffffffffffffffffffffffffffffffffffffffffffffff1916908160001a905350612f1f8760418803604184600161222e565b5060606040518060400160405280602081526020017ffd94fa71bc0ba10d39d464d0d8f465efeef0a2764e3887fcc9df41ded20f505c8152509050612f6a816000602085604261222e565b506130136002836040518082805190602001908083835b60208310612fa45780518252602082019150602081019050602083039250612f81565b6001836020036101000a038019825116818451168082178552505050505050905001915050602060405180830381855afa158015612fe6573d6000803e3d6000fd5b5050506040513d6020811015612ffb57600080fd5b81019080805190602001909291905050508585612c1f565b945084613028576000955050505050506131ef565b6060604051806060016040528060408152602001613ccc604091399050606060426040519080825280601f01601f19166020018201604052801561307b5781602001600182028038833980820191505090505b50905060fe60f81b8160008151811061309057fe5b60200101907effffffffffffffffffffffffffffffffffffffffffffffffffffffffffffff1916908160001a9053506130cf8a6003604184600161222e565b50606060028b6045815181106130e157fe5b602001015160f81c60f81b60f81c60ff16016040519080825280601f01601f1916602001820160405280156131255781602001600182028038833980820191505090505b5090506131388b6044835184600061222e565b506131e16002836040518082805190602001908083835b60208310613172578051825260208201915060208101905060208303925061314f565b6001836020036101000a038019825116818451168082178552505050505050905001915050602060405180830381855afa1580156131b4573d6000803e3d6000fd5b5050506040513d60208110156131c957600080fd5b81019080805190602001909291905050508285612c1f565b975087985050505050505050505b92915050565b60008073ffffffffffffffffffffffffffffffffffffffff16600260009054906101000a900473ffffffffffffffffffffffffffffffffffffffff1673ffffffffffffffffffffffffffffffffffffffff16148061327d5750600061327b600260009054906101000a900473ffffffffffffffffffffffffffffffffffffffff166117a5565b145b1561328e5761328c60006117b0565b505b600260009054906101000a900473ffffffffffffffffffffffffffffffffffffffff1673ffffffffffffffffffffffffffffffffffffffff166338cc48316040518163ffffffff1660e01b8152600401602060405180830381600087803b1580156132f857600080fd5b505af115801561330c573d6000803e3d6000fd5b505050506040513d602081101561332257600080fd5b810190808051906020019092919050505073ffffffffffffffffffffffffffffffffffffffff16600160009054906101000a900473ffffffffffffffffffffffffffffffffffffffff1673ffffffffffffffffffffffffffffffffffffffff161461346d57600260009054906101000a900473ffffffffffffffffffffffffffffffffffffffff1673ffffffffffffffffffffffffffffffffffffffff166338cc48316040518163ffffffff1660e01b8152600401602060405180830381600087803b1580156133f157600080fd5b505af1158015613405573d6000803e3d6000fd5b505050506040513d602081101561341b57600080fd5b8101908080519060200190929190505050600160006101000a81548173ffffffffffffffffffffffffffffffffffffffff021916908373ffffffffffffffffffffffffffffffffffffffff1602179055505b6000600160009054906101000a900473ffffffffffffffffffffffffffffffffffffffff1673ffffffffffffffffffffffffffffffffffffffff16632ef3accc86856040518363ffffffff1660e01b81526004018080602001838152602001828103825284818151815260200191508051906020019080838360005b838110156135045780820151818401526020810190506134e9565b50505050905090810190601f1680156135315780820380516001836020036101000a031916815260200191505b509350505050602060405180830381600087803b15801561355157600080fd5b505af1158015613565573d6000803e3d6000fd5b505050506040513d602081101561357b57600080fd5b81019080805190602001909291905050509050823a02670de0b6b3a7640000018111156135ae576000801b915050613754565b60606135b9856137b9565b9050600160009054906101000a900473ffffffffffffffffffffffffffffffffffffffff1673ffffffffffffffffffffffffffffffffffffffff1663c55c1cb68360008985896040518663ffffffff1660e01b8152600401808581526020018060200180602001848152602001838103835286818151815260200191508051906020019080838360005b8381101561365e578082015181840152602081019050613643565b50505050905090810190601f16801561368b5780820380516001836020036101000a031916815260200191505b50838103825285818151815260200191508051906020019080838360005b838110156136c45780820151818401526020810190506136a9565b50505050905090810190601f1680156136f15780820380516001836020036101000a031916815260200191505b5096505050505050506020604051808303818588803b15801561371357600080fd5b505af1158015613727573d6000803e3d6000fd5b50505050506040513d602081101561373e57600080fd5b8101908080519060200190929190505050925050505b9392505050565b8060039080519060200190613771929190613be9565b5050565b60008060008060405188815287602082015286604082015285606082015260208160808360006001610bb8f192508051915050818193509350505094509492505050565b60606137c3613839565b6137cb613c69565b6137d781610400613845565b6137e08161388f565b60008090505b8351811015613822576138158482815181106137fe57fe5b60200260200101518361389d90919063ffffffff16565b80806001019150506137e6565b5061382c816138c2565b8060000151915050919050565b60405180590338823950565b600081905060006020828161385657fe5b061461386f576020818161386657fe5b06602003810190505b808360200181815250506040518084526000815281810160405250505050565b61389a8160046138d0565b50565b6138aa82600283516138f1565b6138bd8183613a3190919063ffffffff16565b505050565b6138cd8160076138d0565b50565b6138ed601f60058360ff16901b1783613adc90919063ffffffff16565b5050565b6017811161391d576139188160058460ff16901b60ff161784613adc90919063ffffffff16565b613a2c565b60ff811161395e57613942601860058460ff16901b1784613adc90919063ffffffff16565b61395881600185613b1c9092919063ffffffff16565b50613a2b565b61ffff81116139a057613984601960058460ff16901b1784613adc90919063ffffffff16565b61399a81600285613b1c9092919063ffffffff16565b50613a2a565b63ffffffff81116139e4576139c8601a60058460ff16901b1784613adc90919063ffffffff16565b6139de81600485613b1c9092919063ffffffff16565b50613a29565b67ffffffffffffffff8111613a2857613a10601b60058460ff16901b1784613adc90919063ffffffff16565b613a2681600885613b1c9092919063ffffffff16565b505b5b5b5b5b505050565b613a39613c69565b82602001518360000151518351011115613a6957613a68836002613a6286602001518651613b83565b02613b9f565b5b60008060008451905085518051602081830101945086518101825260208701935050505b60208110613ab05781518352602083019250602082019150602081039050613a8d565b60006001826020036101000a039050801983511681855116818117865250508694505050505092915050565b81602001516001836000015151011115613b0257613b01826002846020015102613b9f565b5b815180516020818301018381536001820183525050505050565b613b24613c69565b836020015184600001515183011115613b5257613b51846002613b4b876020015186613b83565b02613b9f565b5b60006001836101000a0390508451805184818301018684198251161781528582018352505050849150509392505050565b600081831115613b9557829050613b99565b8190505b92915050565b606082600001519050613bb28383613845565b613bbc8382613a31565b50505050565b60405180608001604052806004905b6060815260200190600190039081613bd15790505090565b828054600181600116156101000203166002900490600052602060002090601f016020900481019282601f10613c2a57805160ff1916838001178555613c58565b82800160010185558215613c58579182015b82811115613c57578251825591602001919060010190613c3c565b5b509050613c659190613c83565b5090565b604051806040016040528060608152602001600081525090565b613ca591905b80821115613ca1576000816000905550600101613c89565b5090565b9056fe4a61636b706f7420697320746865206d61782062657420796f752063616e206d616b657fb956469c5c9b89840d55b43537e66a98dd4811ea0a27224272c2e5622911e8537a2f8e86a46baec82864e98dd01e9ccc2f8bc5dfc9cbe5a91a290498dd96e4546865206d696e696d756d2062657420796f752063616e206d616b6520697320302e3031204574686572a265627a7a72315820cbdc6bdb7b7ea7c2970b84cef5a2a19fb9a59244e2bb9b7970564ca768c61b9a64736f6c634300050c0032",
  "source": "/*  Flip contract is a smart contract which is part of a decentral web application.\n    It allows the user to bet any amount of ether as long the contract is funded.\n    The smart contract will call a ofchain oracle to request a random number.\n    The random number will get transmitted to the smart contract through a callback.\n    The user have a 50:50 chance to win (double bet amount) or lose (lose everything).\n    Safty features are still require to build in.\n*/\n\nimport\"./Ownable.sol\";\nimport\"./provableAPI.sol\";\n\npragma solidity 0.5.12;\n\ncontract RandomPT is Ownable, usingProvable {\n    //* Variable Declaration */\n    uint256 constant NUM_RANDOM_BYTES_REQUESTED = 1;    //Value of 1-32: But why unit256? Isn't uint8 enought? In ProvableAPI.sol in line 1077 there is even a conversion to uint8 >> byte(uint8(_nbytes));\n    bytes32 queryId;                                    //Is it realy necessary to have it as state variable?\n    struct Bet {                                        //Struct Variable for betting process\n        address payable player;                         //msg.sender is the player\n        uint value;                                     //betting value (double or loose)\n        bool result;                                    //win or loose result\n    }\n    //* Events */\n    event betTaken(address indexed player, bytes32 Id, uint value, bool result);\n    event betPlaced(address indexed player,bytes32 queryId, uint value);\n    event contractFunded(address contractOwner, uint funding);\n    event LogNewProvableQuery(string description);\n    event generatedRandomNumber(uint256 randomNumber);\n    //* Mappings */\n    mapping (bytes32 => Bet) public betting;            //Query Id coupling to Bet\n    mapping (address => bool) public waiting;           //Msg.sender waiting system (Player have to wait until previous bet is taken and finished)\n    //* Constructor */\n    constructor() public {\n        provable_setProof(proofType_Ledger);\n        //flip();\n    }\n    //* Modifiers */\n    modifier costs(uint cost){\n        uint jackpot = address(this).balance / 2;\n        require(msg.value <= jackpot, \"Jackpot is the max bet you can make\");   //This statement is not working yet\n        require(msg.value >= cost, \"The minimum bet you can make is 0.01 Ether\");\n        _;\n    }\n    //* Functions - Setter */\n    //Oracle Callback Function of the flip() function\n    function __callback(bytes32 _queryId, string memory _result, bytes memory _proof) public {\n        require(msg.sender == provable_cbAddress());\n\n        if (provable_randomDS_proofVerify__returnCode(_queryId, _result, _proof) != 0) {\n            /*\n             * @notice  The proof verification has failed! Handle this case\n             *          however you see fit. --> Not sure what to do here.\n            */\n        }\n        else {\n        //Final result of random number creation (0-255 % 2 == 0 || 1)\n        uint256 randomNumber = uint256(keccak256(abi.encodePacked(_result))) % 2;\n        //Condition decision: false == lose || true == win\n        if(randomNumber == 0){\n            betting[_queryId].result = false;\n        }\n        else if(randomNumber == 1){\n            betting[_queryId].result = true;\n            betting[_queryId].player.transfer((betting[_queryId].value)*2);\n        }\n        //Player address is not on waiting any more and can play again\n        waiting[betting[_queryId].player] = false;\n        //Emit event to Blockchain log (PlayerAddress, BetId, BetAmount, Result)\n        emit generatedRandomNumber(randomNumber);\n        emit betTaken(betting[_queryId].player, _queryId, betting[_queryId].value, betting[_queryId].result);\n       }\n    }\n    //Placing a bet and simulate coin flip \n    function flip() public payable costs(0.01 ether){\n        //Condition that player has no ongoing bet transaction\n        require(waiting[msg.sender] == false);\n        //Player address gets into waiting mode => Player is not able to place an other bet in this time\n        waiting[msg.sender] = true;\n\n        uint256 QUERY_EXECUTION_DELAY = 0;      //config: execution delay (0 for no delay)\n        uint256 GAS_FOR_CALLBACK = 200000;      //config: gas fee for calling __callback function (200000 is standard)\n        //Calling oracle to make random number request\n        queryId = provable_newRandomDSQuery(QUERY_EXECUTION_DELAY, NUM_RANDOM_BYTES_REQUESTED, GAS_FOR_CALLBACK);     //function to query a random number, it will call the __callback function\n        //Initialize new Bet with player values and bind it to oracle queryId\n        betting[queryId] = Bet({player: msg.sender, value: msg.value, result: false});\n        //Emit Bet values as an event to Blockchain log \n        emit betPlaced(msg.sender, queryId, msg.value);\n        //emit LogNewProvableQuery(\"Provable query was sent, standing by for answer...\");\n    }\n    //Withdraw Funds - get Ether from contract\n    function withdrawAll() public onlyOwner returns(uint){\n        //Should require that no bet is prozess! Should wait and disalow all new bets!\n        msg.sender.transfer(address(this).balance);\n        assert(address(this).balance == 0);\n        return address(this).balance;\n    }\n    //Fund the Contract - put Ether into contract\n    function fundContract() public payable onlyOwner returns(uint){\n        require(msg.value != 0);\n        emit contractFunded(msg.sender, msg.value);\n        return msg.value;\n    }\n    //* Functions - Getter */\n    //Get balance of contract address\n    function getContractBalance() public view returns (uint) {\n        uint contractBalance = address(this).balance;\n        return contractBalance;\n    }\n\n}",
  "sourcePath": "/Users/adrianlawson/Documents/IoT/Ethereum-Course-Advanced/CoinFlipDapp_Phase2/contracts/RandomPT.sol",
  "compiler": {
    "name": "solc",
    "version": "0.5.12+commit.7709ece9.Emscripten.clang"
  },
  "schemaVersion": "3.3.3",
  "updatedAt": "2021-03-03T22:15:23.752Z",
  "networkType": "ethereum",
  "devdoc": {
    "methods": {
      "__callback(bytes32,string)": {
        "details": "The following `__callback` functions are just placeholders ideally     meant to be defined in child contract when proofs are used.     The function bodies simply silence compiler warnings."
      }
    }
  },
  "userdoc": {
    "methods": {}
  }
}