{
  "contractName": "RandomPT",
  "abi": [
    {
      "inputs": [],
      "stateMutability": "nonpayable",
      "type": "constructor"
    },
    {
      "anonymous": false,
      "inputs": [
        {
          "indexed": false,
          "internalType": "string",
          "name": "description",
          "type": "string"
        }
      ],
      "name": "LogNewProvableQuery",
      "type": "event"
    },
    {
      "anonymous": false,
      "inputs": [
        {
          "indexed": true,
          "internalType": "address",
          "name": "player",
          "type": "address"
        },
        {
          "indexed": false,
          "internalType": "bytes32",
          "name": "Id",
          "type": "bytes32"
        },
        {
          "indexed": false,
          "internalType": "uint256",
          "name": "value",
          "type": "uint256"
        },
        {
          "indexed": false,
          "internalType": "bool",
          "name": "result",
          "type": "bool"
        }
      ],
      "name": "betTaken",
      "type": "event"
    },
    {
      "anonymous": false,
      "inputs": [
        {
          "indexed": false,
          "internalType": "address",
          "name": "owner",
          "type": "address"
        },
        {
          "indexed": false,
          "internalType": "uint256",
          "name": "funding",
          "type": "uint256"
        }
      ],
      "name": "funded",
      "type": "event"
    },
    {
      "anonymous": false,
      "inputs": [
        {
          "indexed": false,
          "internalType": "uint256",
          "name": "randomNumber",
          "type": "uint256"
        }
      ],
      "name": "generatedRandomNumber",
      "type": "event"
    },
    {
      "anonymous": false,
      "inputs": [
        {
          "indexed": false,
          "internalType": "address",
          "name": "user",
          "type": "address"
        },
        {
          "indexed": false,
          "internalType": "bytes32",
          "name": "queryId",
          "type": "bytes32"
        },
        {
          "indexed": false,
          "internalType": "uint256",
          "name": "value",
          "type": "uint256"
        }
      ],
      "name": "wager",
      "type": "event"
    },
    {
      "inputs": [
        {
          "internalType": "bytes32",
          "name": "",
          "type": "bytes32"
        }
      ],
      "name": "betting",
      "outputs": [
        {
          "internalType": "address payable",
          "name": "player",
          "type": "address"
        },
        {
          "internalType": "uint256",
          "name": "value",
          "type": "uint256"
        },
        {
          "internalType": "bool",
          "name": "result",
          "type": "bool"
        }
      ],
      "stateMutability": "view",
      "type": "function"
    },
    {
      "inputs": [],
      "name": "latestNumber",
      "outputs": [
        {
          "internalType": "uint256",
          "name": "",
          "type": "uint256"
        }
      ],
      "stateMutability": "view",
      "type": "function"
    },
    {
      "inputs": [],
      "name": "owner",
      "outputs": [
        {
          "internalType": "address",
          "name": "",
          "type": "address"
        }
      ],
      "stateMutability": "view",
      "type": "function"
    },
    {
      "inputs": [
        {
          "internalType": "address",
          "name": "",
          "type": "address"
        }
      ],
      "name": "waiting",
      "outputs": [
        {
          "internalType": "bool",
          "name": "",
          "type": "bool"
        }
      ],
      "stateMutability": "view",
      "type": "function"
    },
    {
      "inputs": [
        {
          "internalType": "bytes32",
          "name": "_myid",
          "type": "bytes32"
        },
        {
          "internalType": "string",
          "name": "_result",
          "type": "string"
        }
      ],
      "name": "__callback",
      "outputs": [],
      "stateMutability": "nonpayable",
      "type": "function"
    },
    {
      "inputs": [
        {
          "internalType": "bytes32",
          "name": "_queryId",
          "type": "bytes32"
        },
        {
          "internalType": "string",
          "name": "_result",
          "type": "string"
        },
        {
          "internalType": "bytes",
          "name": "_proof",
          "type": "bytes"
        }
      ],
      "name": "__callback",
      "outputs": [],
      "stateMutability": "nonpayable",
      "type": "function"
    },
    {
      "inputs": [],
      "name": "update",
      "outputs": [],
      "stateMutability": "payable",
      "type": "function"
    },
    {
      "inputs": [],
      "name": "getBalance",
      "outputs": [
        {
          "internalType": "uint256",
          "name": "",
          "type": "uint256"
        }
      ],
      "stateMutability": "nonpayable",
      "type": "function"
    },
    {
      "inputs": [],
      "name": "fundContract",
      "outputs": [
        {
          "internalType": "uint256",
          "name": "",
          "type": "uint256"
        }
      ],
      "stateMutability": "payable",
      "type": "function"
    },
    {
      "inputs": [],
      "name": "withdrawBalance",
      "outputs": [
        {
          "internalType": "uint256",
          "name": "",
          "type": "uint256"
        }
      ],
      "stateMutability": "nonpayable",
      "type": "function"
    }
  ],
  "bytecode": "0x60806040523480156200001157600080fd5b50336000806101000a81548173ffffffffffffffffffffffffffffffffffffffff021916908373ffffffffffffffffffffffffffffffffffffffff16021790555062000067603060f81b6200006d60201b60201c565b62000a66565b600073ffffffffffffffffffffffffffffffffffffffff16600260009054906101000a900473ffffffffffffffffffffffffffffffffffffffff1673ffffffffffffffffffffffffffffffffffffffff161480620000fd57506000620000fb600260009054906101000a900473ffffffffffffffffffffffffffffffffffffffff16620003b160201b60201c565b145b156200011757620001156000620003bc60201b60201c565b505b600260009054906101000a900473ffffffffffffffffffffffffffffffffffffffff1673ffffffffffffffffffffffffffffffffffffffff166338cc48316040518163ffffffff1660e01b8152600401602060405180830381600087803b1580156200018257600080fd5b505af115801562000197573d6000803e3d6000fd5b505050506040513d6020811015620001ae57600080fd5b810190808051906020019092919050505073ffffffffffffffffffffffffffffffffffffffff16600160009054906101000a900473ffffffffffffffffffffffffffffffffffffffff1673ffffffffffffffffffffffffffffffffffffffff1614620002fd57600260009054906101000a900473ffffffffffffffffffffffffffffffffffffffff1673ffffffffffffffffffffffffffffffffffffffff166338cc48316040518163ffffffff1660e01b8152600401602060405180830381600087803b1580156200027f57600080fd5b505af115801562000294573d6000803e3d6000fd5b505050506040513d6020811015620002ab57600080fd5b8101908080519060200190929190505050600160006101000a81548173ffffffffffffffffffffffffffffffffffffffff021916908373ffffffffffffffffffffffffffffffffffffffff1602179055505b600160009054906101000a900473ffffffffffffffffffffffffffffffffffffffff1673ffffffffffffffffffffffffffffffffffffffff1663688dcfd7826040518263ffffffff1660e01b815260040180827effffffffffffffffffffffffffffffffffffffffffffffffffffffffffffff19168152602001915050600060405180830381600087803b1580156200039557600080fd5b505af1158015620003aa573d6000803e3d6000fd5b5050505050565b6000813b9050919050565b6000620003ce620003d560201b60201c565b9050919050565b600080620003fd731d3b2638a7cc9f2cb3d298a3da7a90b67e5506ed620003b160201b60201c565b1115620004a957731d3b2638a7cc9f2cb3d298a3da7a90b67e5506ed600260006101000a81548173ffffffffffffffffffffffffffffffffffffffff021916908373ffffffffffffffffffffffffffffffffffffffff1602179055506200049f6040518060400160405280600b81526020017f6574685f6d61696e6e6574000000000000000000000000000000000000000000815250620009a460201b60201c565b60019050620009a1565b6000620004d073c03a2615d5efaf5f49f60b7bb6583eaec212fdf1620003b160201b60201c565b11156200057c5773c03a2615d5efaf5f49f60b7bb6583eaec212fdf1600260006101000a81548173ffffffffffffffffffffffffffffffffffffffff021916908373ffffffffffffffffffffffffffffffffffffffff160217905550620005726040518060400160405280600c81526020017f6574685f726f707374656e330000000000000000000000000000000000000000815250620009a460201b60201c565b60019050620009a1565b6000620005a373b7a07bcf2ba2f2703b24c0691b5278999c59ac7e620003b160201b60201c565b11156200064f5773b7a07bcf2ba2f2703b24c0691b5278999c59ac7e600260006101000a81548173ffffffffffffffffffffffffffffffffffffffff021916908373ffffffffffffffffffffffffffffffffffffffff160217905550620006456040518060400160405280600981526020017f6574685f6b6f76616e0000000000000000000000000000000000000000000000815250620009a460201b60201c565b60019050620009a1565b60006200067673146500cfd35b22e4a392fe0adc06de1a1368ed48620003b160201b60201c565b1115620007225773146500cfd35b22e4a392fe0adc06de1a1368ed48600260006101000a81548173ffffffffffffffffffffffffffffffffffffffff021916908373ffffffffffffffffffffffffffffffffffffffff160217905550620007186040518060400160405280600b81526020017f6574685f72696e6b656279000000000000000000000000000000000000000000815250620009a460201b60201c565b60019050620009a1565b60006200074973a2998efd205fb9d4b4963afb70778d6354ad3a41620003b160201b60201c565b1115620007f55773a2998efd205fb9d4b4963afb70778d6354ad3a41600260006101000a81548173ffffffffffffffffffffffffffffffffffffffff021916908373ffffffffffffffffffffffffffffffffffffffff160217905550620007eb6040518060400160405280600a81526020017f6574685f676f65726c6900000000000000000000000000000000000000000000815250620009a460201b60201c565b60019050620009a1565b60006200081c736f485c8bf6fc43ea212e93bbf8ce046c7f1cb475620003b160201b60201c565b11156200088257736f485c8bf6fc43ea212e93bbf8ce046c7f1cb475600260006101000a81548173ffffffffffffffffffffffffffffffffffffffff021916908373ffffffffffffffffffffffffffffffffffffffff16021790555060019050620009a1565b6000620008a97320e12a1f859b3feae5fb2a0a32c18f5a65555bbf620003b160201b60201c565b11156200090f577320e12a1f859b3feae5fb2a0a32c18f5a65555bbf600260006101000a81548173ffffffffffffffffffffffffffffffffffffffff021916908373ffffffffffffffffffffffffffffffffffffffff16021790555060019050620009a1565b6000620009367351efaf4c8b3c9afbd5ab9f4bbc82784ab6ef8faa620003b160201b60201c565b11156200099c577351efaf4c8b3c9afbd5ab9f4bbc82784ab6ef8faa600260006101000a81548173ffffffffffffffffffffffffffffffffffffffff021916908373ffffffffffffffffffffffffffffffffffffffff16021790555060019050620009a1565b600090505b90565b8060039080519060200190620009bc929190620009c0565b5050565b828054600181600116156101000203166002900490600052602060002090601f016020900481019282601f1062000a0357805160ff191683800117855562000a34565b8280016001018555821562000a34579182015b8281111562000a3357825182559160200191906001019062000a16565b5b50905062000a43919062000a47565b5090565b5b8082111562000a6257600081600090555060010162000a48565b5090565b612ce98062000a766000396000f3fe6080604052600436106100915760003560e01c80638da5cb5b116100595780638da5cb5b1461039c578063a2e62045146103dd578063bd097e21146103e7578063dc34b0aa14610405578063e437786d1461043057610091565b806312065fe01461009657806327dc297e146100c1578063303b2f4b1461019357806338bbfa50146102085780635fd8c71014610371575b600080fd5b3480156100a257600080fd5b506100ab610497565b6040518082815260200191505060405180910390f35b3480156100cd57600080fd5b50610191600480360360408110156100e457600080fd5b81019080803590602001909291908035906020019064010000000081111561010b57600080fd5b82018360208201111561011d57600080fd5b8035906020019184600183028401116401000000008311171561013f57600080fd5b91908080601f016020809104026020016040519081016040528093929190818152602001838380828437600081840152601f19601f82011690508083019250505050505050919291929050505061049f565b005b34801561019f57600080fd5b506101cc600480360360208110156101b657600080fd5b81019080803590602001909291905050506104f9565b604051808473ffffffffffffffffffffffffffffffffffffffff1681526020018381526020018215158152602001935050505060405180910390f35b34801561021457600080fd5b5061036f6004803603606081101561022b57600080fd5b81019080803590602001909291908035906020019064010000000081111561025257600080fd5b82018360208201111561026457600080fd5b8035906020019184600183028401116401000000008311171561028657600080fd5b91908080601f016020809104026020016040519081016040528093929190818152602001838380828437600081840152601f19601f820116905080830192505050505050509192919290803590602001906401000000008111156102e957600080fd5b8201836020820111156102fb57600080fd5b8035906020019184600183028401116401000000008311171561031d57600080fd5b91908080601f016020809104026020016040519081016040528093929190818152602001838380828437600081840152601f19601f820116905080830192505050505050509192919290505050610550565b005b34801561037d57600080fd5b50610386610832565b6040518082815260200191505060405180910390f35b3480156103a857600080fd5b506103b16108e4565b604051808273ffffffffffffffffffffffffffffffffffffffff16815260200191505060405180910390f35b6103e5610908565b005b6103ef610b9b565b6040518082815260200191505060405180910390f35b34801561041157600080fd5b5061041a610c1b565b6040518082815260200191505060405180910390f35b34801561043c57600080fd5b5061047f6004803603602081101561045357600080fd5b81019080803573ffffffffffffffffffffffffffffffffffffffff169060200190929190505050610c21565b60405180821515815260200191505060405180910390f35b600047905090565b6104f58282600067ffffffffffffffff811180156104bc57600080fd5b506040519080825280601f01601f1916602001820160405280156104ef5781602001600182028036833780820191505090505b50610550565b5050565b60086020528060005260406000206000915090508060000160009054906101000a900473ffffffffffffffffffffffffffffffffffffffff16908060010154908060020160009054906101000a900460ff16905083565b610558610c41565b73ffffffffffffffffffffffffffffffffffffffff163373ffffffffffffffffffffffffffffffffffffffff161461058f57600080fd5b60006002836040516020018082805190602001908083835b602083106105ca57805182526020820191506020810190506020830392506105a7565b6001836020036101000a0380198251168184511680821785525050505050509050019150506040516020818303038152906040528051906020012060001c8161060f57fe5b0690508060068190555060008114156106565760006008600086815260200190815260200160002060020160006101000a81548160ff021916908315150217905550610726565b60018114156107255760016008600086815260200190815260200160002060020160006101000a81548160ff0219169083151502179055506008600085815260200190815260200160002060000160009054906101000a900473ffffffffffffffffffffffffffffffffffffffff1673ffffffffffffffffffffffffffffffffffffffff166108fc60026008600088815260200190815260200160002060010154029081150290604051600060405180830381858888f19350505050158015610723573d6000803e3d6000fd5b505b5b7fc13d60fe9dffdb6908d2d446cd18134373a51db0738ee04f296eeb9128121cbc816040518082815260200191505060405180910390a16008600085815260200190815260200160002060000160009054906101000a900473ffffffffffffffffffffffffffffffffffffffff1673ffffffffffffffffffffffffffffffffffffffff167f6938cbf453af775aeb0f0d1c25d85e2b060360487baf9892b54261adcb6b2d318560086000888152602001908152602001600020600101546008600089815260200190815260200160002060020160009054906101000a900460ff16604051808481526020018381526020018215158152602001935050505060405180910390a250505050565b60008060009054906101000a900473ffffffffffffffffffffffffffffffffffffffff1673ffffffffffffffffffffffffffffffffffffffff163373ffffffffffffffffffffffffffffffffffffffff161461088d57600080fd5b3373ffffffffffffffffffffffffffffffffffffffff166108fc479081150290604051600060405180830381858888f193505050501580156108d3573d6000803e3d6000fd5b50600047146108de57fe5b47905090565b60008054906101000a900473ffffffffffffffffffffffffffffffffffffffff1681565b600080621e8480905060001515600960003373ffffffffffffffffffffffffffffffffffffffff1673ffffffffffffffffffffffffffffffffffffffff16815260200190815260200160002060009054906101000a900460ff1615151461096e57600080fd5b6001600960003373ffffffffffffffffffffffffffffffffffffffff1673ffffffffffffffffffffffffffffffffffffffff16815260200190815260200160002060006101000a81548160ff0219169083151502179055506109d282600183610f63565b60078190555060405180606001604052803373ffffffffffffffffffffffffffffffffffffffff1681526020013481526020016000151581525060086000600754815260200190815260200160002060008201518160000160006101000a81548173ffffffffffffffffffffffffffffffffffffffff021916908373ffffffffffffffffffffffffffffffffffffffff1602179055506020820151816001015560408201518160020160006101000a81548160ff0219169083151502179055509050507fc4dc360d0a9c0677a3379ae0a3d81e887f761e65fdf3d7e00859d1bcd3c47389604051808060200182810382526033815260200180612c816033913960400191505060405180910390a17f316cb9f11c75b7d2d81673c1d2e668c3811a7a5f3f8e98851b33a41f990f932b3360075434604051808473ffffffffffffffffffffffffffffffffffffffff168152602001838152602001828152602001935050505060405180910390a16000600960003373ffffffffffffffffffffffffffffffffffffffff1673ffffffffffffffffffffffffffffffffffffffff16815260200190815260200160002060006101000a81548160ff0219169083151502179055505050565b60006509184e72a00080341015610bb157600080fd5b6000341415610bbf57600080fd5b7fed7d0ddcc17abdb3935a0a23cd93e91b449dfeac7fd0def9f481ed5b37e18c4d3334604051808373ffffffffffffffffffffffffffffffffffffffff1681526020018281526020019250505060405180910390a13491505090565b60065481565b60096020528060005260406000206000915054906101000a900460ff1681565b60008073ffffffffffffffffffffffffffffffffffffffff16600260009054906101000a900473ffffffffffffffffffffffffffffffffffffffff1673ffffffffffffffffffffffffffffffffffffffff161480610cc957506000610cc7600260009054906101000a900473ffffffffffffffffffffffffffffffffffffffff16611588565b145b15610cda57610cd86000611593565b505b600260009054906101000a900473ffffffffffffffffffffffffffffffffffffffff1673ffffffffffffffffffffffffffffffffffffffff166338cc48316040518163ffffffff1660e01b8152600401602060405180830381600087803b158015610d4457600080fd5b505af1158015610d58573d6000803e3d6000fd5b505050506040513d6020811015610d6e57600080fd5b810190808051906020019092919050505073ffffffffffffffffffffffffffffffffffffffff16600160009054906101000a900473ffffffffffffffffffffffffffffffffffffffff1673ffffffffffffffffffffffffffffffffffffffff1614610eb957600260009054906101000a900473ffffffffffffffffffffffffffffffffffffffff1673ffffffffffffffffffffffffffffffffffffffff166338cc48316040518163ffffffff1660e01b8152600401602060405180830381600087803b158015610e3d57600080fd5b505af1158015610e51573d6000803e3d6000fd5b505050506040513d6020811015610e6757600080fd5b8101908080519060200190929190505050600160006101000a81548173ffffffffffffffffffffffffffffffffffffffff021916908373ffffffffffffffffffffffffffffffffffffffff1602179055505b600160009054906101000a900473ffffffffffffffffffffffffffffffffffffffff1673ffffffffffffffffffffffffffffffffffffffff1663c281d19e6040518163ffffffff1660e01b8152600401602060405180830381600087803b158015610f2357600080fd5b505af1158015610f37573d6000803e3d6000fd5b505050506040513d6020811015610f4d57600080fd5b8101908080519060200190929190505050905090565b60008083118015610f75575060208311155b610f7e57600080fd5b600a840293506060600167ffffffffffffffff81118015610f9e57600080fd5b506040519080825280601f01601f191660200182016040528015610fd15781602001600182028036833780820191505090505b5090508360f81b81600081518110610fe557fe5b60200101907effffffffffffffffffffffffffffffffffffffffffffffffffffffffffffff1916908160001a9053506060602067ffffffffffffffff8111801561102e57600080fd5b506040519080825280601f01601f1916602001820160405280156110615781602001600182028036833780820191505090505b5090506060602067ffffffffffffffff8111801561107e57600080fd5b506040519080825280601f01601f1916602001820160405280156110b15781602001600182028036833780820191505090505b50905060006110be6115a4565b9050602083524241186001430340186020840152602082528060208301526060602067ffffffffffffffff811180156110f657600080fd5b506040519080825280601f01601f1916602001820160405280156111295781602001600182028036833780820191505090505b5090508860208201526060600867ffffffffffffffff8111801561114c57600080fd5b506040519080825280601f01601f19166020018201604052801561117f5781602001600182028036833780820191505090505b50905061119282601860088460006118c4565b5061119b612ba2565b604051806080016040528087815260200188815260200186815260200184815250905060006112006040518060400160405280600681526020017f72616e646f6d0000000000000000000000000000000000000000000000000000815250838c611923565b90506060600867ffffffffffffffff8111801561121c57600080fd5b506040519080825280601f01601f19166020018201604052801561124f5781602001600182028036833780820191505090505b50905060208401517f0100000000000000000000000000000000000000000000000000000000000000810460278301537e01000000000000000000000000000000000000000000000000000000000000810460268301537d010000000000000000000000000000000000000000000000000000000000810460258301537c0100000000000000000000000000000000000000000000000000000000810460248301537b01000000000000000000000000000000000000000000000000000000810460238301537a01000000000000000000000000000000000000000000000000000081046022830153790100000000000000000000000000000000000000000000000000810460218301537801000000000000000000000000000000000000000000000000810460208301535061157582828560016004811061138e57fe5b60200201516002876000600481106113a257fe5b60200201516040518082805190602001908083835b602083106113da57805182526020820191506020810190506020830392506113b7565b6001836020036101000a038019825116818451168082178552505050505050905001915050602060405180830381855afa15801561141c573d6000803e3d6000fd5b5050506040513d602081101561143157600080fd5b81019080805190602001909291905050508760026004811061144f57fe5b60200201516040516020018085805190602001908083835b6020831061148a5780518252602082019150602081019050602083039250611467565b6001836020036101000a03801982511681845116808217855250505050505090500184805190602001908083835b602083106114db57805182526020820191506020810190506020830392506114b8565b6001836020036101000a03801982511681845116808217855250505050505090500183815260200182805190602001908083835b60208310611532578051825260208201915060208101905060208303925061150f565b6001836020036101000a03801982511681845116808217855250505050505090500194505050505060405160208183030381529060405280519060200120611ca9565b8199505050505050505050509392505050565b6000813b9050919050565b600061159d611cc5565b9050919050565b60008073ffffffffffffffffffffffffffffffffffffffff16600260009054906101000a900473ffffffffffffffffffffffffffffffffffffffff1673ffffffffffffffffffffffffffffffffffffffff16148061162c5750600061162a600260009054906101000a900473ffffffffffffffffffffffffffffffffffffffff16611588565b145b1561163d5761163b6000611593565b505b600260009054906101000a900473ffffffffffffffffffffffffffffffffffffffff1673ffffffffffffffffffffffffffffffffffffffff166338cc48316040518163ffffffff1660e01b8152600401602060405180830381600087803b1580156116a757600080fd5b505af11580156116bb573d6000803e3d6000fd5b505050506040513d60208110156116d157600080fd5b810190808051906020019092919050505073ffffffffffffffffffffffffffffffffffffffff16600160009054906101000a900473ffffffffffffffffffffffffffffffffffffffff1673ffffffffffffffffffffffffffffffffffffffff161461181c57600260009054906101000a900473ffffffffffffffffffffffffffffffffffffffff1673ffffffffffffffffffffffffffffffffffffffff166338cc48316040518163ffffffff1660e01b8152600401602060405180830381600087803b1580156117a057600080fd5b505af11580156117b4573d6000803e3d6000fd5b505050506040513d60208110156117ca57600080fd5b8101908080519060200190929190505050600160006101000a81548173ffffffffffffffffffffffffffffffffffffffff021916908373ffffffffffffffffffffffffffffffffffffffff1602179055505b600160009054906101000a900473ffffffffffffffffffffffffffffffffffffffff1673ffffffffffffffffffffffffffffffffffffffff1663abaa5f3e6040518163ffffffff1660e01b815260040160206040518083038186803b15801561188457600080fd5b505afa158015611898573d6000803e3d6000fd5b505050506040513d60208110156118ae57600080fd5b8101908080519060200190929190505050905090565b60606000828501905080845110156118db57600080fd5b600086602001905060008460200190505b86886020010182101561191457818901518082880152506020820191506020810190506118ec565b85935050505095945050505050565b60008073ffffffffffffffffffffffffffffffffffffffff16600260009054906101000a900473ffffffffffffffffffffffffffffffffffffffff1673ffffffffffffffffffffffffffffffffffffffff1614806119ab575060006119a9600260009054906101000a900473ffffffffffffffffffffffffffffffffffffffff16611588565b145b156119bc576119ba6000611593565b505b600260009054906101000a900473ffffffffffffffffffffffffffffffffffffffff1673ffffffffffffffffffffffffffffffffffffffff166338cc48316040518163ffffffff1660e01b8152600401602060405180830381600087803b158015611a2657600080fd5b505af1158015611a3a573d6000803e3d6000fd5b505050506040513d6020811015611a5057600080fd5b810190808051906020019092919050505073ffffffffffffffffffffffffffffffffffffffff16600160009054906101000a900473ffffffffffffffffffffffffffffffffffffffff1673ffffffffffffffffffffffffffffffffffffffff1614611b9b57600260009054906101000a900473ffffffffffffffffffffffffffffffffffffffff1673ffffffffffffffffffffffffffffffffffffffff166338cc48316040518163ffffffff1660e01b8152600401602060405180830381600087803b158015611b1f57600080fd5b505af1158015611b33573d6000803e3d6000fd5b505050506040513d6020811015611b4957600080fd5b8101908080519060200190929190505050600160006101000a81548173ffffffffffffffffffffffffffffffffffffffff021916908373ffffffffffffffffffffffffffffffffffffffff1602179055505b6060600467ffffffffffffffff81118015611bb557600080fd5b50604051908082528060200260200182016040528015611be957816020015b6060815260200190600190039081611bd45790505b50905083600060048110611bf957fe5b602002015181600081518110611c0b57fe5b602002602001018190525083600160048110611c2357fe5b602002015181600181518110611c3557fe5b602002602001018190525083600260048110611c4d57fe5b602002015181600281518110611c5f57fe5b602002602001018190525083600360048110611c7757fe5b602002015181600381518110611c8957fe5b6020026020010181905250611c9f85828561221c565b9150509392505050565b8060046000848152602001908152602001600020819055505050565b600080611ce5731d3b2638a7cc9f2cb3d298a3da7a90b67e5506ed611588565b1115611d8757731d3b2638a7cc9f2cb3d298a3da7a90b67e5506ed600260006101000a81548173ffffffffffffffffffffffffffffffffffffffff021916908373ffffffffffffffffffffffffffffffffffffffff160217905550611d7e6040518060400160405280600b81526020017f6574685f6d61696e6e6574000000000000000000000000000000000000000000815250612782565b60019050612219565b6000611da673c03a2615d5efaf5f49f60b7bb6583eaec212fdf1611588565b1115611e485773c03a2615d5efaf5f49f60b7bb6583eaec212fdf1600260006101000a81548173ffffffffffffffffffffffffffffffffffffffff021916908373ffffffffffffffffffffffffffffffffffffffff160217905550611e3f6040518060400160405280600c81526020017f6574685f726f707374656e330000000000000000000000000000000000000000815250612782565b60019050612219565b6000611e6773b7a07bcf2ba2f2703b24c0691b5278999c59ac7e611588565b1115611f095773b7a07bcf2ba2f2703b24c0691b5278999c59ac7e600260006101000a81548173ffffffffffffffffffffffffffffffffffffffff021916908373ffffffffffffffffffffffffffffffffffffffff160217905550611f006040518060400160405280600981526020017f6574685f6b6f76616e0000000000000000000000000000000000000000000000815250612782565b60019050612219565b6000611f2873146500cfd35b22e4a392fe0adc06de1a1368ed48611588565b1115611fca5773146500cfd35b22e4a392fe0adc06de1a1368ed48600260006101000a81548173ffffffffffffffffffffffffffffffffffffffff021916908373ffffffffffffffffffffffffffffffffffffffff160217905550611fc16040518060400160405280600b81526020017f6574685f72696e6b656279000000000000000000000000000000000000000000815250612782565b60019050612219565b6000611fe973a2998efd205fb9d4b4963afb70778d6354ad3a41611588565b111561208b5773a2998efd205fb9d4b4963afb70778d6354ad3a41600260006101000a81548173ffffffffffffffffffffffffffffffffffffffff021916908373ffffffffffffffffffffffffffffffffffffffff1602179055506120826040518060400160405280600a81526020017f6574685f676f65726c6900000000000000000000000000000000000000000000815250612782565b60019050612219565b60006120aa736f485c8bf6fc43ea212e93bbf8ce046c7f1cb475611588565b111561210e57736f485c8bf6fc43ea212e93bbf8ce046c7f1cb475600260006101000a81548173ffffffffffffffffffffffffffffffffffffffff021916908373ffffffffffffffffffffffffffffffffffffffff16021790555060019050612219565b600061212d7320e12a1f859b3feae5fb2a0a32c18f5a65555bbf611588565b1115612191577320e12a1f859b3feae5fb2a0a32c18f5a65555bbf600260006101000a81548173ffffffffffffffffffffffffffffffffffffffff021916908373ffffffffffffffffffffffffffffffffffffffff16021790555060019050612219565b60006121b07351efaf4c8b3c9afbd5ab9f4bbc82784ab6ef8faa611588565b1115612214577351efaf4c8b3c9afbd5ab9f4bbc82784ab6ef8faa600260006101000a81548173ffffffffffffffffffffffffffffffffffffffff021916908373ffffffffffffffffffffffffffffffffffffffff16021790555060019050612219565b600090505b90565b60008073ffffffffffffffffffffffffffffffffffffffff16600260009054906101000a900473ffffffffffffffffffffffffffffffffffffffff1673ffffffffffffffffffffffffffffffffffffffff1614806122a4575060006122a2600260009054906101000a900473ffffffffffffffffffffffffffffffffffffffff16611588565b145b156122b5576122b36000611593565b505b600260009054906101000a900473ffffffffffffffffffffffffffffffffffffffff1673ffffffffffffffffffffffffffffffffffffffff166338cc48316040518163ffffffff1660e01b8152600401602060405180830381600087803b15801561231f57600080fd5b505af1158015612333573d6000803e3d6000fd5b505050506040513d602081101561234957600080fd5b810190808051906020019092919050505073ffffffffffffffffffffffffffffffffffffffff16600160009054906101000a900473ffffffffffffffffffffffffffffffffffffffff1673ffffffffffffffffffffffffffffffffffffffff161461249457600260009054906101000a900473ffffffffffffffffffffffffffffffffffffffff1673ffffffffffffffffffffffffffffffffffffffff166338cc48316040518163ffffffff1660e01b8152600401602060405180830381600087803b15801561241857600080fd5b505af115801561242c573d6000803e3d6000fd5b505050506040513d602081101561244257600080fd5b8101908080519060200190929190505050600160006101000a81548173ffffffffffffffffffffffffffffffffffffffff021916908373ffffffffffffffffffffffffffffffffffffffff1602179055505b6000600160009054906101000a900473ffffffffffffffffffffffffffffffffffffffff1673ffffffffffffffffffffffffffffffffffffffff16632ef3accc86856040518363ffffffff1660e01b81526004018080602001838152602001828103825284818151815260200191508051906020019080838360005b8381101561252b578082015181840152602081019050612510565b50505050905090810190601f1680156125585780820380516001836020036101000a031916815260200191505b509350505050602060405180830381600087803b15801561257857600080fd5b505af115801561258c573d6000803e3d6000fd5b505050506040513d60208110156125a257600080fd5b81019080805190602001909291905050509050823a02670de0b6b3a7640000018111156125d5576000801b91505061277b565b60606125e08561279c565b9050600160009054906101000a900473ffffffffffffffffffffffffffffffffffffffff1673ffffffffffffffffffffffffffffffffffffffff1663c55c1cb68360008985896040518663ffffffff1660e01b8152600401808581526020018060200180602001848152602001838103835286818151815260200191508051906020019080838360005b8381101561268557808201518184015260208101905061266a565b50505050905090810190601f1680156126b25780820380516001836020036101000a031916815260200191505b50838103825285818151815260200191508051906020019080838360005b838110156126eb5780820151818401526020810190506126d0565b50505050905090810190601f1680156127185780820380516001836020036101000a031916815260200191505b5096505050505050506020604051808303818588803b15801561273a57600080fd5b505af115801561274e573d6000803e3d6000fd5b50505050506040513d602081101561276557600080fd5b8101908080519060200190929190505050925050505b9392505050565b8060039080519060200190612798929190612bc9565b5050565b60606127a6612819565b6127ae612c49565b6127ba81610400612825565b6127c38161286f565b60005b8351811015612802576127f58482815181106127de57fe5b60200260200101518361287d90919063ffffffff16565b80806001019150506127c6565b5061280c816128a2565b8060000151915050919050565b60405180590338823950565b600081905060006020828161283657fe5b061461284f576020818161284657fe5b06602003810190505b808360200181815250506040518084526000815281810160405250505050565b61287a8160046128b0565b50565b61288a82600283516128d1565b61289d8183612a1190919063ffffffff16565b505050565b6128ad8160076128b0565b50565b6128cd601f60058360ff16901b1783612abc90919063ffffffff16565b5050565b601781116128fd576128f88160058460ff16901b60ff161784612abc90919063ffffffff16565b612a0c565b60ff811161293e57612922601860058460ff16901b1784612abc90919063ffffffff16565b61293881600185612afc9092919063ffffffff16565b50612a0b565b61ffff811161298057612964601960058460ff16901b1784612abc90919063ffffffff16565b61297a81600285612afc9092919063ffffffff16565b50612a0a565b63ffffffff81116129c4576129a8601a60058460ff16901b1784612abc90919063ffffffff16565b6129be81600485612afc9092919063ffffffff16565b50612a09565b67ffffffffffffffff8111612a08576129f0601b60058460ff16901b1784612abc90919063ffffffff16565b612a0681600885612afc9092919063ffffffff16565b505b5b5b5b5b505050565b612a19612c49565b82602001518360000151518351011115612a4957612a48836002612a4286602001518651612b63565b02612b7f565b5b60008060008451905085518051602081830101945086518101825260208701935050505b60208110612a905781518352602083019250602082019150602081039050612a6d565b60006001826020036101000a039050801983511681855116818117865250508694505050505092915050565b81602001516001836000015151011115612ae257612ae1826002846020015102612b7f565b5b815180516020818301018381536001820183525050505050565b612b04612c49565b836020015184600001515183011115612b3257612b31846002612b2b876020015186612b63565b02612b7f565b5b60006001836101000a0390508451805184818301018684198251161781528582018352505050849150509392505050565b600081831115612b7557829050612b79565b8190505b92915050565b606082600001519050612b928383612825565b612b9c8382612a11565b50505050565b60405180608001604052806004905b6060815260200190600190039081612bb15790505090565b828054600181600116156101000203166002900490600052602060002090601f016020900481019282601f10612c0a57805160ff1916838001178555612c38565b82800160010185558215612c38579182015b82811115612c37578251825591602001919060010190612c1c565b5b509050612c459190612c63565b5090565b604051806040016040528060608152602001600081525090565b5b80821115612c7c576000816000905550600101612c64565b509056fe50726f7661626c65207175657279207761732073656e742c207374616e64696e6720627920666f722074686520616e73776572a264697066735822122075c1559c4c8b626da044a20c011a37ca8981553037bbce7b9bad179da1e0747d64736f6c63430007020033",
  "immutableReferences": {},
  "source": "pragma solidity 0.7.2;\nimport \"./Ownable.sol\";\nimport \"./provableAPI.sol\";\ncontract RandomPT is Ownable, usingProvable{\n    uint256 constant NUM_RANDOM_BYTES_REQUESTED = 1;\n    uint256 public latestNumber;\n    bytes32 queryId;\n    struct Bet {\n        address payable player;\n        uint value;\n        bool result;\n    }\n\n    mapping(bytes32 => Bet) public betting;\n    mapping(address => bool) public waiting;\n\n    event LogNewProvableQuery(string description);\n    event generatedRandomNumber(uint256 randomNumber);\n    event betTaken(address indexed player, bytes32 Id, uint value, bool result);\n\n    event wager(address user, bytes32 queryId, uint value);\n    event funded(address owner, uint funding);\n\n    constructor() public {\n        provable_setProof(proofType_Ledger);\n    }\n\n    function __callback(bytes32 _queryId, string memory _result, bytes memory _proof) public override{\n        require(msg.sender == provable_cbAddress());\n\n        uint256 randomNumber = uint256(keccak256(abi.encodePacked(_result))) % 2;\n        latestNumber = randomNumber;\n\n        if(randomNumber == 0){\n            betting[_queryId].result = false;\n        }else if(randomNumber == 1){\n            betting[_queryId].result = true;\n            betting[_queryId].player.transfer((betting[_queryId].value) * 2);\n        }\n        emit generatedRandomNumber(randomNumber);\n        emit betTaken(betting[_queryId].player, _queryId, betting[_queryId].value, betting[_queryId].result);\n    }\n\n    function update() payable public {\n        uint256 QUERY_EXECUTION_DELAY = 0;\n        uint256 GAS_FOR_CALLBACK = 2000000;\n        require(waiting[msg.sender] == false);\n        waiting[msg.sender] = true;\n        \n        queryId = provable_newRandomDSQuery(\n            QUERY_EXECUTION_DELAY,\n            NUM_RANDOM_BYTES_REQUESTED,\n            GAS_FOR_CALLBACK\n        );\n        betting[queryId] = Bet({player: msg.sender, value: msg.value, result: false});\n        emit LogNewProvableQuery(\"Provable query was sent, standing by for the answer\");\n        emit wager(msg.sender, queryId, msg.value);\n        waiting[msg.sender] = false;\n    }\n\n    modifier costs(uint cost){\n        require(msg.value >= cost);\n        _;\n    }\n\n    function getBalance() public returns (uint) {\n        return address(this).balance;\n    }\n\n     function fundContract() public payable costs(0.00001 ether) returns(uint) {\n        require(msg.value != 0);\n        \n        emit funded(msg.sender, msg.value);\n        return msg.value;\n    }\n\n    function withdrawBalance() public onlyOwner returns (uint) {\n        msg.sender.transfer(address(this).balance);\n        assert(address(this).balance == 0);\n        return address(this).balance;\n    }\n}\n",
  "sourcePath": "/Users/adrianlawson/Documents/IoT/Ethereum-Course-Advanced/CoinFlipDapp_Phase2/contracts/RandomPT.sol",
  "compiler": {
    "name": "solc",
    "version": "0.7.2+commit.51b20bc0.Emscripten.clang"
  },
  "schemaVersion": "3.3.3",
  "updatedAt": "2021-03-02T20:32:34.204Z",
  "devdoc": {
    "kind": "dev",
    "methods": {
      "__callback(bytes32,string)": {
        "details": "The following `__callback` functions are just placeholders ideally      meant to be defined in child contract when proofs are used.      The function bodies simply silence compiler warnings."
      }
    },
    "version": 1
  },
  "userdoc": {
    "kind": "user",
    "methods": {},
    "version": 1
  }
}