{
  "contractName": "Random",
  "abi": [
    {
      "anonymous": false,
      "inputs": [
        {
          "indexed": false,
          "internalType": "address",
          "name": "owner",
          "type": "address"
        },
        {
          "indexed": false,
          "internalType": "uint256",
          "name": "funding",
          "type": "uint256"
        }
      ],
      "name": "funded",
      "type": "event"
    },
    {
      "anonymous": false,
      "inputs": [
        {
          "indexed": false,
          "internalType": "address",
          "name": "user",
          "type": "address"
        },
        {
          "indexed": false,
          "internalType": "uint256",
          "name": "amount",
          "type": "uint256"
        },
        {
          "indexed": false,
          "internalType": "bool",
          "name": "",
          "type": "bool"
        }
      ],
      "name": "wager",
      "type": "event"
    },
    {
      "inputs": [],
      "name": "balance",
      "outputs": [
        {
          "internalType": "uint256",
          "name": "",
          "type": "uint256"
        }
      ],
      "stateMutability": "view",
      "type": "function"
    },
    {
      "inputs": [],
      "name": "owner",
      "outputs": [
        {
          "internalType": "address",
          "name": "",
          "type": "address"
        }
      ],
      "stateMutability": "view",
      "type": "function"
    },
    {
      "inputs": [],
      "name": "winnings",
      "outputs": [
        {
          "internalType": "uint256",
          "name": "",
          "type": "uint256"
        }
      ],
      "stateMutability": "view",
      "type": "function"
    },
    {
      "inputs": [],
      "name": "fundContract",
      "outputs": [
        {
          "internalType": "uint256",
          "name": "",
          "type": "uint256"
        }
      ],
      "stateMutability": "payable",
      "type": "function"
    },
    {
      "inputs": [],
      "name": "placeBet",
      "outputs": [
        {
          "internalType": "bool",
          "name": "",
          "type": "bool"
        }
      ],
      "stateMutability": "payable",
      "type": "function"
    },
    {
      "inputs": [],
      "name": "getBalance",
      "outputs": [
        {
          "internalType": "uint256",
          "name": "",
          "type": "uint256"
        }
      ],
      "stateMutability": "nonpayable",
      "type": "function"
    },
    {
      "inputs": [],
      "name": "withdrawBalance",
      "outputs": [
        {
          "internalType": "uint256",
          "name": "",
          "type": "uint256"
        }
      ],
      "stateMutability": "nonpayable",
      "type": "function"
    },
    {
      "inputs": [],
      "name": "seeWinnings",
      "outputs": [
        {
          "internalType": "uint256",
          "name": "",
          "type": "uint256"
        }
      ],
      "stateMutability": "nonpayable",
      "type": "function"
    }
  ],
  "bytecode": "0x608060405247600155600060025534801561001957600080fd5b50336000806101000a81548173ffffffffffffffffffffffffffffffffffffffff021916908373ffffffffffffffffffffffffffffffffffffffff1602179055506105b1806100696000396000f3fe60806040526004361061007b5760003560e01c8063b69ef8a81161004e578063b69ef8a814610142578063bd097e211461016d578063d134474c1461018b578063f90f4560146101b65761007b565b806312065fe0146100805780633110cce8146100ab5780635fd8c710146100d65780638da5cb5b14610101575b600080fd5b34801561008c57600080fd5b506100956101d6565b6040518082815260200191505060405180910390f35b3480156100b757600080fd5b506100c06101de565b6040518082815260200191505060405180910390f35b3480156100e257600080fd5b506100eb6101e8565b6040518082815260200191505060405180910390f35b34801561010d57600080fd5b5061011661029a565b604051808273ffffffffffffffffffffffffffffffffffffffff16815260200191505060405180910390f35b34801561014e57600080fd5b506101576102be565b6040518082815260200191505060405180910390f35b6101756102c4565b6040518082815260200191505060405180910390f35b34801561019757600080fd5b506101a0610354565b6040518082815260200191505060405180910390f35b6101be61035a565b60405180821515815260200191505060405180910390f35b600047905090565b6000600254905090565b60008060009054906101000a900473ffffffffffffffffffffffffffffffffffffffff1673ffffffffffffffffffffffffffffffffffffffff163373ffffffffffffffffffffffffffffffffffffffff161461024357600080fd5b3373ffffffffffffffffffffffffffffffffffffffff166108fc479081150290604051600060405180830381858888f19350505050158015610289573d6000803e3d6000fd5b506000471461029457fe5b47905090565b60008054906101000a900473ffffffffffffffffffffffffffffffffffffffff1681565b60015481565b60006509184e72a000803410156102da57600080fd5b60003414156102e857600080fd5b7fed7d0ddcc17abdb3935a0a23cd93e91b449dfeac7fd0def9f481ed5b37e18c4d3334604051808373ffffffffffffffffffffffffffffffffffffffff1681526020018281526020019250505060405180910390a1346001600082825401925050819055503491505090565b60025481565b600066038d7ea4c680008034101561037157600080fd5b6002340260015410156103ec576040517f08c379a00000000000000000000000000000000000000000000000000000000081526004018080602001828103825260208152602001807f4e6f7420656e6f7567682066756e647320696e2074686520636f6e747261637481525060200191505060405180910390fd5b600080600242816103f957fe5b0614156104095760019050610422565b60016002428161041557fe5b06141561042157600090505b5b7f8a6b033d5b9144edef3c427fcd3bcf4bc09fee84dc559360150584622594a63b333483604051808473ffffffffffffffffffffffffffffffffffffffff1681526020018381526020018215158152602001935050505060405180910390a1600115158115151415610503573373ffffffffffffffffffffffffffffffffffffffff166108fc600234029081150290604051600060405180830381858888f193505050501580156104d7573d6000803e3d6000fd5b506002340260026000828254019250508190555060023402600160008282540392505081905550610514565b346001600082825401925050819055505b7f8a6b033d5b9144edef3c427fcd3bcf4bc09fee84dc559360150584622594a63b333483604051808473ffffffffffffffffffffffffffffffffffffffff1681526020018381526020018215158152602001935050505060405180910390a180925050509056fea2646970667358221220aff676ab4cf974ceca6a216f36c45edf440d0b23e73b6d34f9f6cda12e2038bb64736f6c63430007020033",
  "immutableReferences": {},
  "source": "pragma solidity 0.7.2;\nimport \"./Ownable.sol\";\ncontract Random is Ownable{\n\n    uint public balance = address(this).balance;\n    uint public winnings = 0;\n\n    event wager(address user, uint amount, bool);\n    event funded(address owner, uint funding);\n\n    modifier costs(uint cost){\n        require(msg.value >= cost);\n        _;\n    }\n\n    function fundContract() public payable costs(0.00001 ether) returns(uint) {\n        require(msg.value != 0);\n        \n        emit funded(msg.sender, msg.value);\n        balance += msg.value;\n        return msg.value;\n    }\n    \n    function placeBet() public payable costs(0.001 ether) returns (bool){\n        require(balance >= msg.value * 2, \"Not enough funds in the contract\");\n        \n        bool result;\n\n        if((block.timestamp % 2) == 0) {\n            result = true;\n        }else if(block.timestamp % 2 == 1) {\n            result = false;\n        }\n        emit wager(msg.sender, msg.value, result);\n        if(result == true){\n            msg.sender.transfer(msg.value * 2);\n            winnings += msg.value * 2;\n            balance -= msg.value * 2;\n        }else {\n            balance += msg.value;\n        }\n        emit wager(msg.sender, msg.value, result);\n        return result;\n    }\n\n    function getBalance() public returns (uint) {\n        return address(this).balance;\n    }\n\n\n    function withdrawBalance() public onlyOwner returns (uint) {\n        msg.sender.transfer(address(this).balance);\n        assert(address(this).balance == 0);\n        return address(this).balance;\n    }\n\n    function seeWinnings() public returns (uint) {\n        return winnings;\n    }\n}\n",
  "sourcePath": "/Users/adrianlawson/Documents/IoT/Ethereum-Course-Advanced/sudo-random-dapp/contracts/Random.sol",
  "compiler": {
    "name": "solc",
    "version": "0.7.2+commit.51b20bc0.Emscripten.clang"
  },
  "schemaVersion": "3.3.3",
  "updatedAt": "2021-03-02T20:33:52.184Z",
  "devdoc": {
    "kind": "dev",
    "methods": {},
    "version": 1
  },
  "userdoc": {
    "kind": "user",
    "methods": {},
    "version": 1
  }
}