{
  "contractName": "Random",
  "abi": [
    {
      "anonymous": false,
      "inputs": [
        {
          "indexed": false,
          "internalType": "address",
          "name": "owner",
          "type": "address"
        },
        {
          "indexed": false,
          "internalType": "uint256",
          "name": "funding",
          "type": "uint256"
        }
      ],
      "name": "funded",
      "type": "event"
    },
    {
      "anonymous": false,
      "inputs": [
        {
          "indexed": false,
          "internalType": "address",
          "name": "user",
          "type": "address"
        },
        {
          "indexed": false,
          "internalType": "uint256",
          "name": "amount",
          "type": "uint256"
        },
        {
          "indexed": false,
          "internalType": "bool",
          "name": "",
          "type": "bool"
        }
      ],
      "name": "wager",
      "type": "event"
    },
    {
      "constant": true,
      "inputs": [],
      "name": "balance",
      "outputs": [
        {
          "internalType": "uint256",
          "name": "",
          "type": "uint256"
        }
      ],
      "payable": false,
      "stateMutability": "view",
      "type": "function"
    },
    {
      "constant": true,
      "inputs": [],
      "name": "owner",
      "outputs": [
        {
          "internalType": "address",
          "name": "",
          "type": "address"
        }
      ],
      "payable": false,
      "stateMutability": "view",
      "type": "function"
    },
    {
      "constant": true,
      "inputs": [],
      "name": "winnings",
      "outputs": [
        {
          "internalType": "uint256",
          "name": "",
          "type": "uint256"
        }
      ],
      "payable": false,
      "stateMutability": "view",
      "type": "function"
    },
    {
      "constant": false,
      "inputs": [],
      "name": "fundContract",
      "outputs": [
        {
          "internalType": "uint256",
          "name": "",
          "type": "uint256"
        }
      ],
      "payable": true,
      "stateMutability": "payable",
      "type": "function"
    },
    {
      "constant": false,
      "inputs": [
        {
          "internalType": "uint256",
          "name": "_guess",
          "type": "uint256"
        }
      ],
      "name": "placeBet",
      "outputs": [
        {
          "internalType": "bool",
          "name": "",
          "type": "bool"
        }
      ],
      "payable": true,
      "stateMutability": "payable",
      "type": "function"
    },
    {
      "constant": false,
      "inputs": [],
      "name": "getBalance",
      "outputs": [
        {
          "internalType": "uint256",
          "name": "",
          "type": "uint256"
        }
      ],
      "payable": false,
      "stateMutability": "nonpayable",
      "type": "function"
    },
    {
      "constant": false,
      "inputs": [],
      "name": "withdrawBalance",
      "outputs": [
        {
          "internalType": "uint256",
          "name": "",
          "type": "uint256"
        }
      ],
      "payable": false,
      "stateMutability": "nonpayable",
      "type": "function"
    }
  ],
  "bytecode": "0x60806040523073ffffffffffffffffffffffffffffffffffffffff16316001556000600255336000806101000a81548173ffffffffffffffffffffffffffffffffffffffff021916908373ffffffffffffffffffffffffffffffffffffffff1602179055506105b1806100736000396000f3fe6080604052600436106100705760003560e01c80638da5cb5b1161004e5780638da5cb5b14610111578063b69ef8a814610168578063bd097e2114610193578063d134474c146101b157610070565b806310fe7c481461007557806312065fe0146100bb5780635fd8c710146100e6575b600080fd5b6100a16004803603602081101561008b57600080fd5b81019080803590602001909291905050506101dc565b604051808215151515815260200191505060405180910390f35b3480156100c757600080fd5b506100d06103a8565b6040518082815260200191505060405180910390f35b3480156100f257600080fd5b506100fb6103c7565b6040518082815260200191505060405180910390f35b34801561011d57600080fd5b506101266104a5565b604051808273ffffffffffffffffffffffffffffffffffffffff1673ffffffffffffffffffffffffffffffffffffffff16815260200191505060405180910390f35b34801561017457600080fd5b5061017d6104ca565b6040518082815260200191505060405180910390f35b61019b6104d0565b6040518082815260200191505060405180910390f35b3480156101bd57600080fd5b506101c6610576565b6040518082815260200191505060405180910390f35b600066038d7ea4c68000803410156101f357600080fd5b60023402600154101561026e576040517f08c379a00000000000000000000000000000000000000000000000000000000081526004018080602001828103825260208152602001807f4e6f7420656e6f7567682066756e647320696e2074686520636f6e747261637481525060200191505060405180910390fd5b6000836002428161027b57fe5b06141561028b5760019050610290565b600090505b7f8a6b033d5b9144edef3c427fcd3bcf4bc09fee84dc559360150584622594a63b333483604051808473ffffffffffffffffffffffffffffffffffffffff1673ffffffffffffffffffffffffffffffffffffffff16815260200183815260200182151515158152602001935050505060405180910390a160011515811515141561038d573373ffffffffffffffffffffffffffffffffffffffff166108fc600234029081150290604051600060405180830381858888f1935050505015801561035d573d6000803e3d6000fd5b506002340260026000828254019250508190555060023402600160008282540392505081905550809250506103a2565b34600160008282540192505081905550809250505b50919050565b60003073ffffffffffffffffffffffffffffffffffffffff1631905090565b60008060009054906101000a900473ffffffffffffffffffffffffffffffffffffffff1673ffffffffffffffffffffffffffffffffffffffff163373ffffffffffffffffffffffffffffffffffffffff161461042257600080fd5b3373ffffffffffffffffffffffffffffffffffffffff166108fc3073ffffffffffffffffffffffffffffffffffffffff16319081150290604051600060405180830381858888f1935050505015801561047f573d6000803e3d6000fd5b5060006001819055503073ffffffffffffffffffffffffffffffffffffffff1631905090565b6000809054906101000a900473ffffffffffffffffffffffffffffffffffffffff1681565b60015481565b60006509184e72a000803410156104e657600080fd5b60003414156104f457600080fd5b7fed7d0ddcc17abdb3935a0a23cd93e91b449dfeac7fd0def9f481ed5b37e18c4d3334604051808373ffffffffffffffffffffffffffffffffffffffff1673ffffffffffffffffffffffffffffffffffffffff1681526020018281526020019250505060405180910390a1346001600082825401925050819055503491505090565b6002548156fea265627a7a723158204e975da6d1a0d20a8426511269584994d2309e366fc87d3ef8aab2474786980364736f6c634300050c0032",
  "source": "pragma solidity 0.5.12;\nimport \"./Ownable.sol\";\ncontract Random is Ownable{\nuint public balance = address(this).balance;\n    event wager(address user, uint amount, bool);\n    event funded(address owner, uint funding);\n    uint public winnings = 0;\n    \n    \n    // function random() public view returns (uint) {\n    //     return now % 2;\n    // }\n\n    modifier costs(uint cost){\n        require(msg.value >= cost);\n        _;\n    }\n\n    function fundContract() public payable costs(0.00001 ether) returns(uint) {\n        require(msg.value != 0);\n        \n        emit funded(msg.sender, msg.value);\n        balance += msg.value;\n        return msg.value;\n    }\n    \n    function placeBet(uint _guess) public payable costs(0.001 ether) returns (bool){\n        require(balance >= msg.value * 2, \"Not enough funds in the contract\");\n        \n        bool result;\n\n        if((block.timestamp % 2) == _guess) {\n            result = true;\n        }else{\n            result = false;\n        }\n        emit wager(msg.sender, msg.value, result);\n        if(result == true){\n            msg.sender.transfer(msg.value * 2);\n            winnings += msg.value * 2;\n            balance -= msg.value * 2;\n            return result;\n        }else {\n            balance += msg.value;\n            return result;\n        }\n\n    }\n\n    function getBalance() public returns (uint) {\n        return address(this).balance;\n    }\n\n\n    function withdrawBalance() public onlyOwner returns (uint) {\n        msg.sender.transfer(address(this).balance);\n        balance =0;\n        return address(this).balance;\n    }\n}\n",
  "sourcePath": "/Users/adrianlawson/Documents/IoT/Ethereum-Course-Advanced/sudo-random-dapp/contracts/Random.sol",
  "compiler": {
    "name": "solc",
    "version": "0.5.12+commit.7709ece9.Emscripten.clang"
  },
  "schemaVersion": "3.3.3",
  "updatedAt": "2021-02-11T15:39:09.187Z",
  "networkType": "ethereum",
  "devdoc": {
    "methods": {}
  },
  "userdoc": {
    "methods": {}
  }
}