{
  "contractName": "RandomP2",
  "abi": [
    {
      "inputs": [],
      "stateMutability": "nonpayable",
      "type": "constructor"
    },
    {
      "anonymous": false,
      "inputs": [
        {
          "indexed": false,
          "internalType": "string",
          "name": "description",
          "type": "string"
        }
      ],
      "name": "LogNewProvableQuery",
      "type": "event"
    },
    {
      "anonymous": false,
      "inputs": [
        {
          "indexed": false,
          "internalType": "address",
          "name": "owner",
          "type": "address"
        },
        {
          "indexed": false,
          "internalType": "uint256",
          "name": "funding",
          "type": "uint256"
        }
      ],
      "name": "funded",
      "type": "event"
    },
    {
      "anonymous": false,
      "inputs": [
        {
          "indexed": false,
          "internalType": "uint256",
          "name": "randomNumber",
          "type": "uint256"
        }
      ],
      "name": "generatedRandomNumber",
      "type": "event"
    },
    {
      "anonymous": false,
      "inputs": [
        {
          "indexed": false,
          "internalType": "address",
          "name": "user",
          "type": "address"
        },
        {
          "indexed": false,
          "internalType": "uint256",
          "name": "amount",
          "type": "uint256"
        },
        {
          "indexed": false,
          "internalType": "bool",
          "name": "",
          "type": "bool"
        }
      ],
      "name": "wager",
      "type": "event"
    },
    {
      "inputs": [],
      "name": "latestNumber",
      "outputs": [
        {
          "internalType": "uint256",
          "name": "",
          "type": "uint256"
        }
      ],
      "stateMutability": "view",
      "type": "function"
    },
    {
      "inputs": [],
      "name": "owner",
      "outputs": [
        {
          "internalType": "address",
          "name": "",
          "type": "address"
        }
      ],
      "stateMutability": "view",
      "type": "function"
    },
    {
      "inputs": [
        {
          "internalType": "bytes32",
          "name": "_myid",
          "type": "bytes32"
        },
        {
          "internalType": "string",
          "name": "_result",
          "type": "string"
        }
      ],
      "name": "__callback",
      "outputs": [],
      "stateMutability": "nonpayable",
      "type": "function"
    },
    {
      "inputs": [
        {
          "internalType": "bytes32",
          "name": "_queryId",
          "type": "bytes32"
        },
        {
          "internalType": "string",
          "name": "_result",
          "type": "string"
        },
        {
          "internalType": "bytes",
          "name": "_proof",
          "type": "bytes"
        }
      ],
      "name": "__callback",
      "outputs": [],
      "stateMutability": "nonpayable",
      "type": "function"
    },
    {
      "inputs": [],
      "name": "update",
      "outputs": [],
      "stateMutability": "payable",
      "type": "function"
    },
    {
      "inputs": [],
      "name": "fundContract",
      "outputs": [
        {
          "internalType": "uint256",
          "name": "",
          "type": "uint256"
        }
      ],
      "stateMutability": "payable",
      "type": "function"
    },
    {
      "inputs": [],
      "name": "placeBet",
      "outputs": [
        {
          "internalType": "bool",
          "name": "",
          "type": "bool"
        }
      ],
      "stateMutability": "payable",
      "type": "function"
    },
    {
      "inputs": [],
      "name": "getBalance",
      "outputs": [
        {
          "internalType": "uint256",
          "name": "",
          "type": "uint256"
        }
      ],
      "stateMutability": "nonpayable",
      "type": "function"
    },
    {
      "inputs": [],
      "name": "withdrawBalance",
      "outputs": [
        {
          "internalType": "uint256",
          "name": "",
          "type": "uint256"
        }
      ],
      "stateMutability": "nonpayable",
      "type": "function"
    }
  ],
  "bytecode": "0x60806040523480156200001157600080fd5b50336000806101000a81548173ffffffffffffffffffffffffffffffffffffffff021916908373ffffffffffffffffffffffffffffffffffffffff160217905550620000626200006860201b60201c565b6200202b565b6000806404a817c80090506200008782600183620000d860201b60201c565b507fc4dc360d0a9c0677a3379ae0a3d81e887f761e65fdf3d7e00859d1bcd3c47389604051808060200182810382526033815260200180620049c76033913960400191505060405180910390a15050565b60008083118015620000eb575060208311155b620000f557600080fd5b600a840293506060600167ffffffffffffffff811180156200011657600080fd5b506040519080825280601f01601f1916602001820160405280156200014a5781602001600182028036833780820191505090505b5090508360f81b816000815181106200015f57fe5b60200101907effffffffffffffffffffffffffffffffffffffffffffffffffffffffffffff1916908160001a9053506060602067ffffffffffffffff81118015620001a957600080fd5b506040519080825280601f01601f191660200182016040528015620001dd5781602001600182028036833780820191505090505b5090506060602067ffffffffffffffff81118015620001fb57600080fd5b506040519080825280601f01601f1916602001820160405280156200022f5781602001600182028036833780820191505090505b5090506000620002446200073b60201b60201c565b9050602083524241186001430340186020840152602082528060208301526060602067ffffffffffffffff811180156200027d57600080fd5b506040519080825280601f01601f191660200182016040528015620002b15781602001600182028036833780820191505090505b5090508860208201526060600867ffffffffffffffff81118015620002d557600080fd5b506040519080825280601f01601f191660200182016040528015620003095781602001600182028036833780820191505090505b50905062000324826018600884600062000a7760201b60201c565b506200032f62001f43565b604051806080016040528087815260200188815260200186815260200184815250905060006200039c6040518060400160405280600681526020017f72616e646f6d0000000000000000000000000000000000000000000000000000815250838c62000ad960201b60201c565b90506060600867ffffffffffffffff81118015620003b957600080fd5b506040519080825280601f01601f191660200182016040528015620003ed5781602001600182028036833780820191505090505b50905060208401517f0100000000000000000000000000000000000000000000000000000000000000810460278301537e01000000000000000000000000000000000000000000000000000000000000810460268301537d010000000000000000000000000000000000000000000000000000000000810460258301537c0100000000000000000000000000000000000000000000000000000000810460248301537b01000000000000000000000000000000000000000000000000000000810460238301537a010000000000000000000000000000000000000000000000000000810460228301537901000000000000000000000000000000000000000000000000008104602183015378010000000000000000000000000000000000000000000000008104602083015350620007288282856001600481106200052e57fe5b60200201516002876000600481106200054357fe5b60200201516040518082805190602001908083835b602083106200057d578051825260208201915060208101905060208303925062000558565b6001836020036101000a038019825116818451168082178552505050505050905001915050602060405180830381855afa158015620005c0573d6000803e3d6000fd5b5050506040513d6020811015620005d657600080fd5b810190808051906020019092919050505087600260048110620005f557fe5b60200201516040516020018085805190602001908083835b602083106200063257805182526020820191506020810190506020830392506200060d565b6001836020036101000a03801982511681845116808217855250505050505090500184805190602001908083835b6020831062000685578051825260208201915060208101905060208303925062000660565b6001836020036101000a03801982511681845116808217855250505050505090500183815260200182805190602001908083835b60208310620006de5780518252602082019150602081019050602083039250620006b9565b6001836020036101000a0380198251168184511680821785525050505050509050019450505050506040516020818303038152906040528051906020012062000e8b60201b60201c565b8199505050505050505050509392505050565b60008073ffffffffffffffffffffffffffffffffffffffff16600260009054906101000a900473ffffffffffffffffffffffffffffffffffffffff1673ffffffffffffffffffffffffffffffffffffffff161480620007cc57506000620007ca600260009054906101000a900473ffffffffffffffffffffffffffffffffffffffff1662000ea760201b60201c565b145b15620007e657620007e4600062000eb260201b60201c565b505b600260009054906101000a900473ffffffffffffffffffffffffffffffffffffffff1673ffffffffffffffffffffffffffffffffffffffff166338cc48316040518163ffffffff1660e01b8152600401602060405180830381600087803b1580156200085157600080fd5b505af115801562000866573d6000803e3d6000fd5b505050506040513d60208110156200087d57600080fd5b810190808051906020019092919050505073ffffffffffffffffffffffffffffffffffffffff16600160009054906101000a900473ffffffffffffffffffffffffffffffffffffffff1673ffffffffffffffffffffffffffffffffffffffff1614620009cc57600260009054906101000a900473ffffffffffffffffffffffffffffffffffffffff1673ffffffffffffffffffffffffffffffffffffffff166338cc48316040518163ffffffff1660e01b8152600401602060405180830381600087803b1580156200094e57600080fd5b505af115801562000963573d6000803e3d6000fd5b505050506040513d60208110156200097a57600080fd5b8101908080519060200190929190505050600160006101000a81548173ffffffffffffffffffffffffffffffffffffffff021916908373ffffffffffffffffffffffffffffffffffffffff1602179055505b600160009054906101000a900473ffffffffffffffffffffffffffffffffffffffff1673ffffffffffffffffffffffffffffffffffffffff1663abaa5f3e6040518163ffffffff1660e01b815260040160206040518083038186803b15801562000a3557600080fd5b505afa15801562000a4a573d6000803e3d6000fd5b505050506040513d602081101562000a6157600080fd5b8101908080519060200190929190505050905090565b606060008285019050808451101562000a8f57600080fd5b600086602001905060008460200190505b86886020010182101562000aca578189015180828801525060208201915060208101905062000aa0565b85935050505095945050505050565b60008073ffffffffffffffffffffffffffffffffffffffff16600260009054906101000a900473ffffffffffffffffffffffffffffffffffffffff1673ffffffffffffffffffffffffffffffffffffffff16148062000b6a5750600062000b68600260009054906101000a900473ffffffffffffffffffffffffffffffffffffffff1662000ea760201b60201c565b145b1562000b845762000b82600062000eb260201b60201c565b505b600260009054906101000a900473ffffffffffffffffffffffffffffffffffffffff1673ffffffffffffffffffffffffffffffffffffffff166338cc48316040518163ffffffff1660e01b8152600401602060405180830381600087803b15801562000bef57600080fd5b505af115801562000c04573d6000803e3d6000fd5b505050506040513d602081101562000c1b57600080fd5b810190808051906020019092919050505073ffffffffffffffffffffffffffffffffffffffff16600160009054906101000a900473ffffffffffffffffffffffffffffffffffffffff1673ffffffffffffffffffffffffffffffffffffffff161462000d6a57600260009054906101000a900473ffffffffffffffffffffffffffffffffffffffff1673ffffffffffffffffffffffffffffffffffffffff166338cc48316040518163ffffffff1660e01b8152600401602060405180830381600087803b15801562000cec57600080fd5b505af115801562000d01573d6000803e3d6000fd5b505050506040513d602081101562000d1857600080fd5b8101908080519060200190929190505050600160006101000a81548173ffffffffffffffffffffffffffffffffffffffff021916908373ffffffffffffffffffffffffffffffffffffffff1602179055505b6060600467ffffffffffffffff8111801562000d8557600080fd5b5060405190808252806020026020018201604052801562000dbb57816020015b606081526020019060019003908162000da55790505b5090508360006004811062000dcc57fe5b60200201518160008151811062000ddf57fe5b60200260200101819052508360016004811062000df857fe5b60200201518160018151811062000e0b57fe5b60200260200101819052508360026004811062000e2457fe5b60200201518160028151811062000e3757fe5b60200260200101819052508360036004811062000e5057fe5b60200201518160038151811062000e6357fe5b602002602001018190525062000e8185828562000ecb60201b60201c565b9150509392505050565b8060046000848152602001908152602001600020819055505050565b6000813b9050919050565b600062000ec46200146360201b60201c565b9050919050565b60008073ffffffffffffffffffffffffffffffffffffffff16600260009054906101000a900473ffffffffffffffffffffffffffffffffffffffff1673ffffffffffffffffffffffffffffffffffffffff16148062000f5c5750600062000f5a600260009054906101000a900473ffffffffffffffffffffffffffffffffffffffff1662000ea760201b60201c565b145b1562000f765762000f74600062000eb260201b60201c565b505b600260009054906101000a900473ffffffffffffffffffffffffffffffffffffffff1673ffffffffffffffffffffffffffffffffffffffff166338cc48316040518163ffffffff1660e01b8152600401602060405180830381600087803b15801562000fe157600080fd5b505af115801562000ff6573d6000803e3d6000fd5b505050506040513d60208110156200100d57600080fd5b810190808051906020019092919050505073ffffffffffffffffffffffffffffffffffffffff16600160009054906101000a900473ffffffffffffffffffffffffffffffffffffffff1673ffffffffffffffffffffffffffffffffffffffff16146200115c57600260009054906101000a900473ffffffffffffffffffffffffffffffffffffffff1673ffffffffffffffffffffffffffffffffffffffff166338cc48316040518163ffffffff1660e01b8152600401602060405180830381600087803b158015620010de57600080fd5b505af1158015620010f3573d6000803e3d6000fd5b505050506040513d60208110156200110a57600080fd5b8101908080519060200190929190505050600160006101000a81548173ffffffffffffffffffffffffffffffffffffffff021916908373ffffffffffffffffffffffffffffffffffffffff1602179055505b6000600160009054906101000a900473ffffffffffffffffffffffffffffffffffffffff1673ffffffffffffffffffffffffffffffffffffffff16632ef3accc86856040518363ffffffff1660e01b81526004018080602001838152602001828103825284818151815260200191508051906020019080838360005b83811015620011f5578082015181840152602081019050620011d8565b50505050905090810190601f168015620012235780820380516001836020036101000a031916815260200191505b509350505050602060405180830381600087803b1580156200124457600080fd5b505af115801562001259573d6000803e3d6000fd5b505050506040513d60208110156200127057600080fd5b81019080805190602001909291905050509050823a02670de0b6b3a764000001811115620012a5576000801b9150506200145c565b6060620012b88562001a3260201b60201c565b9050600160009054906101000a900473ffffffffffffffffffffffffffffffffffffffff1673ffffffffffffffffffffffffffffffffffffffff1663c55c1cb68360008985896040518663ffffffff1660e01b8152600401808581526020018060200180602001848152602001838103835286818151815260200191508051906020019080838360005b838110156200135f57808201518184015260208101905062001342565b50505050905090810190601f1680156200138d5780820380516001836020036101000a031916815260200191505b50838103825285818151815260200191508051906020019080838360005b83811015620013c8578082015181840152602081019050620013ab565b50505050905090810190601f168015620013f65780820380516001836020036101000a031916815260200191505b5096505050505050506020604051808303818588803b1580156200141957600080fd5b505af11580156200142e573d6000803e3d6000fd5b50505050506040513d60208110156200144657600080fd5b8101908080519060200190929190505050925050505b9392505050565b6000806200148b731d3b2638a7cc9f2cb3d298a3da7a90b67e5506ed62000ea760201b60201c565b11156200153757731d3b2638a7cc9f2cb3d298a3da7a90b67e5506ed600260006101000a81548173ffffffffffffffffffffffffffffffffffffffff021916908373ffffffffffffffffffffffffffffffffffffffff1602179055506200152d6040518060400160405280600b81526020017f6574685f6d61696e6e657400000000000000000000000000000000000000000081525062001aea60201b60201c565b6001905062001a2f565b60006200155e73c03a2615d5efaf5f49f60b7bb6583eaec212fdf162000ea760201b60201c565b11156200160a5773c03a2615d5efaf5f49f60b7bb6583eaec212fdf1600260006101000a81548173ffffffffffffffffffffffffffffffffffffffff021916908373ffffffffffffffffffffffffffffffffffffffff160217905550620016006040518060400160405280600c81526020017f6574685f726f707374656e33000000000000000000000000000000000000000081525062001aea60201b60201c565b6001905062001a2f565b60006200163173b7a07bcf2ba2f2703b24c0691b5278999c59ac7e62000ea760201b60201c565b1115620016dd5773b7a07bcf2ba2f2703b24c0691b5278999c59ac7e600260006101000a81548173ffffffffffffffffffffffffffffffffffffffff021916908373ffffffffffffffffffffffffffffffffffffffff160217905550620016d36040518060400160405280600981526020017f6574685f6b6f76616e000000000000000000000000000000000000000000000081525062001aea60201b60201c565b6001905062001a2f565b60006200170473146500cfd35b22e4a392fe0adc06de1a1368ed4862000ea760201b60201c565b1115620017b05773146500cfd35b22e4a392fe0adc06de1a1368ed48600260006101000a81548173ffffffffffffffffffffffffffffffffffffffff021916908373ffffffffffffffffffffffffffffffffffffffff160217905550620017a66040518060400160405280600b81526020017f6574685f72696e6b65627900000000000000000000000000000000000000000081525062001aea60201b60201c565b6001905062001a2f565b6000620017d773a2998efd205fb9d4b4963afb70778d6354ad3a4162000ea760201b60201c565b1115620018835773a2998efd205fb9d4b4963afb70778d6354ad3a41600260006101000a81548173ffffffffffffffffffffffffffffffffffffffff021916908373ffffffffffffffffffffffffffffffffffffffff160217905550620018796040518060400160405280600a81526020017f6574685f676f65726c690000000000000000000000000000000000000000000081525062001aea60201b60201c565b6001905062001a2f565b6000620018aa736f485c8bf6fc43ea212e93bbf8ce046c7f1cb47562000ea760201b60201c565b11156200191057736f485c8bf6fc43ea212e93bbf8ce046c7f1cb475600260006101000a81548173ffffffffffffffffffffffffffffffffffffffff021916908373ffffffffffffffffffffffffffffffffffffffff1602179055506001905062001a2f565b6000620019377320e12a1f859b3feae5fb2a0a32c18f5a65555bbf62000ea760201b60201c565b11156200199d577320e12a1f859b3feae5fb2a0a32c18f5a65555bbf600260006101000a81548173ffffffffffffffffffffffffffffffffffffffff021916908373ffffffffffffffffffffffffffffffffffffffff1602179055506001905062001a2f565b6000620019c47351efaf4c8b3c9afbd5ab9f4bbc82784ab6ef8faa62000ea760201b60201c565b111562001a2a577351efaf4c8b3c9afbd5ab9f4bbc82784ab6ef8faa600260006101000a81548173ffffffffffffffffffffffffffffffffffffffff021916908373ffffffffffffffffffffffffffffffffffffffff1602179055506001905062001a2f565b600090505b90565b606062001a4462001b0660201b60201c565b62001a4e62001f6b565b62001a678161040062001b1260201b620008e41760201c565b62001a7d8162001b5f60201b6200092e1760201c565b60005b835181101562001ac65762001ab884828151811062001a9b57fe5b60200260200101518362001b7560201b6200093c1790919060201c565b808060010191505062001a80565b5062001add8162001ba960201b620009611760201c565b8060000151915050919050565b806003908051906020019062001b0292919062001f85565b5050565b60405180590338823950565b600081905060006020828162001b2457fe5b061462001b3f576020818162001b3657fe5b06602003810190505b808360200181815250506040518084526000815281810160405250505050565b62001b7281600462001bbf60201b60201c565b50565b62001b8a826002835162001be760201b60201c565b62001ba4818362001d6f60201b6200096f1790919060201c565b505050565b62001bbc81600762001bbf60201b60201c565b50565b62001be3601f60058360ff16901b178362001e2f60201b62000a1a1790919060201c565b5050565b6017811162001c1c5762001c168160058460ff16901b60ff16178462001e2f60201b62000a1a1790919060201c565b62001d6a565b60ff811162001c6d5762001c49601860058460ff16901b178462001e2f60201b62000a1a1790919060201c565b62001c668160018562001e7860201b62000a5a179092919060201c565b5062001d69565b61ffff811162001cbf5762001c9b601960058460ff16901b178462001e2f60201b62000a1a1790919060201c565b62001cb88160028562001e7860201b62000a5a179092919060201c565b5062001d68565b63ffffffff811162001d135762001cef601a60058460ff16901b178462001e2f60201b62000a1a1790919060201c565b62001d0c8160048562001e7860201b62000a5a179092919060201c565b5062001d67565b67ffffffffffffffff811162001d665762001d47601b60058460ff16901b178462001e2f60201b62000a1a1790919060201c565b62001d648160088562001e7860201b62000a5a179092919060201c565b505b5b5b5b5b505050565b62001d7962001f6b565b8260200151836000015151835101111562001dba5762001db983600262001dac8660200151865162001ef260201b60201c565b0262001f1060201b60201c565b5b60008060008451905085518051602081830101945086518101825260208701935050505b6020811062001e03578151835260208301925060208201915060208103905062001dde565b60006001826020036101000a039050801983511681855116818117865250508694505050505092915050565b8160200151600183600001515101111562001e5e5762001e5d82600284602001510262001f1060201b60201c565b5b815180516020818301018381536001820183525050505050565b62001e8262001f6b565b83602001518460000151518301111562001ec15762001ec084600262001eb387602001518662001ef260201b60201c565b0262001f1060201b60201c565b5b60006001836101000a0390508451805184818301018684198251161781528582018352505050849150509392505050565b60008183111562001f065782905062001f0a565b8190505b92915050565b60608260000151905062001f2b838362001b1260201b60201c565b62001f3d838262001d6f60201b60201c565b50505050565b60405180608001604052806004905b606081526020019060019003908162001f525790505090565b604051806040016040528060608152602001600081525090565b828054600181600116156101000203166002900490600052602060002090601f016020900481019282601f1062001fc857805160ff191683800117855562001ff9565b8280016001018555821562001ff9579182015b8281111562001ff857825182559160200191906001019062001fdb565b5b5090506200200891906200200c565b5090565b5b80821115620020275760008160009055506001016200200d565b5090565b61298c806200203b6000396000f3fe6080604052600436106100865760003560e01c80638da5cb5b116100595780638da5cb5b1461031c578063a2e620451461035d578063bd097e2114610367578063dc34b0aa14610385578063f90f4560146103b057610086565b806312065fe01461008b57806327dc297e146100b657806338bbfa50146101885780635fd8c710146102f1575b600080fd5b34801561009757600080fd5b506100a06103d0565b6040518082815260200191505060405180910390f35b3480156100c257600080fd5b50610186600480360360408110156100d957600080fd5b81019080803590602001909291908035906020019064010000000081111561010057600080fd5b82018360208201111561011257600080fd5b8035906020019184600183028401116401000000008311171561013457600080fd5b91908080601f016020809104026020016040519081016040528093929190818152602001838380828437600081840152601f19601f8201169050808301925050505050505091929192905050506103d8565b005b34801561019457600080fd5b506102ef600480360360608110156101ab57600080fd5b8101908080359060200190929190803590602001906401000000008111156101d257600080fd5b8201836020820111156101e457600080fd5b8035906020019184600183028401116401000000008311171561020657600080fd5b91908080601f016020809104026020016040519081016040528093929190818152602001838380828437600081840152601f19601f8201169050808301925050505050505091929192908035906020019064010000000081111561026957600080fd5b82018360208201111561027b57600080fd5b8035906020019184600183028401116401000000008311171561029d57600080fd5b91908080601f016020809104026020016040519081016040528093929190818152602001838380828437600081840152601f19601f820116905080830192505050505050509192919290505050610432565b005b3480156102fd57600080fd5b50610306610538565b6040518082815260200191505060405180910390f35b34801561032857600080fd5b506103316105ea565b604051808273ffffffffffffffffffffffffffffffffffffffff16815260200191505060405180910390f35b61036561060e565b005b61036f610675565b6040518082815260200191505060405180910390f35b34801561039157600080fd5b5061039a6106f5565b6040518082815260200191505060405180910390f35b6103b86106fb565b60405180821515815260200191505060405180910390f35b600047905090565b61042e8282600067ffffffffffffffff811180156103f557600080fd5b506040519080825280601f01601f1916602001820160405280156104285781602001600182028036833780820191505090505b50610432565b5050565b61043a610ac1565b73ffffffffffffffffffffffffffffffffffffffff163373ffffffffffffffffffffffffffffffffffffffff161461047157600080fd5b60006002836040516020018082805190602001908083835b602083106104ac5780518252602082019150602081019050602083039250610489565b6001836020036101000a0380198251168184511680821785525050505050509050019150506040516020818303038152906040528051906020012060001c816104f157fe5b069050806006819055507fc13d60fe9dffdb6908d2d446cd18134373a51db0738ee04f296eeb9128121cbc816040518082815260200191505060405180910390a150505050565b60008060009054906101000a900473ffffffffffffffffffffffffffffffffffffffff1673ffffffffffffffffffffffffffffffffffffffff163373ffffffffffffffffffffffffffffffffffffffff161461059357600080fd5b3373ffffffffffffffffffffffffffffffffffffffff166108fc479081150290604051600060405180830381858888f193505050501580156105d9573d6000803e3d6000fd5b50600047146105e457fe5b47905090565b60008054906101000a900473ffffffffffffffffffffffffffffffffffffffff1681565b6000806404a817c800905061062582600183610de3565b507fc4dc360d0a9c0677a3379ae0a3d81e887f761e65fdf3d7e00859d1bcd3c473896040518080602001828103825260338152602001806129246033913960400191505060405180910390a15050565b60006509184e72a0008034101561068b57600080fd5b600034141561069957600080fd5b7fed7d0ddcc17abdb3935a0a23cd93e91b449dfeac7fd0def9f481ed5b37e18c4d3334604051808373ffffffffffffffffffffffffffffffffffffffff1681526020018281526020019250505060405180910390a13491505090565b60065481565b600066038d7ea4c680008034101561071257600080fd5b6002340247101561078b576040517f08c379a00000000000000000000000000000000000000000000000000000000081526004018080602001828103825260208152602001807f4e6f7420656e6f7567682066756e647320696e2074686520636f6e747261637481525060200191505060405180910390fd5b6000806002428161079857fe5b0614156107a857600190506107c1565b6001600242816107b457fe5b0614156107c057600090505b5b7f8a6b033d5b9144edef3c427fcd3bcf4bc09fee84dc559360150584622594a63b333483604051808473ffffffffffffffffffffffffffffffffffffffff1681526020018381526020018215158152602001935050505060405180910390a160011515811515141561087c573373ffffffffffffffffffffffffffffffffffffffff166108fc600234029081150290604051600060405180830381858888f19350505050158015610876573d6000803e3d6000fd5b5061087d565b5b7f8a6b033d5b9144edef3c427fcd3bcf4bc09fee84dc559360150584622594a63b333483604051808473ffffffffffffffffffffffffffffffffffffffff1681526020018381526020018215158152602001935050505060405180910390a1809250505090565b60008190506000602082816108f557fe5b061461090e576020818161090557fe5b06602003810190505b808360200181815250506040518084526000815281810160405250505050565b610939816004611408565b50565b6109498260028351611429565b61095c818361096f90919063ffffffff16565b505050565b61096c816007611408565b50565b610977612845565b826020015183600001515183510111156109a7576109a68360026109a086602001518651611569565b02611585565b5b60008060008451905085518051602081830101945086518101825260208701935050505b602081106109ee57815183526020830192506020820191506020810390506109cb565b60006001826020036101000a039050801983511681855116818117865250508694505050505092915050565b81602001516001836000015151011115610a4057610a3f826002846020015102611585565b5b815180516020818301018381536001820183525050505050565b610a62612845565b836020015184600001515183011115610a9057610a8f846002610a89876020015186611569565b02611585565b5b60006001836101000a0390508451805184818301018684198251161781528582018352505050849150509392505050565b60008073ffffffffffffffffffffffffffffffffffffffff16600260009054906101000a900473ffffffffffffffffffffffffffffffffffffffff1673ffffffffffffffffffffffffffffffffffffffff161480610b4957506000610b47600260009054906101000a900473ffffffffffffffffffffffffffffffffffffffff166115a8565b145b15610b5a57610b5860006115b3565b505b600260009054906101000a900473ffffffffffffffffffffffffffffffffffffffff1673ffffffffffffffffffffffffffffffffffffffff166338cc48316040518163ffffffff1660e01b8152600401602060405180830381600087803b158015610bc457600080fd5b505af1158015610bd8573d6000803e3d6000fd5b505050506040513d6020811015610bee57600080fd5b810190808051906020019092919050505073ffffffffffffffffffffffffffffffffffffffff16600160009054906101000a900473ffffffffffffffffffffffffffffffffffffffff1673ffffffffffffffffffffffffffffffffffffffff1614610d3957600260009054906101000a900473ffffffffffffffffffffffffffffffffffffffff1673ffffffffffffffffffffffffffffffffffffffff166338cc48316040518163ffffffff1660e01b8152600401602060405180830381600087803b158015610cbd57600080fd5b505af1158015610cd1573d6000803e3d6000fd5b505050506040513d6020811015610ce757600080fd5b8101908080519060200190929190505050600160006101000a81548173ffffffffffffffffffffffffffffffffffffffff021916908373ffffffffffffffffffffffffffffffffffffffff1602179055505b600160009054906101000a900473ffffffffffffffffffffffffffffffffffffffff1673ffffffffffffffffffffffffffffffffffffffff1663c281d19e6040518163ffffffff1660e01b8152600401602060405180830381600087803b158015610da357600080fd5b505af1158015610db7573d6000803e3d6000fd5b505050506040513d6020811015610dcd57600080fd5b8101908080519060200190929190505050905090565b60008083118015610df5575060208311155b610dfe57600080fd5b600a840293506060600167ffffffffffffffff81118015610e1e57600080fd5b506040519080825280601f01601f191660200182016040528015610e515781602001600182028036833780820191505090505b5090508360f81b81600081518110610e6557fe5b60200101907effffffffffffffffffffffffffffffffffffffffffffffffffffffffffffff1916908160001a9053506060602067ffffffffffffffff81118015610eae57600080fd5b506040519080825280601f01601f191660200182016040528015610ee15781602001600182028036833780820191505090505b5090506060602067ffffffffffffffff81118015610efe57600080fd5b506040519080825280601f01601f191660200182016040528015610f315781602001600182028036833780820191505090505b5090506000610f3e6115c4565b9050602083524241186001430340186020840152602082528060208301526060602067ffffffffffffffff81118015610f7657600080fd5b506040519080825280601f01601f191660200182016040528015610fa95781602001600182028036833780820191505090505b5090508860208201526060600867ffffffffffffffff81118015610fcc57600080fd5b506040519080825280601f01601f191660200182016040528015610fff5781602001600182028036833780820191505090505b50905061101282601860088460006118e4565b5061101b61285f565b604051806080016040528087815260200188815260200186815260200184815250905060006110806040518060400160405280600681526020017f72616e646f6d0000000000000000000000000000000000000000000000000000815250838c611943565b90506060600867ffffffffffffffff8111801561109c57600080fd5b506040519080825280601f01601f1916602001820160405280156110cf5781602001600182028036833780820191505090505b50905060208401517f0100000000000000000000000000000000000000000000000000000000000000810460278301537e01000000000000000000000000000000000000000000000000000000000000810460268301537d010000000000000000000000000000000000000000000000000000000000810460258301537c0100000000000000000000000000000000000000000000000000000000810460248301537b01000000000000000000000000000000000000000000000000000000810460238301537a0100000000000000000000000000000000000000000000000000008104602283015379010000000000000000000000000000000000000000000000000081046021830153780100000000000000000000000000000000000000000000000081046020830153506113f582828560016004811061120e57fe5b602002015160028760006004811061122257fe5b60200201516040518082805190602001908083835b6020831061125a5780518252602082019150602081019050602083039250611237565b6001836020036101000a038019825116818451168082178552505050505050905001915050602060405180830381855afa15801561129c573d6000803e3d6000fd5b5050506040513d60208110156112b157600080fd5b8101908080519060200190929190505050876002600481106112cf57fe5b60200201516040516020018085805190602001908083835b6020831061130a57805182526020820191506020810190506020830392506112e7565b6001836020036101000a03801982511681845116808217855250505050505090500184805190602001908083835b6020831061135b5780518252602082019150602081019050602083039250611338565b6001836020036101000a03801982511681845116808217855250505050505090500183815260200182805190602001908083835b602083106113b2578051825260208201915060208101905060208303925061138f565b6001836020036101000a03801982511681845116808217855250505050505090500194505050505060405160208183030381529060405280519060200120611cc9565b8199505050505050505050509392505050565b611425601f60058360ff16901b1783610a1a90919063ffffffff16565b5050565b60178111611455576114508160058460ff16901b60ff161784610a1a90919063ffffffff16565b611564565b60ff81116114965761147a601860058460ff16901b1784610a1a90919063ffffffff16565b61149081600185610a5a9092919063ffffffff16565b50611563565b61ffff81116114d8576114bc601960058460ff16901b1784610a1a90919063ffffffff16565b6114d281600285610a5a9092919063ffffffff16565b50611562565b63ffffffff811161151c57611500601a60058460ff16901b1784610a1a90919063ffffffff16565b61151681600485610a5a9092919063ffffffff16565b50611561565b67ffffffffffffffff811161156057611548601b60058460ff16901b1784610a1a90919063ffffffff16565b61155e81600885610a5a9092919063ffffffff16565b505b5b5b5b5b505050565b60008183111561157b5782905061157f565b8190505b92915050565b60608260000151905061159883836108e4565b6115a2838261096f565b50505050565b6000813b9050919050565b60006115bd611ce5565b9050919050565b60008073ffffffffffffffffffffffffffffffffffffffff16600260009054906101000a900473ffffffffffffffffffffffffffffffffffffffff1673ffffffffffffffffffffffffffffffffffffffff16148061164c5750600061164a600260009054906101000a900473ffffffffffffffffffffffffffffffffffffffff166115a8565b145b1561165d5761165b60006115b3565b505b600260009054906101000a900473ffffffffffffffffffffffffffffffffffffffff1673ffffffffffffffffffffffffffffffffffffffff166338cc48316040518163ffffffff1660e01b8152600401602060405180830381600087803b1580156116c757600080fd5b505af11580156116db573d6000803e3d6000fd5b505050506040513d60208110156116f157600080fd5b810190808051906020019092919050505073ffffffffffffffffffffffffffffffffffffffff16600160009054906101000a900473ffffffffffffffffffffffffffffffffffffffff1673ffffffffffffffffffffffffffffffffffffffff161461183c57600260009054906101000a900473ffffffffffffffffffffffffffffffffffffffff1673ffffffffffffffffffffffffffffffffffffffff166338cc48316040518163ffffffff1660e01b8152600401602060405180830381600087803b1580156117c057600080fd5b505af11580156117d4573d6000803e3d6000fd5b505050506040513d60208110156117ea57600080fd5b8101908080519060200190929190505050600160006101000a81548173ffffffffffffffffffffffffffffffffffffffff021916908373ffffffffffffffffffffffffffffffffffffffff1602179055505b600160009054906101000a900473ffffffffffffffffffffffffffffffffffffffff1673ffffffffffffffffffffffffffffffffffffffff1663abaa5f3e6040518163ffffffff1660e01b815260040160206040518083038186803b1580156118a457600080fd5b505afa1580156118b8573d6000803e3d6000fd5b505050506040513d60208110156118ce57600080fd5b8101908080519060200190929190505050905090565b60606000828501905080845110156118fb57600080fd5b600086602001905060008460200190505b868860200101821015611934578189015180828801525060208201915060208101905061190c565b85935050505095945050505050565b60008073ffffffffffffffffffffffffffffffffffffffff16600260009054906101000a900473ffffffffffffffffffffffffffffffffffffffff1673ffffffffffffffffffffffffffffffffffffffff1614806119cb575060006119c9600260009054906101000a900473ffffffffffffffffffffffffffffffffffffffff166115a8565b145b156119dc576119da60006115b3565b505b600260009054906101000a900473ffffffffffffffffffffffffffffffffffffffff1673ffffffffffffffffffffffffffffffffffffffff166338cc48316040518163ffffffff1660e01b8152600401602060405180830381600087803b158015611a4657600080fd5b505af1158015611a5a573d6000803e3d6000fd5b505050506040513d6020811015611a7057600080fd5b810190808051906020019092919050505073ffffffffffffffffffffffffffffffffffffffff16600160009054906101000a900473ffffffffffffffffffffffffffffffffffffffff1673ffffffffffffffffffffffffffffffffffffffff1614611bbb57600260009054906101000a900473ffffffffffffffffffffffffffffffffffffffff1673ffffffffffffffffffffffffffffffffffffffff166338cc48316040518163ffffffff1660e01b8152600401602060405180830381600087803b158015611b3f57600080fd5b505af1158015611b53573d6000803e3d6000fd5b505050506040513d6020811015611b6957600080fd5b8101908080519060200190929190505050600160006101000a81548173ffffffffffffffffffffffffffffffffffffffff021916908373ffffffffffffffffffffffffffffffffffffffff1602179055505b6060600467ffffffffffffffff81118015611bd557600080fd5b50604051908082528060200260200182016040528015611c0957816020015b6060815260200190600190039081611bf45790505b50905083600060048110611c1957fe5b602002015181600081518110611c2b57fe5b602002602001018190525083600160048110611c4357fe5b602002015181600181518110611c5557fe5b602002602001018190525083600260048110611c6d57fe5b602002015181600281518110611c7f57fe5b602002602001018190525083600360048110611c9757fe5b602002015181600381518110611ca957fe5b6020026020010181905250611cbf85828561223c565b9150509392505050565b8060046000848152602001908152602001600020819055505050565b600080611d05731d3b2638a7cc9f2cb3d298a3da7a90b67e5506ed6115a8565b1115611da757731d3b2638a7cc9f2cb3d298a3da7a90b67e5506ed600260006101000a81548173ffffffffffffffffffffffffffffffffffffffff021916908373ffffffffffffffffffffffffffffffffffffffff160217905550611d9e6040518060400160405280600b81526020017f6574685f6d61696e6e65740000000000000000000000000000000000000000008152506127a2565b60019050612239565b6000611dc673c03a2615d5efaf5f49f60b7bb6583eaec212fdf16115a8565b1115611e685773c03a2615d5efaf5f49f60b7bb6583eaec212fdf1600260006101000a81548173ffffffffffffffffffffffffffffffffffffffff021916908373ffffffffffffffffffffffffffffffffffffffff160217905550611e5f6040518060400160405280600c81526020017f6574685f726f707374656e3300000000000000000000000000000000000000008152506127a2565b60019050612239565b6000611e8773b7a07bcf2ba2f2703b24c0691b5278999c59ac7e6115a8565b1115611f295773b7a07bcf2ba2f2703b24c0691b5278999c59ac7e600260006101000a81548173ffffffffffffffffffffffffffffffffffffffff021916908373ffffffffffffffffffffffffffffffffffffffff160217905550611f206040518060400160405280600981526020017f6574685f6b6f76616e00000000000000000000000000000000000000000000008152506127a2565b60019050612239565b6000611f4873146500cfd35b22e4a392fe0adc06de1a1368ed486115a8565b1115611fea5773146500cfd35b22e4a392fe0adc06de1a1368ed48600260006101000a81548173ffffffffffffffffffffffffffffffffffffffff021916908373ffffffffffffffffffffffffffffffffffffffff160217905550611fe16040518060400160405280600b81526020017f6574685f72696e6b6562790000000000000000000000000000000000000000008152506127a2565b60019050612239565b600061200973a2998efd205fb9d4b4963afb70778d6354ad3a416115a8565b11156120ab5773a2998efd205fb9d4b4963afb70778d6354ad3a41600260006101000a81548173ffffffffffffffffffffffffffffffffffffffff021916908373ffffffffffffffffffffffffffffffffffffffff1602179055506120a26040518060400160405280600a81526020017f6574685f676f65726c69000000000000000000000000000000000000000000008152506127a2565b60019050612239565b60006120ca736f485c8bf6fc43ea212e93bbf8ce046c7f1cb4756115a8565b111561212e57736f485c8bf6fc43ea212e93bbf8ce046c7f1cb475600260006101000a81548173ffffffffffffffffffffffffffffffffffffffff021916908373ffffffffffffffffffffffffffffffffffffffff16021790555060019050612239565b600061214d7320e12a1f859b3feae5fb2a0a32c18f5a65555bbf6115a8565b11156121b1577320e12a1f859b3feae5fb2a0a32c18f5a65555bbf600260006101000a81548173ffffffffffffffffffffffffffffffffffffffff021916908373ffffffffffffffffffffffffffffffffffffffff16021790555060019050612239565b60006121d07351efaf4c8b3c9afbd5ab9f4bbc82784ab6ef8faa6115a8565b1115612234577351efaf4c8b3c9afbd5ab9f4bbc82784ab6ef8faa600260006101000a81548173ffffffffffffffffffffffffffffffffffffffff021916908373ffffffffffffffffffffffffffffffffffffffff16021790555060019050612239565b600090505b90565b60008073ffffffffffffffffffffffffffffffffffffffff16600260009054906101000a900473ffffffffffffffffffffffffffffffffffffffff1673ffffffffffffffffffffffffffffffffffffffff1614806122c4575060006122c2600260009054906101000a900473ffffffffffffffffffffffffffffffffffffffff166115a8565b145b156122d5576122d360006115b3565b505b600260009054906101000a900473ffffffffffffffffffffffffffffffffffffffff1673ffffffffffffffffffffffffffffffffffffffff166338cc48316040518163ffffffff1660e01b8152600401602060405180830381600087803b15801561233f57600080fd5b505af1158015612353573d6000803e3d6000fd5b505050506040513d602081101561236957600080fd5b810190808051906020019092919050505073ffffffffffffffffffffffffffffffffffffffff16600160009054906101000a900473ffffffffffffffffffffffffffffffffffffffff1673ffffffffffffffffffffffffffffffffffffffff16146124b457600260009054906101000a900473ffffffffffffffffffffffffffffffffffffffff1673ffffffffffffffffffffffffffffffffffffffff166338cc48316040518163ffffffff1660e01b8152600401602060405180830381600087803b15801561243857600080fd5b505af115801561244c573d6000803e3d6000fd5b505050506040513d602081101561246257600080fd5b8101908080519060200190929190505050600160006101000a81548173ffffffffffffffffffffffffffffffffffffffff021916908373ffffffffffffffffffffffffffffffffffffffff1602179055505b6000600160009054906101000a900473ffffffffffffffffffffffffffffffffffffffff1673ffffffffffffffffffffffffffffffffffffffff16632ef3accc86856040518363ffffffff1660e01b81526004018080602001838152602001828103825284818151815260200191508051906020019080838360005b8381101561254b578082015181840152602081019050612530565b50505050905090810190601f1680156125785780820380516001836020036101000a031916815260200191505b509350505050602060405180830381600087803b15801561259857600080fd5b505af11580156125ac573d6000803e3d6000fd5b505050506040513d60208110156125c257600080fd5b81019080805190602001909291905050509050823a02670de0b6b3a7640000018111156125f5576000801b91505061279b565b6060612600856127bc565b9050600160009054906101000a900473ffffffffffffffffffffffffffffffffffffffff1673ffffffffffffffffffffffffffffffffffffffff1663c55c1cb68360008985896040518663ffffffff1660e01b8152600401808581526020018060200180602001848152602001838103835286818151815260200191508051906020019080838360005b838110156126a557808201518184015260208101905061268a565b50505050905090810190601f1680156126d25780820380516001836020036101000a031916815260200191505b50838103825285818151815260200191508051906020019080838360005b8381101561270b5780820151818401526020810190506126f0565b50505050905090810190601f1680156127385780820380516001836020036101000a031916815260200191505b5096505050505050506020604051808303818588803b15801561275a57600080fd5b505af115801561276e573d6000803e3d6000fd5b50505050506040513d602081101561278557600080fd5b8101908080519060200190929190505050925050505b9392505050565b80600390805190602001906127b8929190612886565b5050565b60606127c6612839565b6127ce612845565b6127da816104006108e4565b6127e38161092e565b60005b8351811015612822576128158482815181106127fe57fe5b60200260200101518361093c90919063ffffffff16565b80806001019150506127e6565b5061282c81610961565b8060000151915050919050565b60405180590338823950565b604051806040016040528060608152602001600081525090565b60405180608001604052806004905b606081526020019060019003908161286e5790505090565b828054600181600116156101000203166002900490600052602060002090601f016020900481019282601f106128c757805160ff19168380011785556128f5565b828001600101855582156128f5579182015b828111156128f45782518255916020019190600101906128d9565b5b5090506129029190612906565b5090565b5b8082111561291f576000816000905550600101612907565b509056fe50726f7661626c65207175657279207761732073656e742c207374616e64696e6720627920666f722074686520616e73776572a2646970667358221220904a14ea0ae1289345d3b2902648ec7375686070acd1829ca776f019af4e036164736f6c6343000702003350726f7661626c65207175657279207761732073656e742c207374616e64696e6720627920666f722074686520616e73776572",
  "immutableReferences": {},
  "source": "pragma solidity 0.7.2;\nimport \"./Ownable.sol\";\nimport \"./provableAPI.sol\";\ncontract RandomP2 is Ownable, usingProvable{\n    uint256 constant NUM_RANDOM_BYTES_REQUESTED = 1;\n    uint256 public latestNumber;\n    \n    event LogNewProvableQuery(string description);\n    event generatedRandomNumber(uint256 randomNumber);\n\n    constructor() public {\n        update();\n    }\n\n    function __callback(bytes32 _queryId, string memory _result, bytes memory _proof) public override{\n        require(msg.sender == provable_cbAddress());\n\n        uint256 randomNumber = uint256(keccak256(abi.encodePacked(_result))) % 2;\n        latestNumber = randomNumber;\n        emit generatedRandomNumber(randomNumber);\n    }\n\n    function update() payable public {\n        uint256 QUERY_EXECUTION_DELAY = 0;\n        uint256 GAS_FOR_CALLBACK = 20000000000;\n        provable_newRandomDSQuery(\n            QUERY_EXECUTION_DELAY,\n            NUM_RANDOM_BYTES_REQUESTED,\n            GAS_FOR_CALLBACK\n        );\n        emit LogNewProvableQuery(\"Provable query was sent, standing by for the answer\");\n    }\n\n    event wager(address user, uint amount, bool);\n    event funded(address owner, uint funding);\n\n    modifier costs(uint cost){\n        require(msg.value >= cost);\n        _;\n    }\n\n    function fundContract() public payable costs(0.00001 ether) returns(uint) {\n        require(msg.value != 0);\n        \n        emit funded(msg.sender, msg.value);\n        return msg.value;\n    }\n    \n    function placeBet() public payable costs(0.001 ether) returns (bool){\n        require(address(this).balance >= msg.value * 2, \"Not enough funds in the contract\");\n        \n        bool result;\n\n        if((block.timestamp % 2) == 0) {\n            result = true;\n        }else if(block.timestamp % 2 == 1) {\n            result = false;\n        }\n        emit wager(msg.sender, msg.value, result);\n        if(result == true){\n            msg.sender.transfer(msg.value * 2);\n        }else {\n        }\n        emit wager(msg.sender, msg.value, result);\n        return result;\n    }\n\n    function getBalance() public returns (uint) {\n        return address(this).balance;\n    }\n\n\n    function withdrawBalance() public onlyOwner returns (uint) {\n        msg.sender.transfer(address(this).balance);\n        assert(address(this).balance == 0);\n        return address(this).balance;\n    }\n}\n",
  "sourcePath": "/Users/adrianlawson/Documents/IoT/Ethereum-Course-Advanced/CoinFlipDapp_Phase2/contracts/RandomP2.sol",
  "compiler": {
    "name": "solc",
    "version": "0.7.2+commit.51b20bc0.Emscripten.clang"
  },
  "schemaVersion": "3.3.3",
  "updatedAt": "2021-03-01T19:32:34.406Z",
  "devdoc": {
    "kind": "dev",
    "methods": {
      "__callback(bytes32,string)": {
        "details": "The following `__callback` functions are just placeholders ideally      meant to be defined in child contract when proofs are used.      The function bodies simply silence compiler warnings."
      }
    },
    "version": 1
  },
  "userdoc": {
    "kind": "user",
    "methods": {},
    "version": 1
  }
}