{
  "contractName": "Test",
  "abi": [
    {
      "constant": true,
      "inputs": [],
      "name": "random",
      "outputs": [
        {
          "internalType": "uint256",
          "name": "",
          "type": "uint256"
        }
      ],
      "payable": false,
      "stateMutability": "view",
      "type": "function"
    }
  ],
  "bytecode": "0x6080604052348015600f57600080fd5b50608f8061001e6000396000f3fe6080604052348015600f57600080fd5b506004361060285760003560e01c80635ec01e4d14602d575b600080fd5b60336049565b6040518082815260200191505060405180910390f35b600060024281605457fe5b0690509056fea265627a7a72315820d0642bb9eb15eeea882699d8e0e6cb3a485a5242232b3eb602542fbadd755ffb64736f6c634300050c0032",
  "source": "pragma solidity 0.5.12;\n\ncontract Test {\n    function random() public view returns (uint) {\n        return now % 2;\n    }\n}",
  "sourcePath": "/Users/adrianlawson/Documents/IoT/Ethereum-Course-Advanced/sudo-random-dapp/contracts/Random.sol",
  "compiler": {
    "name": "solc",
    "version": "0.5.12+commit.7709ece9.Emscripten.clang"
  },
  "schemaVersion": "3.3.3",
  "updatedAt": "2021-02-10T17:56:59.749Z",
  "devdoc": {
    "methods": {}
  },
  "userdoc": {
    "methods": {}
  }
}